:020000040800F2
:102000000004002061210008EDA50008EDA50008EE
:10201000EDA50008EDA50008EDA50008EDA5000858
:10202000EDA50008EDA50008EDA50008D13F0008CA
:10203000EDA50008EDA50008C13E0008094700080D
:10204000EDA50008EDA50008EDA50008EDA5000828
:10205000EDA50008EDA50008EDA50008EDA5000818
:10206000EDA50008EDA50008EDA5000851690008E0
:1020700009690008C168000879680008316800082B
:10208000E9670008A1670008EDA50008EDA50008B4
:1020900035610008EDA50008EDA50008EDA50008D4
:1020A000EDA50008EDA50008EDA50008EDA50008C8
:1020B000EDA50008EDA50008EDA50008E165000804
:1020C00001650008EDA50008EDA50008EDA50008D4
:1020D000EDA50008EDA50008EDA50008A97C000805
:1020E000EDA50008EDA50008EDA50008EDA5000888
:1020F000EDA50008EDA50008EDA50008EDA5000878
:10210000EDA50008EDA50008EDA50008EDA5000867
:10211000EDA50008EDA50008EDA50008EDA5000857
:10212000EDA50008EDA50008EDA50008EDA5000847
:10213000EDA50008EDA50008EDA50008EDA5000837
:10214000EDA50008EDA50008EDA50008EDA5000827
:10215000EDA50008EDA50008EDA50008EDA5000817
:1021600072B6264880F3098825484EF60851CEF20B
:1021700000010860022080F31488BFF36F8F09F01C
:102180001FFC09F0BDFB4FF055301E491E4A91421D
:102190003CBF41F8040BFAE71C49184A91423CBF86
:1021A00041F8040BFAE71A491A4A1B4B9A423EBF00
:1021B00051F8040B42F8040BF8E700201749184ABD
:1021C00091423CBF41F8040BFAE709F0D9FB09F052
:1021D000F6FB144C144DAC4203DA54F8041B884748
:1021E000F9E709F0E7F9114C114DAC4203DA54F864
:1021F000041B8847F9E709F0E1BB00000008002054
:10220000002000080000002000040020000400203E
:1022100070D00008000800202809002028090020AC
:10222000501600206021000860210008602100088D
:10223000602100082A2A2A2A2A2A2A2A2A2A2A2A1D
:102240002A2A2A2A2A2A2A2A2A2A2A2A2A2A2A2AEE
:102250002A2A2A2A2A2A2A2A2A2A2A2A2A2A2A2ADE
:102260002A2A2A2A2A2A2A2A2A2A2A2A2A2A2A2ACE
:102270002A2A2A2A2A2A2A2A2A2A2A2A2A2A2A2ABE
:102280002A2A2A2A2A2A0D0A4672656552544F5371
:10229000204B65726E656C205631302E302E300D1D
:1022A0000A436F7079726967687420284329203265
:1022B00030313720416D617A6F6E2E636F6D2C2047
:1022C000496E632E206F722069747320616666699F
:1022D0006C69617465732E2020416C6C20526967B3
:1022E0006874732052657365727665642E0D0A0DED
:1022F0000A5065726D697373696F6E206973206827
:102300006572656279206772616E7465642C2066FF
:10231000726565206F66206368617267652C207442
:102320006F20616E7920706572736F6E206F6274BA
:1023300061696E696E67206120636F7079206F66D6
:102340000D0A7468697320736F6674776172652013
:10235000616E64206173736F636961746564206486
:102360006F63756D656E746174696F6E2066696CFC
:10237000657320287468652022536F6674776172D4
:102380006522292C20746F206465616C20696E0DB4
:102390000A74686520536F66747761726520776987
:1023A00074686F7574207265737472696374696F91
:1023B0006E2C20696E636C7564696E672077697432
:1023C000686F7574206C696D69746174696F6E20D3
:1023D0007468652072696768747320746F0D0A757C
:1023E00073652C20636F70792C206D6F646966793A
:1023F0002C206D657267652C207075626C6973683E
:102400002C20646973747269627574652C2073750D
:10241000626C6963656E73652C20616E642F6F72E8
:102420002073656C6C20636F70696573206F660D37
:102430000A74686520536F6674776172652C206139
:102440006E6420746F207065726D6974207065729F
:10245000736F6E7320746F2077686F6D207468657A
:1024600020536F6674776172652069732066757298
:102470006E697368656420746F20646F20736F2CBD
:102480000D0A7375626A65637420746F20746865E1
:1024900020666F6C6C6F77696E6720636F6E64691E
:1024A00074696F6E733A0D0A0D0A54686520616293
:1024B0006F766520636F70797269676874206E6FDC
:1024C0007469636520616E64207468697320706547
:1024D000726D697373696F6E206E6F7469636520C6
:1024E0007368616C6C20626520696E636C756465ED
:1024F0006420696E20616C6C0D0A636F706965738E
:10250000206F72207375627374616E7469616C20E0
:10251000706F7274696F6E73206F662074686520C7
:10252000536F6674776172652E20496620796F75E6
:10253000207769736820746F20757365206F7572DA
:1025400020416D617A6F6E0D0A4672656552544F77
:1025500053206E616D652C20706C6561736520641D
:102560006F20736F20696E2061206661697220752B
:10257000736520776179207468617420646F657376
:10258000206E6F7420636175736520636F6E66756E
:1025900073696F6E2E0D0A0D0A54484520534F463D
:1025A00054574152452049532050524F56494445B3
:1025B0004420224153204953222C20574954484F4C
:1025C00055542057415252414E5459204F462041B4
:1025D0004E59204B494E442C204558505245535398
:1025E000204F520D0A494D504C4945442C20494E2C
:1025F000434C5544494E4720425554204E4F542099
:102600004C494D4954454420544F20544845205787
:10261000415252414E54494553204F46204D455258
:102620004348414E544142494C4954592C20464953
:10263000544E4553530D0A464F52204120504152AB
:10264000544943554C415220505552504F53452008
:10265000414E44204E4F4E494E4652494E47454DFD
:10266000454E542E20494E204E4F204556454E543F
:10267000205348414C4C2054484520415554484F24
:102680005253204F520D0A434F5059524947485414
:1026900020484F4C44455253204245204C4941422A
:1026A0004C4520464F5220414E5920434C41494D04
:1026B0002C2044414D41474553204F52204F544810
:1026C0004552204C494142494C4954592C205748C5
:1026D00045544845520D0A494E20414E204143542D
:1026E000494F4E204F4620434F4E54524143542CA5
:1026F00020544F5254204F52204F5448455257496E
:1027000053452C2041524953494E472046524F4D84
:102710002C204F5554204F46204F5220494E0D0A31
:10272000434F4E4E454354494F4E2057495448203D
:1027300054484520534F465457415245204F52204C
:1027400054484520555345204F52204F5448455238
:10275000204445414C494E475320494E205448455A
:1027600020534F4654574152452E0D0A0D0A6874A6
:1027700074703A2F2F7777772E4672656552544FD3
:10278000532E6F72670D0A687474703A2F2F617739
:10279000732E616D617A6F6E2E636F6D2F66726539
:1027A0006572746F730D0A2A2A2A2A2A2A2A2A2A6B
:1027B0002A2A2A2A2A2A2A2A2A2A2A2A2A2A2A2A79
:1027C0002A2A2A2A2A2A2A2A2A2A2A2A2A2A2A2A69
:1027D0002A2A2A2A2A2A2A2A2A2A2A2A2A2A2A2A59
:1027E0002A2A2A2A2A2A2A2A2A2A2A2A2A2A2A2A49
:1027F0002A2A2A2A2A2A2A2A2A0D0A434F505952BB
:102800004947485428632920323031362053544DEB
:102810006963726F656C656374726F6E6963730D63
:102820000A0D0A5265646973747269627574696F1E
:102830006E20616E642075736520696E20736F75FC
:1028400072636520616E642062696E6172792066D0
:102850006F726D732C2077697468206F72207769AE
:1028600074686F7574206D6F6469666963617469FB
:102870006F6E2C0D0A617265207065726D697474DB
:1028800065642070726F7669646564207468617431
:102890002074686520666F6C6C6F77696E67206363
:1028A0006F6E646974696F6E7320617265206D6507
:1028B000743A0D0A2020312E2052656469737472B7
:1028C00069627574696F6E73206F6620736F7572BD
:1028D000636520636F6465206D7573742072657421
:1028E00061696E207468652061626F766520636F30
:1028F00070797269676874206E6F746963652C0DF6
:102900000A202020202074686973206C6973742069
:102910006F6620636F6E646974696F6E7320616E99
:10292000642074686520666F6C6C6F77696E6720D1
:10293000646973636C61696D65722E0D0A202032C3
:102940002E205265646973747269627574696F6E62
:102950007320696E2062696E61727920666F726D94
:10296000206D75737420726570726F647563652075
:102970007468652061626F766520636F7079726933
:10298000676874206E6F746963652C0D0A202020BF
:10299000202074686973206C697374206F662063EB
:1029A0006F6E646974696F6E7320616E6420746801
:1029B0006520666F6C6C6F77696E672064697363FE
:1029C0006C61696D657220696E2074686520646F42
:1029D00063756D656E746174696F6E0D0A202020D9
:1029E0002020616E642F6F72206F74686572206D95
:1029F0006174657269616C732070726F7669646569
:102A000064207769746820746865206469737472DF
:102A100069627574696F6E2E0D0A2020332E204E68
:102A200065697468657220746865206E616D6520E3
:102A30006F662053544D6963726F656C6563747281
:102A40006F6E696373206E6F7220746865206E61AB
:102A50006D6573206F662069747320636F6E747286
:102A6000696275746F72730D0A20202020206D61D9
:102A700079206265207573656420746F20656E64CB
:102A80006F727365206F722070726F6D6F74652046
:102A900070726F64756374732064657269766564BF
:102AA0002066726F6D207468697320736F66747727
:102AB0006172650D0A2020202020776974686F7587
:102AC00074207370656369666963207072696F72E0
:102AD000207772697474656E207065726D697373A6
:102AE000696F6E2E0D0A20200D0A54484953205359
:102AF0004F4654574152452049532050524F564952
:102B00004445442042592054484520434F5059528F
:102B10004947485420484F4C4445525320414E4465
:102B200020434F4E5452494255544F525320224154
:102B300053204953220D0A414E4420414E5920450D
:102B4000585052455353204F5220494D504C4945FF
:102B5000442057415252414E544945532C20494E2E
:102B6000434C5544494E472C20425554204E4F5417
:102B7000204C494D4954454420544F2C205448453D
:102B80000D0A494D504C4945442057415252414E3F
:102B900054494553204F46204D45524348414E54D9
:102BA0004142494C49545920414E44204649544ED3
:102BB00045535320464F52204120504152544943DF
:102BC000554C415220505552504F5345204152458B
:102BD0000D0A444953434C41494D45442E20494E2A
:102BE000204E4F204556454E54205348414C4C20D2
:102BF00054484520434F5059524947485420484F64
:102C00004C444552204F5220434F4E545249425556
:102C1000544F5253204245204C4941424C450D0AE5
:102C2000464F5220414E59204449524543542C208E
:102C3000494E4449524543542C20494E434944454A
:102C40004E54414C2C205350454349414C2C204577
:102C500058454D504C4152592C204F5220434F4E15
:102C600053455155454E5449414C0D0A44414D413F
:102C70004745532028494E434C5544494E472C2044
:102C8000425554204E4F54204C494D495445442000
:102C9000544F2C2050524F435552454D454E5420D1
:102CA0004F46205355425354495455544520474F9D
:102CB0004F4453204F520D0A5345525649434553F2
:102CC0003B204C4F5353204F46205553452C204416
:102CD0004154412C204F522050524F464954533BAF
:102CE000204F5220425553494E45535320494E548C
:102CF000455252555054494F4E2920484F5745563A
:102D000045520D0A43415553454420414E44204FFE
:102D10004E20414E59205448454F5259204F46208D
:102D20004C494142494C4954592C20574845544834
:102D3000455220494E20434F4E54524143542C207B
:102D4000535452494354204C494142494C495459E7
:102D50002C0D0A4F5220544F52542028494E434CB8
:102D60005544494E47204E45474C4947454E4345FB
:102D7000204F52204F54484552574953452920412E
:102D8000524953494E4720494E20414E5920574100
:102D900059204F5554204F462054484520555345FF
:102DA0000D0A4F46205448495320534F465457412B
:102DB00052452C204556454E20494620414456490F
:102DC000534544204F462054484520504F535349C3
:102DD00042494C495459204F4620535543482044BA
:102DE000414D4147452E0D0A2A2A2A2A2A2A2A2AF3
:102DF0002A2A2A2A2A2A2A2A2A2A2A2A2A2A2A2A33
:102E00002A2A2A2A2A2A2A2A2A2A2A2A2A2A2A2A22
:102E10002A2A2A2A2A2A2A2A2A2A2A2A2A2A2A2A12
:102E20002A2A2A2A2A2A2A2A2A2A2A2A2A2A2A2A02
:102E30002A2A2A2A2A2A2A2A2A2A0D0A4368696261
:102E4000694F53202D20436F707972696768742031
:102E500028432920323030362E2E3230313620476A
:102E6000696F76616E6E6920446920536972696F7B
:102E70000D0A0D0A4C6963656E73656420756E6496
:102E800065722074686520417061636865204C69D3
:102E900063656E73652C2056657273696F6E2032A0
:102EA0002E30202874686520224C6963656E736536
:102EB00022293B0D0A796F75206D6179206E6F7440
:102EC0002075736520746869732066696C65206578
:102ED000786365707420696E20636F6D706C6961D2
:102EE0006E6365207769746820746865204C696337
:102EF000656E73652E0D0A596F75206D6179206FAF
:102F0000627461696E206120636F7079206F662042
:102F1000746865204C6963656E73652061740D0A81
:102F20000D0A20202020687474703A2F2F7777774D
:102F30002E6170616368652E6F72672F6C696365BF
:102F40006E7365732F4C4943454E53452D322E30D9
:102F50000D0A0D0A556E6C65737320726571756983
:102F6000726564206279206170706C696361626C63
:102F700065206C6177206F722061677265656420DF
:102F8000746F20696E2077726974696E672C207384
:102F90006F6674776172650D0A6469737472696231
:102FA0007574656420756E64657220746865204C64
:102FB0006963656E736520697320646973747269EF
:102FC0006275746564206F6E20616E20224153200B
:102FD0004953222042415349532C0D0A5749544822
:102FE0004F55542057415252414E54494553204F5A
:102FF0005220434F4E444954494F4E53204F462090
:10300000414E59204B494E442C20656974686572C5
:103010002065787072657373206F7220696D706CB3
:103020006965642E0D0A53656520746865204C69D6
:1030300063656E736520666F7220746865207370B7
:10304000656369666963206C616E67756167652099
:10305000676F7665726E696E67207065726D6973F1
:1030600073696F6E7320616E640D0A6C696D6974AB
:103070006174696F6E7320756E6465722074686523
:10308000204C6963656E73652E0D0A2A2A2A2A2A46
:103090002A2A2A2A2A2A2A2A2A2A2A2A2A2A2A2A90
:1030A0002A2A2A2A2A2A2A2A2A2A2A2A2A2A2A2A80
:1030B0002A2A2A2A2A2A2A2A2A2A2A2A2A2A2A2A70
:1030C0002A2A2A2A2A2A2A2A2A2A2A2A2A2A2A2A60
:1030D0002A2A2A2A2A2A2A2A2A2A2A2A2A0D0A4374
:1030E0006F707972696768742028632920323031E3
:1030F000372D323031382C20426572746F6C642069
:1031000056616E2064656E2042657267682028767D
:10311000616E64656E626572676840626572746F45
:103120006C642E6F7267290D0A416C6C207269679E
:103130006874732072657365727665642E0D0A5427
:1031400068697320776F726B2068617320626565B0
:103150006E20646576656C6F70656420746F207393
:103160007570706F72742072657365617263682028
:1031700066756E6465642062790D0A2246756E6418
:1031800020666F7220536369656E74696669632097
:1031900052657365617263682C20466C616E64656C
:1031A0007273222028462E572E4F2E2D566C6161A9
:1031B0006E646572656E292E0D0A0D0A526564698A
:1031C00073747269627574696F6E20616E642075C4
:1031D000736520696E20736F7572636520616E641C
:1031E0002062696E61727920666F726D732C207730
:1031F000697468206F7220776974686F75740D0A3E
:103200006D6F64696669636174696F6E2C206172A9
:1032100065207065726D69747465642070726F7674
:103220006964656420746861742074686520666FE1
:103230006C6C6F77696E6720636F6E646974696F19
:103240006E7320617265206D65743A0D0A2020202E
:10325000202A205265646973747269627574696F9B
:103260006E73206F6620736F7572636520636F6481
:1032700065206D7573742072657461696E20746861
:10328000652061626F766520636F70797269676827
:10329000740D0A2020202020206E6F746963652C35
:1032A0002074686973206C697374206F6620636F83
:1032B0006E646974696F6E7320616E6420746865F2
:1032C00020666F6C6C6F77696E6720646973636CDE
:1032D00061696D65722E0D0A202020202A2052651A
:1032E000646973747269627574696F6E7320696E54
:1032F0002062696E61727920666F726D206D7573E0
:103300007420726570726F647563652074686520DF
:1033100061626F766520636F707972696768740D9A
:103320000A2020202020206E6F746963652C207491
:10333000686973206C697374206F6620636F6E64B4
:103340006974696F6E7320616E64207468652066AD
:103350006F6C6C6F77696E6720646973636C616909
:103360006D657220696E207468650D0A202020202A
:103370002020646F63756D656E746174696F6E2073
:10338000616E642F6F72206F74686572206D617456
:10339000657269616C732070726F76696465642010
:1033A00077697468207468652064697374726962EF
:1033B0007574696F6E2E0D0A202020202A204E651C
:1033C000697468657220746865206E616D65206F30
:1033D000662074686520617574686F72206E6F7204
:1033E000207468650D0A2020202020206E616D6504
:1033F00073206F662069747320636F6E74726962E4
:1034000075746F7273206D617920626520757365C4
:103410006420746F20656E646F727365206F722014
:1034200070726F6D6F74652070726F647563747302
:103430000D0A2020202020206465726976656420B2
:1034400066726F6D207468697320736F667477613C
:10345000726520776974686F75742073706563692D
:10346000666963207072696F72207772697474651F
:103470006E207065726D697373696F6E2E0D0A0D23
:103480000A5448495320534F465457415245204906
:10349000532050524F5649444544204259205448E5
:1034A0004520434F5059524947485420484F4C44B7
:1034B00045525320414E4420434F4E5452494255A9
:1034C000544F5253202241532049532220414E440D
:1034D0000D0A414E592045585052455353204F52E2
:1034E00020494D504C4945442057415252414E5479
:1034F0004945532C20494E434C5544494E472C20B6
:10350000425554204E4F54204C494D495445442077
:10351000544F2C2054484520494D504C4945440DAA
:103520000A57415252414E54494553204F46204D6F
:1035300045524348414E544142494C495459204117
:103540004E44204649544E45535320464F52204145
:1035500020504152544943554C41522050555250ED
:103560004F5345204152450D0A444953434C41496C
:103570004D45442E20494E204E4F204556454E5431
:10358000205348414C4C2054484520415554484F05
:1035900052204F52204449535452494255544F529D
:1035A000204245204C4941424C4520464F52204143
:1035B0004E590D0A4449524543542C20494E444922
:1035C000524543542C20494E434944454E54414CA6
:1035D0002C205350454349414C2C204558454D50D3
:1035E0004C4152592C204F5220434F4E5345515578
:1035F000454E5449414C2044414D414745530D0AE5
:1036000028494E434C5544494E472C20425554209E
:103610004E4F54204C494D4954454420544F2C2082
:1036200050524F435552454D454E54204F4620531E
:1036300055425354495455544520474F4F44532005
:103640004F522053455256494345533B0D0A4C4F68
:103650005353204F46205553452C20444154412C70
:10366000204F522050524F464954533B204F522036
:10367000425553494E45535320494E544552525595
:103680005054494F4E2920484F57455645522043E4
:10369000415553454420414E440D0A4F4E20414E62
:1036A00059205448454F5259204F46204C494142D9
:1036B000494C4954592C20574845544845522049B3
:1036C0004E20434F4E54524143542C2053545249A0
:1036D0004354204C494142494C4954592C204F52A3
:1036E00020544F52540D0A28494E434C5544494EDC
:1036F00047204E45474C4947454E4345204F5220B1
:103700004F5448455257495345292041524953493E
:103710004E4720494E20414E5920574159204F5580
:1037200054204F462054484520555345204F4620AD
:10373000544849530D0A534F4654574152452C2083
:103740004556454E2049462041445649534544205C
:103750004F462054484520504F53534942494C4905
:103760005459204F4620535543482044414D41472A
:10377000452E0D0A2A2A2A2A2A2A2A2A2A2A2A2AC7
:103780002A2A2A2A2A2A2A2A2A2A2A2A2A2A2A2A99
:103790002A2A2A2A2A2A2A2A2A2A2A2A2A2A2A2A89
:1037A0002A2A2A2A2A2A2A2A2A2A2A2A2A2A2A2A79
:1037B0002A2A2A2A2A2A2A2A2A2A2A2A2A2A2A2A69
:1037C0002A2A2A2A2A2A0D0A000D0A0053B94AB9C0
:1037D000002908BF00281CBF4FF0FF314FF0FF3019
:1037E00000F074B9ADF1080C6DE904CE00F006F8F4
:1037F000DDF804E0DDE9022304B070472DE9F0476D
:103800008C460446089E002B4BD18A42154667D948
:10381000B2FA82F24AB1C2F1200701FA02F320FAA9
:1038200007F7954047EA030C94404FEA154EBCFB5E
:10383000FEF71FFA85F80EFB17C307FB08F9210CEA
:1038400041EA0343994509D9EB1807F1FF3180F0AC
:103850001C81994540F21981023F2B44A3EB0903D7
:10386000B3FBFEF00EFB103300FB08F1A4B244EAF8
:103870000344A14209D92C1900F1FF3380F00781DC
:10388000A14240F2048102382C4440EA074000275C
:10389000641A1EB10023D440C6E900433946BDE88E
:1038A000F0878B4209D9002E00F0EC800027C6E992
:1038B000000138463946BDE8F087B3FA83F7002F98
:1038C00048D18B4202D3824200F2FB80841A61EB22
:1038D000030301209C46002EE0D0C6E9004CDDE742
:1038E00002B9FFDEB2FA82F2002A40F08F8001278F
:1038F000491B4FEA15481FFA85F9B1FBF8FE08FB92
:103900001E1109FB0EF04FEA144C4CEA0143984299
:1039100007D9EB180EF1FF3102D2984200F2CD80A8
:103920008E461B1AB3FBF8F008FB103309FB00F9B5
:10393000A4B244EA0344A14507D92C1900F1FF338E
:1039400002D2A14500F2B6801846A4EB090440EA71
:103950000E409EE7C7F12005BB4022FA05FC4CEA69
:10396000030C21FA05F44FEA1C4EB4FBFEF91FFAD2
:103970008CF80EFB194420FA05F3B94009FB08FA4C
:1039800019430B0C43EA0444A24502FA07F200FA79
:1039900007F30BD91CEB040409F1FF3080F0888099
:1039A000A24540F28580A9F102096444A4EB0A040F
:1039B000B4FBFEF00EFB104400FB08FA89B241EAAA
:1039C0000444A24508D91CEB040400F1FF316BD27A
:1039D000A24569D90238644440EA0940A0FB028943
:1039E000A4EB0A044C454146CE4654D351D0002E98
:1039F00069D05A1A64EB0E0404FA05F522FA07F3AB
:103A0000FC401D43C6E90054002747E79540C2F13A
:103A1000200321FA03F04FEA1548B0FBF8F71FFA2C
:103A200085F908FB170024FA03F3914007FB09FC12
:103A30000B43190C41EA00418C4504FA02F407D902
:103A4000691807F1FF3031D28C452FD9023F294444
:103A5000A1EB0C01B1FBF8F008FB101C00FB09FE08
:103A600099B241EA0C418E4507D9691800F1FF333C
:103A700018D28E4516D902382944A1EB0E0140EA2E
:103A800007473AE73746304608E70F46E6E6184666
:103A9000FBE64345ABD2B8EB020169EB0C020138FF
:103AA0009646A4E71846E8E7084695E70746CFE7B5
:103AB00081467BE702382C4447E7AEF1020E2B44E7
:103AC0002FE7384607E73746E8E600BF704700BFF4
:103AD000844641EA000313F0030349D1403A23D35B
:103AE0000B6803604B6843608B688360CB68C3607E
:103AF0000B6903614B6943618B698361CB69C36166
:103B00000B6A03624B6A43628B6A8362CB6AC3624D
:103B10000B6B03634B6B43638B6B8363CB6BC36335
:103B200040304031403ADBD230320BD30B68036077
:103B30004B6843608B688360CB68C3601030103182
:103B4000103AF3D20C3205D351F8043B40F8043B51
:103B5000043AF9D2043208D0D2071CBF11F8013B55
:103B600000F8013B01D30B8803806046704700BF1B
:103B7000082A13D38B07B1D010F00303AED0C3F1E2
:103B80000403D21ADB071CBF11F8013B00F8013B0C
:103B9000A4D331F8023B20F8023B9FE7043AD9D383
:103BA000013A11F8013B00F8013BF9D20B780370A0
:103BB0004B7843708B7883706046704780EA010CC5
:103BC0001CF0030F37D110F0030C20F0030021F09C
:103BD000030150F8042B08BF51F8043B0ED08CF0C1
:103BE000030C6FF07F434FEACC0C23FA0CFC51F826
:103BF000043B42EA0C0243EA0C0300BFA2F1013C81
:103C00009A4201BF2CEA020C1CF0803F50F8042BB2
:103C100051F8043BF2D04FEA02604FEA1222012829
:103C200028BFB0EB036F08BF1B0AF4D003F0FF03FB
:103C3000000EC01A704710F0030F0AD010F8012BC5
:103C400011F8013B012A28BF9A42F4D0A2EB0300ED
:103C500070474DF8045D50F8042B01F0030521F086
:103C6000030151F8043B022D26D04DD822F07F45A8
:103C7000B5EB132FA2F1013C2CEA020C0DD11CF084
:103C8000803C08BF51F8043B0AD185EA0205B5EB38
:103C9000036F0CD150F8042BE8E74FEA13235BE0E5
:103CA0003CF07F4C54D10B784FEA126554E04FEA58
:103CB000126503F0FF034FE04FEA0245A2F1013C19
:103CC0004FEA15452CEA020CB5EB134F18D11CF046
:103CD000803C08BF51F8043B07D185EA0205B5EBEB
:103CE000034F09D150F8042BE6E75FEA0C4C2FD1C3
:103CF0000B884FEA12452FE04FEA03434FEA124583
:103D00004FEA134328E000BF02F0FF05B5EB136F45
:103D1000A2F1013C2CEA020C0DD11CF0803C08BF42
:103D200051F8043B0AD185EA0205B5EB032F0AD10D
:103D300050F8042BE8E74FEA13630DE012F0FF0F91
:103D400006D051F8043B4FEA122523F07F4303E0ED
:103D50004FF0000020BC704705F0FF0203F0FF00A9
:103D6000012828BF904204BF2D0A1B0AF4D0A2EB01
:103D7000000020BC704700BF134B5A689969023A93
:103D8000914209D31A6A998A01320A441A620022BE
:103D90009A829A601A617047B1F5803FDA6904D35C
:103DA0001A611A6A01321A6270471868090A815446
:103DB000596801328A4228BF0022986919688854DC
:103DC0009A8A01329A82704710130020054B9A6834
:103DD0001968885C596801328A429A6024BF0022BF
:103DE0009A6070471013002070B5154C0646A38AE0
:103DF000D3B1A26823699A4216D1FFF7E7FF0546BF
:103E0000FFF7E4FFA36840EA052080B21844636826
:103E1000A060984228BFC01AA38A28BFA060013BB7
:103E2000A382236A0133236223692268D65423695B
:103E3000626801339342236124BF0023236170BD74
:103E40001013002070B506460D460446A31B9D4284
:103E500004D8054A93692B44936170BD14F8010B93
:103E6000FFF7C2FFF2E700BF10130020C0080023D5
:103E7000834201D00133FBE770470000EFF3058375
:103E80000F2B06D9084A9B5C084A12789A4200D93F
:103E9000FEE7074B074A1B68126803F4E06393428E
:103EA00000D9FEE7704700BFF0E300E040130020B8
:103EB0000CED00E0441300200000000000000000B2
:103EC000184B1B6818481A460260EFF30980BFF3CD
:103ED0006F8F134B1A6820E9F00F144C2468EFF32E
:103EE000118120E9120010602DE908404FF0BF0059
:103EF00080F3118807F07EFABDE808401968086869
:103F000012C881F3118809490C60B0E8F00F80F302
:103F10000988BFF36F8F7047AFF30080AFF3008065
:103F2000A81100204C13002020ED00E058130020C1
:103F3000044A136803B9FEE7013B136080F311885C
:103F4000704700BF58130020EFF311804FF0BF03FC
:103F500083F31188BFF36F8FBFF34F8F024A13684B
:103F600001331360704700BF58130020044A1368E0
:103F700003B9FEE7013B13600BB983F31188704767
:103F800058130020064B1A683AB94FF0BF0181F36D
:103F90001188BFF36F8FBFF34F8F01321A607047E4
:103FA0005813002006480068006880F3088862B64D
:103FB00061B6BFF34F8FBFF36F8F00DF00BF00000C
:103FC00008ED00E00000000000000000000000001C
:103FD0000B4B1968086830C8B0E8F00F80F3098807
:103FE000BFF36F8F4FF0000080F311884EF00D0E7D
:103FF000704700BFAFF30080AFF30080AFF30080E5
:10400000A811002008B5044B1B68013300D0FEE75F
:10401000FFF7B8FFFEE700BF58130020064A1368F9
:104020001968064B19B94FF0FF321A6070471268D1
:10403000D268D2685268F8E7AC110020F815002069
:10404000F8B50E46FFF79EFF33680F4C591C2268E7
:10405000A44611D00D4D04682F684168BC4201D0C0
:1040600091420FD9521A93420AD99B1A33602B6896
:104070000360DCF8003043600020FFF777FFF8BDF5
:10408000002333600120F8E748160020FC150020CB
:10409000094B0A4A1B681268D06A58B9084A126864
:1040A000012A08D8012B06D8064B1868064B1B6856
:1040B000C01A70470020704774130020A811002018
:1040C000B8110020F815002048160020024A136895
:1040D00001331360704700BF6C13002008B5FFF771
:1040E00051FF0022024B1A6072B671B608BD00BFC4
:1040F00014160020F8B510B9FFF7F0FFFEE7012312
:104100001F4C477C266803FA07F5354235D11D4B15
:1041100043F8371003EBC7035A60730608BF1A4A07
:10412000016802BF536943F00103536143681A6891
:1041300022F00F021A600E22077CBA404A60002269
:104140001A6083681E4214D1C021837C03F160424F
:1041500002F5614282F80013012203F01F015B099E
:104160009B0003F160438A4003F56143C3F880215B
:104170001A60002035432560F8BD1846FCE700BFF3
:1041800044100020E80F0020001002400369D0E92D
:1041900001128A60826851605968814208BF5A6082
:1041A000002202611A68013A1A60186870470A68AA
:1041B00030B5531C0AD103695A684A6091608B601C
:1041C0005960036808610133036030BD00F10803E2
:1041D0005C6825689542EFD82346F9E743689A68FA
:1041E0004B608A609A685160996003680861013386
:1041F00003607047F8B5044600B9FEE7FFF73EFEDE
:10420000FFF7A2FE022394F864500746EDB2012D99
:1042100084F8643021661FD1A36A03B1FEE7134B13
:104220001B68F3B9261D3046FFF7B0FF104A142073
:10423000E36A11689D400D43314615600D4A00FB4D
:104240000320FFF7CBFF0C4BE26A1B68DB6A9A4244
:1042500082BF0122094B1A603846FFF769FE012030
:10426000F8BD04F118010648EBE700BF6C1300200D
:1042700074130020B8110020A81100204C16002053
:104280000016002010B50446EFF3118313B1006847
:1042900018B910BDFFF722FFFEE7FFF7ABFF0023C1
:1042A0002360F6E770B5054610B9FFF717FFFEE784
:1042B000EFF3118383B14668C3680E43466073B958
:1042C0002C687CB96B68F3B105F108006FF002014E
:1042D000BDE87040FFF7D6BFFFF700FFFEE73146AD
:1042E0009847EDE723691E4206D06369A16933430D
:1042F0006361E068FFF7D6FF22696B68246823EAF0
:1043000002036B60DDE770BD436807B573B10193CD
:104310009B6D4BB100225A65436001A8FFF7B2FFC5
:10432000012003B05DF804FB0360F5E71846F8E7E9
:1043300010B50446EFF3118313B9FFF7CFFEFEE784
:104340006FF001012046FFF7DFFF0028F8D110BD14
:1043500008B5EFF3118323B1BDE808400021FFF752
:10436000D3BFFFF7BBFEFEE7F8B51B4B1B4E1C6827
:10437000054630680F460430FFF708FF334640B962
:1043800001203168164EC96A3268884022EA00026C
:1043900032606A1C07D137B1196812480431BDE890
:1043A000F840FFF71BBF1A686419546007D30E4A20
:1043B00010681968BDE8F8400431FFF7F8BE0B4AF1
:1043C000106819680431FFF7F2FE094B1A68A2421F
:1043D00088BF1C60F8BD00BF48160020A81100204F
:1043E0007413002020160020B4110020AC1100200E
:1043F000F815002070B5234C0E461546FFF7C2FD98
:10440000236893F86430022B21D001212268136EB7
:1044100023EA00031366236883F86410BDB12846BD
:10442000FFF7A2FF184B194A19681160184A126861
:104430002AB11A6822F47F021A601A681A604FF0D3
:104440008052144B1A60BFF34F8FBFF36F8FFFF78B
:104450008DFDFFF797FD236800201B6E33602368F6
:1044600093F86430022B04BF23681A6E4FF00002E9
:1044700008BF1866236808BF012083F86420FFF78F
:1044800075FD70BDA811002020ED00E04C13002048
:104490005813002004ED00E013B504460846EFF37E
:1044A00011832BB1EFF305832BB1FFF717FEFEE766
:1044B000FFF714FEFEE719B94FF0FF3002B010BD50
:1044C00034B1FFF75FFD094B1968FFF74FFD21601D
:1044D000024601A94FF0FF30FFF78CFF18B9002CFE
:1044E000EAD02060E8E70198E8E700BFA8110020C3
:1044F00070B50646084600293AD0EFF311832BB178
:10450000EFF305832BB1FFF7E9FDFEE7FFF7E6FDCB
:10451000FEE7194DFFF736FD2C68FFF727FD3368DE
:10452000E4B92A685365DCB92A680021916503B1B2
:104530009C657368346003B9746001460020FFF71E
:10454000ABFF431C09D16CB92B685B6D04B92C68B7
:10455000A26D4BB19A654AB1536570BD2246E1E741
:104560002246E2E72346F0E77260F4E73360F4E7BF
:104570004FF0FF30F1E700BFA811002038B5C36845
:10458000DC6804B9FEE704F118052846FFF7FEFDD4
:10459000124B1B68F3B9251D2846FFF7F7FD0123D1
:1045A0000F49E26A08689340034314200B602946D0
:1045B0000C4B00FB0230FFF711FE0B4BE26A1B684D
:1045C000DB6A9A4285BF0120084B00201860FFF784
:1045D00025FD38BD29460648EDE700BF6C130020D5
:1045E00074130020B8110020A81100204C160020E0
:1045F000001600202DE9F84F384B1B68002B66D1C0
:10460000374B1C6801341C607CB9364B1A68126841
:1046100002B1FEE7344A1968106818601160334A25
:10462000136801331360FFF7F9FC314D4FF0000BB5
:104630002B68304FA34211D93A682F4BD16A14220C
:104640004A439A58022A28BF4FF0010B2B4A12689E
:10465000002A0CBF58460120BDE8F88FDFF884A07F
:10466000DFF8A090DAF8002012681AB94FF0FF3294
:104670002A60E1E7DAF80020D268D66871688C42D7
:1046800001D22960D8E706F104084046FFF77EFD15
:10469000B16A19B106F11800FFF778FD01224FF059
:1046A000140CF06AD9F8003002FA00F11943124BE9
:1046B000C9F800100CFB00304146FFF78FFD386849
:1046C000F16AC26A914228BF4FF0010BCAE70C4A57
:1046D0004FF0000B136801331360B7E76C13002031
:1046E00048160020AC110020B4110020FC15002059
:1046F000F8150020A8110020B81100204C16002049
:10470000641300207413002008B5FFF73BFCFFF78B
:1047100071FF38B1054B1A68054B1A604FF0805293
:10472000044B1A60BDE80840FFF720BC20ED00E014
:104730004C13002004ED00E033482DE9F8430368F2
:1047400003B9FEE7FFF71EFC0368013B0360046842
:1047500024B10020FFF70AFCBDE8F8832B4B1B684F
:10476000002BF6D02A4D2B4EDFF8C8801FE0EB68F7
:104770000127DC6804F1040904F11800FFF706FDC5
:104780004846FFF703FD1420E26A316807FA02F396
:104790000B4300FB028049463360FFF71FFD1E4BB1
:1047A000E26A1B68DB6A9A4201D31C4B1F602B68CC
:1047B000002BDCD10CB1FFF731FC194D2C6844B152
:1047C0000127164EFFF716FF00B13760013CF9D103
:1047D0002C60124B1B68002BBBD0124B124A19687D
:1047E0001160124A12682AB11A6822F47F021A6014
:1047F0001A681A604FF080520D4B1A60BFF34F8F4A
:10480000BFF36F8F0120A5E76C1300205C1300201D
:104810000016002074130020A81100204C16002060
:104820006413002020ED00E04C13002058130020FA
:1048300004ED00E0B81100202DE9F74F17460A6893
:104840000D46002A5AD04FF0000A0446D0464B6865
:1048500001F108025B68DFF8A89093424B6008BF43
:10486000CB68009208BF4B604B68DB6801936B68B4
:10487000009A5B689A426B6004BFEB686B606B6880
:10488000D3F80CB0BBF1000F29D1D9F8006006F1C4
:1048900034006060F06A26602061306BE061706C0B
:1048A000A060F06CC4E90508D9F80000864218D170
:1048B00084F80C80326B1046831A10F801EBBEF1BD
:1048C000A50FF9D09B082384019B0AF1010A5B45DF
:1048D00004F12404CBD1504603B0BDE8F08F5E460E
:1048E000D5E7032F2773E5D1FFF7F0FBB06A10B1CE
:1048F0004FF002032373FFF71FFFDBE79246EAE75F
:10490000A811002008B578B9114B124A1968116036
:10491000114A1268AAB94FF08052104B1A60BFF3C7
:104920004F8FBFF36F8F0BE00D4B196801B1FEE79E
:10493000FFF7CCFBFFF718FDFFF7FEFE0028E3D0E2
:1049400008BD1A6822F47F021A601A681A60E2E74A
:1049500020ED00E04C1300205813002004ED00E08F
:104960006C130020F8B50446FFF70CFB444B454D93
:104970001A68454801321A602A68002A74D12C60EE
:104980001B68012B3ED14FF0FF374FF0140C164639
:1049900000F108030CFB02F10132052A43E901375B
:1049A000C3E90133465003F11403F3D1374A02F14E
:1049B0000803C2E90137C2E90333354B166003F13E
:1049C0000801C3E90117C3E9031132491E6001F16F
:1049D000080C0E60C1E901C7C1E903CC2E4901F101
:1049E000080C0E60C1E901C7C1E903CC2B4901F1F4
:1049F000080C0E60C1E901C7C1E903CC28490A606F
:104A0000284A1360284A294913680E680133136045
:104A100063640123E26A934033430B601423211D36
:104A200003FB0200FFF7DAFBFFF7A0FA204B1B683D
:104A3000CBB12B68DA6AE36A9A4214D21D4B1E4A44
:104A4000196811601D4A12682AB11A6822F47F029F
:104A50001A601A681A604FF08052194B1A60BFF33F
:104A60004F8FBFF36F8FF8BD114B1B68002BC9D15F
:104A70002B68DA6AE36A9A4298BF2C60C2E700BFEB
:104A80005C130020A8110020B81100207C13002026
:104A9000901300200016002034160020201600205D
:104AA000AC110020B41100207013002074130020FA
:104AB0001416002020ED00E04C13002058130020B5
:104AC00004ED00E02DE9F0410446FFF75BFA4FF0FA
:104AD000010890F845501B4F6DB200F12406002DDF
:104AE00017DCFF234FF0010884F84530FFF73EFA4A
:104AF000FFF748FA94F84450124F6DB204F11006D3
:104B0000002D12DCFF2384F84430BDE8F041FFF7AC
:104B10002DBA636A002BE4D03046FFF72FFD08B1B1
:104B2000C7F80080013D6DB2D9E72369002BE9D0B9
:104B30003046FFF723FD08B1C7F80080013D6DB294
:104B4000DEE700BF4C1600202DE9F04F85B0019143
:104B5000054600B9FEE7046C04B1FEE720468F4F1E
:104B6000DFF85492AAE0019B1BB9002C00F053819E
:104B7000FEE728B98A4B1B6802938A4B1B68039394
:104B8000FFF7F4F9FFF7A2FAFFF7FCF995F84430C4
:104B9000FF2B04BF002385F8443095F84530FF2BE8
:104BA00004BF002385F84530FFF7E0F901A902A80A
:104BB000FFF746FA002840F0C480FFF7E3F9AB6B3B
:104BC000002B73D1FFF7D2F92B68774E002B46D11B
:104BD000FFF7D8F96C68002C3FD03268E36AD26ADC
:104BE000934280F0A6804FF0140AA269DFF8CCB19E
:104BF000002AA8BF32680AFB03B3A8BFD26AD8460E
:104C0000A4BFC2F10502A26162699A4240F08C80A1
:104C1000211D08460091FFF7B9FA644B009968B965
:104C2000E26A0AFB02FA5BF80A0038B94FF0010E9B
:104C300018680EFA02FC20EA0C00186030681A6846
:104C4000C06AE062012404FA00FC4CEA02021A6025
:104C5000142303FB0080FFF7C1FAFFF787F93168DF
:104C6000DDF804A0183105F12400FFF7A0FA0121B6
:104C70005046FFF779FB2846FFF724FFFFF75CFD5E
:104C8000D8B94B4B3A681A604A4B1B682BB13B684A
:104C900023F47F033B603B683B604FF08053C9F8CF
:104CA0000030BFF34F8FBFF36F8F06E0FFF75EF961
:104CB0002846FFF707FFFFF73FFD0120FFF762F9E6
:104CC000AB6B002B3FF44FAF013BAB632B6843B999
:104CD000354B1A681AB119680A6D01320A651B68EA
:104CE0006B602B69CBB105F11000FFF747FCA0B159
:104CF0002A4B2F4A196811602E4A12682AB11A6885
:104D000022F47F021A601A681A604FF080522A4B10
:104D10001A60BFF34F8FBFF36F8FFFF727F901249E
:104D2000204605B0BDE8F08F3368DB6AE3620124FA
:104D300093E73368E46CDB6A9C422CBF00240124B7
:104D40008BE72846FFF7BEFEFFF7F6FCFFF71AF9E0
:104D5000AB6B13B1FFF70AF9AFE7FFF707F9002CC8
:104D6000DED0FFF70FF96B6A1BB12B6B1B68C3F129
:104D700005036C68002C4ED0216D01B9FEE7E26C92
:104D8000934238BF1346E26A9A4244D0012942D185
:104D9000054909688C4213D1FEE700BF20ED00E011
:104DA000FC15002048160020A811002074130020D4
:104DB0004C1300205813002004ED00E0B81100202F
:104DC0001427A169164D002907FB0252E362A4BF14
:104DD000C3F10503A361636993421CD104F1040884
:104DE0004046FFF7D3F90F4EE26A48B90123574313
:104DF000E85903FA02F118B9336823EA0103336072
:104E000001231420316893400B4300FB02504146BC
:104E10003360FFF7E3F9FFF7A9F8002480E700BF4C
:104E2000B81100207413002010B50F4B1A6882428D
:104E300018D35C681919884201BF416818460919DE
:104E40005960446801198A4207D1084909688A42B1
:104E50001FBF51681268091941609842026018BF6B
:104E6000186010BD1346E1E718160020B0110020AD
:104E700008B5E8B10F4A50F8043C1268134200D15B
:104E8000FEE750F8081C01B1FEE723EA020340F8F0
:104E9000043CFFF71BF9084A50F8043C1168083835
:104EA0000B441360FFF7C0FFBDE80840FFF744BCA8
:104EB00008BD00BF78130020A413002010B590F89F
:104EC000653004463BB9006BFFF7D2FF2046BDE8D2
:104ED0001040FFF7CDBF012BF9D0022B00D0FEE729
:104EE00010BD000070B52B4DFFF74CF82C68261D47
:104EF0003046FFF74BF960B91421E06A264B414375
:104F00005B5833B90122254982400B6823EA02032A
:104F10000B60A36A1BB104F11800FFF737F9204AB0
:104F20001368013313602B689C4213D131461D482E
:104F3000FFF754F91C4A136801331360FFF716F8A2
:104F40001A4B1B682BB32B689C4222D1184B1B6851
:104F500053B1FEE7174A20461368013B1360FFF781
:104F6000ADFFFFF75BF8E9E7134B144A19681160CE
:104F7000134A12682AB11A6822F47F021A601A686A
:104F80001A604FF080520F4B1A60BFF34F8FBFF380
:104F90006F8F70BDA8110020B8110020741300207D
:104FA0007013002034160020601300201416002017
:104FB0006C1300205C13002020ED00E04C13002057
:104FC0005813002004ED00E02DE9F041374DFFF7C4
:104FD0007DF82B68364C0BBB3649374B4E07A3EB9D
:104FE00001030A4605D0073121F0070113440A46A0
:104FF0005B1A00211344314E083B23F00703716014
:105000003260C3E90011991A2B60C2E900312C4BC0
:1050100019602C4B19604FF000432360276807424A
:105020003FD100283DD000F1080358071CBF23F0F2
:1050300007030833002B34D0224A166890469E425C
:105040002FD31E4A14686068984201D2216871B952
:105050002968A14225D0216815681160C21A102A5A
:1050600005F108050AD9E018410703D0FEE72246FA
:105070000C46E8E742606360FFF7D6FE0023104964
:1050800062680868B61A864247EA0207C8F80060F4
:1050900038BF0E6067602360FFF74EFB6B0702D0DE
:1050A000FEE70025F8E72846BDE8F081B0110020B2
:1050B0007813002050160020005000201816002001
:1050C000F4150020A413002010B50446CB6800207E
:1050D0009B686FF07E0198472046236A002198471D
:1050E000012010BD2DE9F041CD68536816461468C3
:1050F0002A78002B80460CBF412742276B68BAB143
:105100001C44AB6802212046984730B9AB680221A5
:105110006008984770B147F02007D8F82030404623
:10512000394698476B680120F3602B78337402E0AE
:10513000A34202D90020BDE8F081E41AE1E708B5F6
:105140000021036A9847012008BD10B51446036A80
:105150004FF4407198472368012003F58C3303F521
:10516000A073E3600023237410BD10B51446036AD6
:105170000021984723680120E3600023237410BDB9
:105180002DE9F0414FF0140C044600270D4641690B
:10519000FAB20CFB02F801EB08000369B3B1E6694F
:1051A000D640F30730D42B7AA3B16E7A96422BD136
:1051B000237EFF2B17D126766E7261692A46414401
:1051C0000B6920461B6898470646C0B90026304642
:1051D000BDE8F0812E684368B34215D88368B342B6
:1051E00012D31646E4E7B342E5D0142202FB0311C2
:1051F0000B695B68002BDED020469847DBE70FCDBC
:105200000FC42B682360E2E70137C1E70368012080
:105210009B680B607047036821EA02000A4042EA7B
:1052200000421A61012070472DE9304804464FF0D2
:10523000000BFEF789FE23685A681B6815464BEA87
:105240000304FEF775FE8900C1F12002A1F12003DD
:1052500005FA02F224FA01F125FA03F31143194386
:10526000024B01F00F01585CBDE83088D0BD00084A
:105270000123032AF0B5006803FA01F129D1016185
:10528000164B08269F5C00231A461D461C4611F04B
:10529000800F4FEA04144FEA02124FEA05154FEA55
:1052A00003130CBF44F00F043A4311F4004F0CBF3A
:1052B00045F00F053B43013E4FEA4101E7D141680C
:1052C00029400B43436003682340134303600120DC
:1052D000F0BD042A08BF4161D2E700BFE0BD00086D
:1052E000044B1A79824283BF0C221B6802FB0030F8
:1052F0000148704728090020ECC7000810B5FFF7E7
:10530000EFFF83681B6913B1BDE81040184710BD5B
:1053100010B50446000AFFF7E3FF83680A461B68DE
:10532000E1B2BDE81040184713B50446000AFFF784
:10533000D7FF002302A941F8043D8368E4B2DB688B
:1053400098470198E04000F0010002B010BD10B590
:105350000446000AFFF7C4FFE4B201FA04F2012197
:105360008368A1409B68BDE81040184708B501213B
:1053700040F20310FFF7EBFF4FF47A70FFF7C2FA29
:105380000022014B1A7008BD5513002038B50446A1
:105390004FF6FF7534F8040BA8420AD014F8021C2B
:1053A000FFF7B6FF14F8011C34F8040CFFF7CFFF29
:1053B000F0E738BD094A137983420DD9916821FA83
:1053C00000F3DB0708D4012383400B439360136889
:1053D0000C2202FB00307047002070472809002093
:1053E00010B50C46FFF7E6FF20B1034B0460836065
:1053F0001023436010BD00BF78C7000807B502A89E
:1054000000F8011D0121FEF71DFD002003B05DF82D
:1054100004FB10B51446084691B2FEF713FD204672
:1054200010BD0000037C70B58B4247D0244B017443
:105430001C68002C42D0002940D0FEF7A3FD0223B7
:1054400094F8645084F864300123EDB29D422366E1
:1054500030D1261D3046FEF799FE1420194AE36A22
:1054600011689D400D431560174A314600FB03202B
:10547000FEF7B4FEA36A03B1FEE7FEF7CFFD134BC0
:10548000E26A1B68DB6A9A4214D9114B114A196807
:105490001160114A12682AB11A6822F47F021A6058
:1054A0001A681A604FF080520C4B1A60BFF34F8F8E
:1054B000BFF36F8FBDE87040FEF758BD70BD00BFF1
:1054C000A411002074130020B8110020A81100209E
:1054D00020ED00E04C1300205813002004ED00E004
:1054E00007B50D4E002534685CB92DB94FF0FF3279
:1054F00001A92846FEF77EFF42F21070FFF702FA7C
:10550000F0E7237C2BB123681BB1606898472074B7
:105510000543A468E8E700BFA011002090B1421C39
:1055200012D0831C12D0012812D0022812D00328D6
:1055300012D0042812D00A4B0A4A05280CBF18467C
:105540001046704708487047084870470848704739
:10555000084870470848704708487047084870472F
:105560008BC80008B3C8000846C8000849C800082E
:1055700051C8000860C800086EC800087CC8000850
:10558000A4C8000810B50446C36F0021D889FFF7EE
:10559000DEFE4FF4C870FEF769FCE36FD889FFF7B1
:1055A000C3FE002814BF0420002010BD10B504461F
:1055B000C36F0121D889FFF7CAFE4FF4C870FEF708
:1055C00055FCE36FD889FFF7AFFE00280CBF02201F
:1055D000002010BD10B50446C36F00219889FFF765
:1055E000B6FE4FF4C870FEF741FCE36F9889FFF7F1
:1055F0009BFE002814BF0320002010BD38B5C36FE8
:10560000012105469889FFF7A2FE4FF4C870FEF706
:105610002DFC0624EB6F9889FFF786FE08B1002069
:1056200038BD0120013CFFF76DF914F0FF04F1D102
:105630000120F5E708B5EFF311832BB1EFF30582F5
:105640002AB1FEF74BFDFEE7FEF748FDFEE70E4BE5
:1056500019681A60A1B10D4B0D4A196811600D4A05
:1056600012682AB11A6822F47F021A601A681A6056
:105670004FF08052084B1A60BFF34F8FBFF36F8F0C
:10568000BDE80840FEF772BC4C16002020ED00E09B
:105690004C1300205813002004ED00E02DE9F041E8
:1056A000C56F044615B9FEF719FDFEE703785A1ECB
:1056B000012A04D9052B02D0FEF710FDFEE7FEF704
:1056C00061FC94F800806560B8F1010FA66F3AD1D3
:1056D0008A239A22C4E91A326D4B9C4233D16D4F12
:1056E00022463B696C4943F400133B610023206F61
:1056F0003B61FEF7FFFC10B1FEF7F0FCFEE722462F
:105700006649606FFEF7F6FC10B1FEF7E7FCFEE7B6
:10571000C0224FF00041FB6943F40013FB61604B72
:1057200083F81F23C3F88011196083F82023C3F87E
:105730008481C3F80480A36E43F44053A366E36EF0
:1057400043F44053E366236F60685A6806F1100320
:105750009360626F5349526893604FF40043002294
:1057600033604FF410633260736043685F1E8F4292
:1057700002D9FEF7B3FCFEE7A16F077AD1F804C0A7
:105780002CF03F0C4FEA0C4C4FEA1C4CC1F804C003
:10579000D1F804C04CF0240CC1F804C0DFF80CC1EF
:1057A00063451ED8012F02D0FEF798FCFEE73E4F5E
:1057B0005B0097FBF3F203FB127313B1FEF78EFC51
:1057C000FEE792B2032A02D8FEF788FCFEE72527FF
:1057D000B2F5805FC2F30B030F6220D3FEF77EFCAD
:1057E000FEE7DFF8CCC0634547DCBA1E012A02D9C8
:1057F000FEF774FCFEE7022FDFF8ACC02FD103EBFD
:1058000043039CFBF3F203FB12C313B1FEF766FCE8
:10581000FEE792B213430B2243F400430A62CB61CA
:1058200002780B68022A9BB229D0032A2DD0012AC4
:1058300002D123F00A039BB20B60336843F00103EB
:10584000336002232370FFF7F5FE297CA889FFF758
:105850005FFD297CE889BDE8F041FFF759BD1927B4
:105860007B439CFBF3F203FB12C313B1FEF736FC40
:10587000FEE792B24FF48043CCE71346CFE723F024
:1058800008039BB243F00203D6E743F00A03D3E7D1
:105890003409002000100240AD6400085F64000875
:1058A00000E100E0FF083D0000512502A086010054
:1058B000801A06000C4B10B51B7803B999B10B4C3C
:1058C00022788A420FD0FEF73FFB094B1A6C39B1A0
:1058D00042F400721A642170BDE81040FEF728BB44
:1058E00022F40072F6E710BD000800201109002024
:1058F000005C0040022930B506D0032906D00129FA
:105900002A4818BF002030BD2948FCE7022A03D8E6
:10591000284800EBC200F6E7032A44D126490B7859
:105920000BB12648EFE784201C4608704A709A089D
:1059300002F10052A2F618021278C3F34000800070
:10594000024102F00F02092A03F1020394BF303230
:105950005732CA54302B01EB03025470E7D10020B8
:105960002D2381F833400446134A154D81F8323017
:1059700043191B7C01301909092903F00F0394BF57
:1059800030315731092B94BF30335733142882F804
:10599000341082F8363082F8354082F8374002F110
:1059A0000402E5D1BDE70020ADE700BF18CF000835
:1059B000CCCE0008C8CF000831120020E0CF00088C
:1059C00044D00008014B1868FEF7B2BA68130020F3
:1059D00008B5FEF7B9FA014B186008BD681300203E
:1059E00008B58047BDE80840FFF77CBA024AD36893
:1059F00043F08003D360704700480040044B5A686E
:105A000018B142F080625A60704722F08062FAE773
:105A10000010024070B5344B027E032053F8224040
:105A20000C43FFF75DFC8368E2B29B684FF0FF31E7
:105A3000984784F48071C1F300214FF48470FFF71C
:105A400086FCC4F34020FFF7D9FF14F4806318BF2D
:105A5000642314F4006418BFC8241C44234B1C6046
:105A6000234B1C6804B9FEE7224D2B689C423AD0B8
:105A7000FEF788FA6269204B9A4230D1A36A1F4A26
:105A800093422CD05BBB261D3046FEF77FFB0123E3
:105A90001B49E26A08689340034314200B60194BCA
:105AA000314600FB0230FEF799FB2B68E26ADB6AA5
:105AB0009A4214D3144B154A19681160144A12689B
:105AC0002AB11A6822F47F021A601A681A604FF02D
:105AD0008052104B1A60BFF34F8FBFF36F8FBDE83A
:105AE0007040FEF743BA70BDB8BD000898110020A1
:105AF0009C110020A8110020201600200016002074
:105B000074130020B811002020ED00E04C13002099
:105B10005813002004ED00E020B100214FF4827002
:105B2000FFF715BC0121F9E7BFF34F8F0549064B7D
:105B3000CA6802F4E0621343CB60BFF34F8F00BF2B
:105B4000FDE700BF00ED00E00400FA0503681B7EDE
:105B500043FA01F111F0010F14BF02200620704733
:105B600008B510B9FEF7BAFAFEE74FF0FF31BDE80D
:105B700008400068FEF7E8BFF0B5074D2B780D2B05
:105B800008D80C245C43054F01333E19C6E90112C5
:105B900038512B70F0BD00BF100900205C080020B8
:105BA00070B503783BB32D2B23D101242546044443
:105BB000002017E0A2F13003DBB2092B00FB01F655
:105BC00088BF4FF0FF3002F0DF0298BF58B2A2F159
:105BD0004103192B9CBF373A50B288420BDA431C61
:105BE00006D0304414F8012B002AE3D105B140421D
:105BF00070BD0024DAE74FF0FF30F9E7036810B515
:105C00001B68044613B9FEF769FAFEE7D8684FF03F
:105C1000FF31FEF799FF23681C680CB1586810B972
:105C2000FEF75CFAFEE7FEF7ADF923785A1E012A6B
:105C300002D9FEF753FAFEE7012B606021D1254B14
:105C40009C4216D122462449606EFEF753FA10B1E9
:105C5000FEF744FAFEE722462049A06EFEF74AFA14
:105C600010B1FEF73BFAFEE71D4A936943F48053F7
:105C70009361636E5A68236E0C339360A26E526810
:105C800093606068E26E418922F4706211F4006FE3
:105C900016BF42F4A062E266E2664FF00002236F94
:105CA00041F4417123F4706318BF43F4A063236788
:105CB000236E1A608289196042F007025A601A68DE
:105CC00042F040021A6002232370BDE81040FFF743
:105CD000B1BC00BFE00E0020E7630008D9630008F4
:105CE00000100240D0E903239A421FBF4268D25CF1
:105CF0000133036114BF10466FF001007047D0E913
:105D000002239A421FBF4268D154C36801331ABFAD
:105D1000C36000206FF00100704770B500F10B0404
:105D20002346B1FBF2F602FB161101F13005392DC5
:105D3000C8BF01F1370503F8015D3146002EF0D1EF
:105D4000E21A411E9C1813F8015B9C4201F8015FA6
:105D5000F9D1104470BD00002DE9F04F0B4680468C
:105D600015464FF0000987B019785E1C002900F035
:105D70000981252907D0D8F8003040469B6898470C
:105D800009F10109C6E05A784FF0000B2D2A08BF2F
:105D90009E1C37780CBF01230023302F18BF20270B
:105DA000019308BF013616F8012BA2F13001C9B2E8
:105DB000092903D92A2A05D1297804350A2303FBA6
:105DC0000B1BF0E72E2A4FF000010ED116F8012B25
:105DD000A2F13000C0B2092803D92A2A05D12878B7
:105DE00004350A2303FB0101F0E702F0DF004C2831
:105DF00010D1307808B102460136632A25D000F26E
:105E00009C804F2A72D000F29180442A2CD0492ADB
:105E10000ED129E0A2F14100632AC0B215D00CD8FE
:105E20004F2A63D000F28280442A18D0492A16D023
:105E300006AC04F80C2DAA460EE06F2A56D000F2EC
:105E40008380642A0BD0692AF1E720272A6806ACF0
:105E500005F1040A04F80C2D0DF10D0016E0AA4618
:105E600019285AF8041B02D8296805F1040A0029E8
:105E7000BCBF2D228DF80C204FF00A02BABF494258
:105E80000DF10D0003A8FFF748FF03AC051B0199B6
:105E9000ABEB050323EAE37200293DD1002BC2F1ED
:105EA000000B1BDD21782D290CD1302F0AD1D8F819
:105EB000003040469B6801929847019A013D09F1E4
:105EC00001090134D8F8003039469B6840460192F8
:105ED00098471BF1010B019AF4D191442B4610E035
:105EE0000A2205F1040A296803A8CCE70822F8E78A
:105EF000D8F8002014F8011B92684046019390479F
:105F0000019B013BF4D5002DA8BFA9445C462CB9E8
:105F10005546D944334627E79346DFE7D8F80030A3
:105F200039469B6840469847013CF0E7552AD7D050
:105F3000582A7FF47DAF1022D3E76F2AD6D003D83A
:105F4000642A91D0692A63E7752AC9D0782AF2D0E9
:105F5000732A7FF46DAF2C680C4B47F6FF72002C50
:105F600008BF1C46002908BF1146224605F1040A55
:105F7000214410460578013215B18D1A002DF8DA4A
:105F8000202783E7484607B0BDE8F08FF2BD000840
:105F9000F8B500EB8103DE68336803F00303022BDE
:105FA00006D0032B23D0012B1ED1FEF797F8FEE776
:105FB0000022344B0F011C6D736904F1804404F519
:105FC000C0443D19D3B100236B60338AD0F884C03C
:105FD000013323F001036344B3F5007FC0F884303C
:105FE00008D9FEF77BF8FEE74FF40072E1E74FF4C3
:105FF000C062DEE747F804C042F02002B36933B361
:10600000748A3E2C04F1FF3316D943F01F03013389
:106010001D4E5B1146EA83239BB2EB60D0F88430BF
:10602000013424F001041C44B4F5007FC0F884401E
:106030000AD9FEF753F8FEE7022643F001030133C5
:1060400093FBF6F39B02E7E7AB6042F4005248F2A1
:10605000800042EA010323F47843890023F0F0032F
:1060600001F1804101F5B841034322F4F1620B6074
:1060700022F007020B685204520C5A4002430A6095
:10608000F8BD00BF005C00400080FFFF022370B538
:1060900080220025154C29462370154BE56784F8AE
:1060A0006450A560C4E90455C4E90655C4E908551F
:1060B000A5621D655D64DA6462682046D268AA4202
:1060C0000CBF4FF41C424FF41E421A644023C4F824
:1060D0008430084BE360FFF75BFF63681B6823B104
:1060E00029462046BDE87040184770BD540F002077
:1060F000005C00400CC700080D4B00011B6D10B583
:1061000003F1804303F5C043C418C358114403F19D
:10611000005303F540535B006260002AA1EB0200CC
:1061200000DC10BD0088023A18600433F5E700BFB8
:10613000005C00402DE9F84F914D6C6C660504D56C
:106140006FF480636B64FFF7A1FF200511D52B6C02
:106150008C4843F008032B646FF400636B6403788E
:1061600080F880300523037043681B680BB104215D
:106170009847E10414D5824B9A6C12040CD41A6C23
:10618000804822F008021A6490F880300370436857
:106190001B680BB1052198476FF48052784B5A6405
:1061A000A30508D577484368DB6803B198476FF4C7
:1061B0000072734B5A64734EA9E004F00F04A500FB
:1061C00005F1804505F5B845D5F80090A71C06EB0C
:1061D000870319F0800FD3F8048028D02A68D8F8F4
:1061E000143022F4784222F0F00242F400422A6095
:1061F000D9685A6818680A44801A5A602DD0B8F8CD
:106200001020824228BF024698680144C3E9021266
:106210002046FFF771FF2B6823F4F04323F040037F
:1062200083F0300343F4004343F080032B6019F400
:10623000004F6AD02B6819F4006F23F4784323F0E1
:10624000F00343F080032B60E1B215D006EB870723
:106250007B685B683046984757E0012303FA04F2F5
:10626000338923EA02033381D8F80830002BDED0CB
:10627000214630469847DAE7414BD8F818201B6D85
:10628000D2F808B003F1804303F5C04303EB0413D5
:106290009868DB6800F1005000F540504000C3F3FF
:1062A0000903DC4682469946B9F1010F0CF1020C54
:1062B0004CD86FF0010E4FEA530C0EFB0C3EBEF1B2
:1062C000000F03D050F82C000BF81C009068184405
:1062D00090605068184450601068C01A106090892F
:1062E000013880B29081B8F812209A4201D8002873
:1062F00039D10123A340748906EB870724EA0304FC
:106300007B687481DB68002BA4D11D4B5C6C14F49A
:1063100000417FF452AF1C4B1A681960A2B11B4BAD
:106320001B4A196811601B4A12682AB11A6822F4C4
:106330007F021A601A681A604FF08052164B1A607A
:10634000BFF34F8FBFF36F8FBDE8F88FDAF800E02F
:10635000A9F102090CF802EC4FEA1E2E0CF801EC30
:106360000AF1040AA0E72B6823F4904323F070039A
:1063700083F4405343F4004343F080032B60C4E7AD
:10638000005C0040540F00204C16002020ED00E07F
:106390004C1300205813002004ED00E00A4B0B4A78
:1063A000196811600A4A12682AB11A6822F47F0239
:1063B0001A601A681A604FF08052064B1A60BFF3D9
:1063C0004F8FBFF36F8F704720ED00E04C1300201C
:1063D0005813002004ED00E008B50B0702D5FDF7C7
:1063E0007DFEFEE708BD38B50B07044602D5FDF774
:1063F00075FEFEE7836E59680A6822F00F020A6094
:106400001A7C19680E2303FA02F24A60426E55683C
:10641000296821F00F0129601168127C93404B60BC
:1064200043681B682BB10422027098472378042B21
:1064300001D102232370FFF7CBFAEFF311832BB1C5
:10644000A06830B9BDE83840FFF7BCBAFDF746FE9A
:10645000FEE70021FDF7CEFE0023A360F2E708B5BA
:106460000B0702D5FDF73AFEFEE7D0E91D3158686B
:10647000026822F00F020260187C1A680E23834023
:1064800053604B6843F400734B6008BD10B504467D
:10649000EFF3118313B1006818B910BDFDF71EFEAC
:1064A000FEE7FDF7A7FE00232360F6E711F00801E1
:1064B00038B5044602D0FDF711FEFEE7026F836F88
:1064C0005568286820F00F002860157C10680E229F
:1064D000AA4042605A6822F480525A601A6822F434
:1064E00080621A601A6842F400721A60FFF770FA4C
:1064F00004F16000FFF7CAFFBDE83840FFF762BA59
:10650000F8B5344B996F4C6904F45F40C04348615F
:10651000586FA2B24668356825F00F053560057CD6
:1065200006680E2000FA05F575601D6F6F683E68FD
:1065300026F00F063E602E682D7CA8407060D3F8D0
:1065400080000130C3F8800012F4807018BF012071
:106550009705986042BF986840F002009860560521
:106560000BD54D68986825F400754D600D6840F0B6
:10657000040045F400750D609860150542BF9968E8
:1065800041F008019960500442BF996841F0200130
:106590009960D10442BF9A6842F010029A602204C6
:1065A00042BF9A6842F040029A609B6843B1FFF78D
:1065B0000FFA6FF001010848FFF768FFFFF702FAD2
:1065C0000021064B1A6819601AB1BDE8F840FFF7C0
:1065D000E5BEF8BD34090020940900204C160020C7
:1065E00070B54D4DAC6FD5F88020A3696669013256
:1065F00016F4807FC5F88020294601D11D2A1CD9B8
:10660000636923F480736361636823F400736360D8
:1066100001238B60FFF7DCF96FF001013F48FFF7C2
:1066200035FFFFF7CFF900213D4B1A681960002AAA
:1066300070D0BDE87040FFF7B1BE46EA0343394A67
:1066400023F07F4393422ED00AD8073A93421DD0BD
:10665000013293422CD016F00A0F18BFA369E2E76B
:10666000314A93423AD002329342F4D12B6F5B68A5
:10667000596800293DD0B5F8643043F00103A5F80E
:106680006430236843F4A0632360CCE7B5F864303A
:106690001A0A06D003F0010343F0F00302F00602E9
:1066A00013432361D7E7B5F86430C3F34703F8E732
:1066B000636823F4007363602B6F5B681A6842F0B1
:1066C00001021A60626842F4805262605B68012BCA
:1066D000C1D8236823F480632360BCE7636823F494
:1066E000007363606B6F5A68136843F001031360B3
:1066F000B1E7636823F400736360236843F40073B5
:106700002360FFF765F905F16000FFF7BFFEFFF7B3
:1067100059F9A0E770BD00BF34090020940900209A
:106720004C160020080003008200070070B510B965
:10673000FDF7D4FCFEE70125154A467C136805FAEF
:1067400006F1194202D1FDF7C9FCFEE723EA010375
:106750008168136013EA01040BD1827C02F01F01EF
:106760008D4050090B49203041F82050114481F8E8
:1067700000430021084A5B0642F8361002EBC602CD
:10678000516001BF054A536923F00103536170BD95
:106790004410002000E100E0E80F0020001002405B
:1067A00008B50D4B0D4A19681268090E01F00E016B
:1067B0000A4206D00A065A60094A136B0BB1506BA5
:1067C00098470021074B1A6819601AB1BDE80840C4
:1067D000FFF7E4BD08BD00BF00000240800002409A
:1067E000E80F00204C16002008B50D4B0D4A196823
:1067F0001268090D01F00E010A4206D00A055A601E
:10680000094A936A0BB1D06A98470021074B1A686E
:1068100019601AB1BDE80840FFF7C0BD08BD00BF50
:10682000000002406C000240E80F00204C160020DF
:1068300008B50D4B0D4A19681268090C01F00E01DC
:106840000A4206D00A045A60094A136A0BB1506A18
:1068500098470021074B1A6819601AB1BDE8084033
:10686000FFF79CBD08BD00BF000002405800024079
:10687000E80F00204C16002008B50D4B0D4A196892
:106880001268090B01F00E010A4206D00A035A6091
:10689000094A93690BB1D06998470021074B1A68E0
:1068A00019601AB1BDE80840FFF778BD08BD00BF08
:1068B0000000024044000240E80F00204C16002077
:1068C00008B50D4B0D4A19681268090A01F00E014E
:1068D0000A4206D00A025A60094A13690BB150698C
:1068E00098470021074B1A6819601AB1BDE80840A3
:1068F000FFF754BD08BD00BF000002403000024059
:10690000E80F00204C16002008B50D4B0D4A196801
:106910001268090901F00E010A4206D00A015A6004
:10692000094A93680BB1D06898470021074B1A6851
:1069300019601AB1BDE80840FFF730BD08BD00BFBF
:10694000000002401C000240E80F00204C1600200E
:1069500008B50C4B0C4A1968126801F00E010A4286
:1069600005D00A4A596013680BB150689847002156
:10697000074B1A6819601AB1BDE80840FFF70EBD51
:1069800008BD00BF0000024008000240E80F0020E0
:106990004C160020F8B50C461146EFF311821AB1DF
:1069A00028B9FDF79BFBFEE7FDF798FBFEE7072CF8
:1069B000F7D801250689A540ADB216EA050702D031
:1069C000FDF78CFBFEE73543058100EB8400C268D0
:1069D0005069128AC0E900379A4228BF1A4681607E
:1069E000C2602046A40004F1804404F5B844FFF7D7
:1069F00083FB236823F4F04323F0400383F0300348
:106A000043F4004343F080032360F8BD10B590F8D1
:106A100064300446062B3FD8DFE803F01E1E1E1329
:106A2000041E2100052380F86430FEF7D1FF002307
:106A300020461A461946FFF7ADFFBDE81040FEF7A5
:106A4000C1BFC3689B695B682BB9036F03B19847EB
:106A5000002384F8643010BDFDF740FBFEE748F2E8
:106A600080000F490B6823F4F04323F0400383F0C8
:106A7000100202430A600B6823F4904323F0700372
:106A800083F4805303430B6063681B6813B10621D2
:106A9000204698470623DCE7FDF720FBFEE700BF12
:106AA000005C0040F8B5EFF311841CB128B9FDF784
:106AB00015FBFEE7FDF712FBFEE70729F7D80126D5
:106AC000448906FA01F5ADB214EA050702D0FDF7D4
:106AD00005FBFEE72C43448100EB8100C468A069FC
:106AE0008260C0E9003793B98681890001F1804155
:106AF00001F5B8410B6823F4904323F0700383F44D
:106B0000405343F4004343F080030B60F8BD628AB6
:106B1000013B1344B3FBF2F38381E6E710B590F831
:106B200064300446062B56D8DFE803F035042135DF
:106B30003530380090F87B1090F87A20C36E42EA26
:106B40000122934213D2C268128AB3FBF2F102FB14
:106B5000113161B9FEF73CFF20460B460A46FFF7AC
:106B600019FFFEF72FFF022384F8643010BD0323C2
:106B700084F86430FEF72CFF002320461A4619469D
:106B8000FFF790FFBDE81040FEF71CBF036F03B195
:106B900098470023E8E7FDF7A1FAFEE748F28000F6
:106BA0000E490B6823F4F04323F0400383F01002F6
:106BB00002430A600B6823F4904323F0700383F4CC
:106BC000805303430B6063681B6813B106212046A2
:106BD00098470623C8E7FDF781FAFEE7005C00400E
:106BE000002370B5044680F86430C04B00F1740295
:106BF0001B6D03F1804303F5C04303EB01118B6868
:106C000003F1005303F540535B0003F110011868D2
:106C100004338B4222F8020BF9D163689B68002B86
:106C200038D194F8743013F0600514D194F87520BD
:106C300003F07F0343EA0223B3F5407F00F0B08006
:106C400077D8022B00F028814AD8002B00F09280E0
:106C5000012B00F01B8148F28000A4490B6823F44B
:106C6000F04323F0400383F0100202430A600B68F4
:106C700023F4904323F0700383F4805303430B60A9
:106C800063681B6813B1062120469847062384F8E1
:106C9000643070BD204698470028C2D094F87B200D
:106CA00094F87A3043EA0223E26E9A4288BFE366A0
:106CB00094F97430E16E002B80F24F81002900F0CE
:106CC0004081012384F86430FEF782FED4E91A2360
:106CD00000212046FFF75EFEBDE87040FEF772BE61
:106CE000B3F5807F4DD0B3F5817FB4D194F8763081
:106CF000002BB0D194F8782012F00F0300F0C2807E
:106D00009B0003F1804312F0800F03F5B8431A682B
:106D100000F0DC8002F03002302A00F0B3801A6804
:106D200022F4F04222F0400282F0200242F40042BB
:106D3000D8E0B3F5C06F3DD00BD840F20232934299
:106D400000F0DE80B3F5A06F85D1C4E91A55684B19
:106D500015E0B3F5106F43D040F60242934200F0C5
:106D60009580B3F5006F7FF476AF04F17F03A366DF
:106D7000012333E004F17C02A2660222E26623676B
:106D80008CE794F87630012B7FF465AFB4F87C3053
:106D900023F00203C4E91A55A4F87C3025677DE787
:106DA00094F87630012B7FF456AFB4F87C3043F082
:106DB0000203EFE794F87920616894F878304E6820
:106DC00043EA022394F8771094F876202046B047DF
:106DD00000283FF440AF4368A3660368E366DDE73D
:106DE00094F87F2094F876309A424BD02378042B85
:106DF0003BD1FEF7EDFDEFF3118313B9FDF76EF90B
:106E0000FEE72378042B02D0FDF768F9FEE723891B
:106E1000012203F001032381638948F2800003F01B
:106E2000010363810023C4E90433C4E90633C4E9E0
:106E30000833A3624023C4F88430930003F18043F5
:106E400003F5B843196801320143082A1960186034
:106E5000F3D1FEF7B7FD0023032184F87F30636888
:106E600021701B680BB12046984794F876304BB1DF
:106E700084F87F300423237063681B6813B10221F8
:106E8000204698470023C4E91A3378E7194BA366D4
:106E90000223E366002372E794F8783003F00F02D0
:106EA00013F0800F114B53F8223008D013F0300349
:106EB0003FF4D1AE102B14BF0F4B104BE7E713F488
:106EC00040533FF4C8AEB3F5805FF4E702F440529C
:106ED000B2F5405FD6D01A6822F4F04222F04002A8
:106EE00042F4204242F080021A60CBE7005C00408E
:106EF0007D6F000840D00008B5BD000809C8000833
:106F000094F87630002B7FF4A6AE94F8782012F037
:106F10000F03B7D09B0003F1804303F5B84312F091
:106F2000800F1A6815BF22F4F04222F4904222F03A
:106F3000400222F0700214BF82F0100282F48052EC
:106F4000F4E6032384F86430FEF742FD0B460A465C
:106F500000212046FFF7A6FDBEE639B1042384F8E0
:106F60006430FEF735FDD4E91A23F1E7052384F8F0
:106F70006430FEF72DFD0B460A46A9E690F8763000
:106F8000074A80F87E3043F0800310B5D36443682D
:106F900004461B680BB1012198470323237010BDE1
:106FA000005C004070B50D46164610B9FDF796F826
:106FB000FEE7FCF7E7FF0378022B02D0FDF78EF81F
:106FC000FEE743681B6813B1FDF788F8FEE703236B
:106FD0000370436E0F4A5C68C36EE66043F0800343
:106FE00065602360836E4FF0FF315B680830DA60C4
:106FF000826E5D601A60226842F0010222601A68A7
:1070000042F001021A60FDF747FABDE87040FEF752
:1070100011BB00BF08C700087047000090F874302B
:1070200003F06003202B07D190F87530202B03D399
:10703000212B03D9222B09D000207047054B8366F2
:107040000723C36600230367012070470023C0E9BC
:107050001A33F8E75008002038B5D0F898440146B4
:1070600020680378042B1ED10B7D022B1BD101233A
:107070002279458903FA02F22A4214D1EFF31182F0
:1070800072B1D1E90A25AA4201D1496A59B904323B
:1070900009D04FF480736179FFF704FD002038BDFB
:1070A000FDF71CF8FEE70120F9E7406BFFF7D4BFBE
:1070B000113110B550F82140002C3DD0FEF788FC6E
:1070C00004216018FDF7EEF8D4F89824136852797B
:1070D00003EB8203DB689B695A68EFF311831BB1F2
:1070E0002AB9FCF7FBFFFEE7FCF7F8FFFEE7636B4E
:1070F000043B9A42F5D8D4E90A318B4204D1616A43
:1071000011B1FCF7EBFFFEE71A60626A01326262BE
:10711000626B1344226BA36293420AD204F11800FB
:10712000FDF716F92046FFF797FFBDE81040FEF780
:1071300049BCE36BA362F1E710BD000008B5EFF3B3
:1071400011832BB1EFF305822AB1FCF7C7FFFEE7ED
:10715000FCF7C4FFFEE70D4B19681A60A1B10C4B98
:107160000C4A196811600C4A12682AB11A6822F494
:107170007F021A601A681A604FF08052074B1A603B
:10718000BFF34F8FBFF36F8F08BD00BF4C160020B9
:1071900020ED00E04C1300205813002004ED00E027
:1071A00008B510B9FCF79AFFFEE74FF0FF31BDE8D4
:1071B0000840C068FDF7C8BC2DE9F74F0446894672
:1071C0001E46154612B9FCF789FFFEE74FF000088E
:1071D000234FD0F81CA0FCF7D5FEFCF74FFE3B6810
:1071E00006F1FF3BF3180093A3680BB3A368013BC0
:1071F000A36009F10103019363695A1C626199F864
:1072000000201A70D4E904329A4224BFE368636113
:10721000BAF1000F01D02046D047FEF70BFA013D2E
:1072200008F1010817D0FCF7ADFEDDF80490DBE7AC
:107230001BF1030F06D931462046FDF759F9002806
:10724000D2D006E0FCF71AFE3968009B591A8E422C
:10725000F2D2FEF7EFF9404603B0BDE8F08F00BF71
:10726000481600203C30FFF7A7BF4FF0FF333C30FB
:10727000FFF7A2BF70B504460D461646FCF782FE26
:10728000A368A3B1A368013BA36063695A1C626150
:107290001D70D4E904329A4224BFE3686361E36954
:1072A0000BB120469847FEF7C5F9002007E03146AC
:1072B0002046FDF71DF90028E2DAFEF7BBF970BDA4
:1072C0003C30FFF7D7BF4FF0FF323C30FFF7D2BF63
:1072D0002DE9F74F044689461E46154612B9FCF7BC
:1072E000FDFEFEE74FF00008234FD0F81CA0FCF78E
:1072F00049FEFCF7C3FD3B6806F1FF3BF318009322
:10730000A3680BB3A368013BA360A3695A1CA261E5
:107310001B7809F1010289F8003023690192A26902
:107320009A4224BFE368A361BAF1000F01D020465E
:10733000D047FEF77FF9013D08F1010817D0FCF7AF
:1073400021FEDDF80490DBE71BF1030F06D931467F
:107350002046FDF7CDF80028D2D006E0FCF78EFDE0
:107360003968009B591A8E42F2D2FEF763F9404603
:1073700003B0BDE8F08F00BF481600201830FFF7BB
:10738000A7BF4FF0FF331830FFF7A2BF38B5044650
:107390000D46FCF7F7FDA3689BB1A368A269013B0A
:1073A000A360531CA36115782269934224BFE3684C
:1073B000A361E3690BB120469847FEF73BF92846E5
:1073C00007E029462046FDF793F80028E3DAFEF7A8
:1073D00031F938BD1830FFF7D9BF4FF0FF31183001
:1073E000FFF7D4BF10B5EFF311832BB1EFF3058393
:1073F0002BB1FCF773FEFEE7FCF770FEFEE719B158
:10740000C369043B8B4202D2FCF768FEFEE7C36807
:1074100013B9FCF763FEFEE703691960C268013A1D
:10742000C260C269134482690361934224BF436A04
:10743000036100238362036B13B1BDE8104018475A
:1074400010BD38B504460D46EFF311832BB1EFF3B1
:1074500005836BB1FCF742FEFEE7FCF73FFEFEE75B
:10746000237AABB929462046FDF742F800280EDB07
:10747000E368002BF4D0E36813B9FCF72FFEFEE7B6
:10748000002023691A1DA262E2691344E36238BD39
:107490006FF00100FBE738B504460D461046FCF7D7
:1074A00071FDA36A3BB901462046FFF7CAFF10B140
:1074B000FEF7C0F838BDA36A1D70A36AE26A013303
:1074C0009342A36204D3E16920460439FFF78AFF9F
:1074D000FEF7B0F80020EDE770B50446D0F8980448
:1074E0000D468368164613B101210068984732465D
:1074F000294604F15000BDE87040FFF7CCBFD0F83A
:10750000982438B5936804460D4613B101211068DC
:107510009847294604F150004FF0FF32BDE838404B
:10752000FFF7B9BF08B5EFF3118353B1D0E90423D6
:107530009A4201D1C2683AB9184650F8043B0B6030
:1075400008BDFCF7CBFDFEE70020F9E713B5284C9A
:10755000FEF73EFAD4F8981408680378042B38D163
:10756000237D022B35D101230A79934002891342EE
:107570002FD1EFF3118313B3D4E91832934230D1F2
:10758000E26D002A2DD0A26F5AB3043AD21A28D045
:107590001A60E26D01A9013AE265E26E15481344F2
:1075A000A26E2366934224BF636F23660023A36702
:1075B000FFF7B8FF024628B9FCF790FDFEE7FCF79D
:1075C0008DFDFEE7D4F89844019B21792068FFF7F0
:1075D000E1F9094A136801331360FEF7F3F902B0C9
:1075E00010BD8B68002BF4D000219847F1E700BF55
:1075F000440A0020940A0020C812002013B5446BEE
:10760000D4F898341A681178042916D1217D0229FA
:1076100013D11979012312898B4013420DD101A98D
:1076200004F15000FFF77EFF024630B1D4F89844D1
:10763000019B21792068FFF7ADF902B010BD00EB86
:1076400081032DE9F3419C6A05460E46002C35D096
:10765000FEF7BEF905EB86070821201DFCF722FE88
:10766000FB6804F150085B691B68D3B1EFF3118329
:1076700043B1D4E918239A4207D1E26D2AB1FCF74D
:107680002DFDFEE7FCF72AFDFEE7E26D0132E26523
:10769000E26E1344A26E6366934212D24046FCF738
:1076A00057FE01A94046FFF73DFF024660B1019B2E
:1076B00031462846FFF76EF9FEF784F902B0BDE8BF
:1076C000F081636F6366E9E7FB685A69126832B15B
:1076D0001B8A013B134002D105F17402E8E7D4F89C
:1076E00098249368002BE7D0012110689847E3E7BE
:1076F00010B5EFF311832BB1EFF305832BB1FCF73A
:10770000EDFCFEE7FCF7EAFCFEE7C36813B9FCF703
:10771000E5FCFEE7C368C269013BC36043691344EB
:1077200082694361934224BF436A436100238362B9
:10773000036B13B1BDE81040184710BD38B50446BF
:107740000D46EFF311832BB1EFF305836BB1FCF71B
:10775000C5FCFEE7FCF7C2FCFEE7237AABB929467D
:107760002046FCF7C5FE00280EDBE368002BF4D0B2
:10777000E36813B9FCF7B2FCFEE700206269131D51
:107780001268A3621344E36238BD6FF00100FBE7A7
:1077900038B504460846FCF7F5FBA36A4BB9014629
:1077A0002046FFF7CBFF054618B1FDF743FF2846FB
:1077B00038BDA36AE26A13F8015B9342A362F4D373
:1077C0002046FFF795FFF0E71830FFF7E1BF4FF0D5
:1077D000FF311830FFF7DCBF10B500B9FEE7FCF74A
:1077E000D1FBD0E90F3463430268D1181B1B13444B
:1077F0004160C3600021FF2382604FF0FF3281634C
:1078000080F8443080F8453000F11803C0E90623C1
:107810004361036200F12C030161C0E90A32C0E94F
:107820000C334162FCF7A2FB012010BD10B5FCF740
:10783000A9FB184B1A78022A02D0FCF74FFCFEE78E
:107840005A68126812B1FCF749FCFEE703220424CF
:107850001A705A6E5168104ACA60DA6E4C600A603B
:107860009A6E5268D060186F546040F080001060CB
:10787000086840F001000860116803F1080041F059
:10788000010111604FF0FF31FCF706FEBDE810402A
:10789000FDF7D0BEE00E00204810002070B5044671
:1078A000C36F01219889FDF752FDE36F0121D8894B
:1078B000FDF74DFDE56F0721E889FDF729FD07215B
:1078C000A889FDF725FDFCF75DFB23785A1E012AE8
:1078D00004D9052B04D0FCF701FCFEE7012B36D0C0
:1078E0004FF400420025A36F606F1A6042681D606C
:1078F0005D605D611368016823F00F0313600E2360
:10790000027C03FA02F24A60226F5668316821F065
:107910000F0131601168127C93404B60FEF706FF47
:10792000206FFEF703FF3A4B9C4210D14FF000420C
:10793000384BC3F88020012283F81F53C3F88420FA
:10794000354A83F82053D36923F40013D36100230D
:10795000636001232370FDF76DFE4FF4C870FCF7E0
:1079600085FA2046FDF722FE48262046FDF746FE12
:107970000546002842D12046FDF72CFE054600288A
:107980003CD1013E16F0FF06EFD12046FDF736FE52
:10799000054698BBE36FD889FDF7C6FC98B320462F
:1079A000FDF7F0FD054648BB2046FDF713FE0546F2
:1079B00020BB2046FDF7FAFD09262046FDF71EFEF6
:1079C0000546D8B92046FDF705FE0546B0B9E36F78
:1079D000D889FDF7A9FCC0B1013E16F0FF06ECD135
:1079E0002046FDF7CFFD054640B92046FDF706FECF
:1079F000054618B92046FDF7D9FD05462046FDF796
:107A00004DFE284670BD0225F8E70525F6E700BFC4
:107A10003409002000E100E00010024008B5144BDA
:107A2000196899B1FCF72AFA124B1A684FF47A7365
:107A30004B4393420AD8104AD36943F0C053D361F1
:107A400044F24D220D4B9A62FEF76EF8FCF79AFA5B
:107A50000B4B1A78022A02D0FCF740FBFEE74AF6ED
:107A6000AA229B681A60FDF7E5FD012008BD00BF52
:107A7000580800204816002000100240006C00400A
:107A8000DC0F002037B5540702D0FCF727FBFEE7D8
:107A900001F132041BB950F82450AA4236D01143E8
:107AA0000B0E8DF804301B4D0B0C8DF8053040F893
:107AB00024200B0A8DF806308DF80710FCF762FAC7
:107AC0002B78022B02D0FCF709FBFEE701246B6840
:107AD0005A681B8904FA03F35361FDF7ABFD01A853
