:020000040800F2
:1020000000040020612100083DAE00083DAE00083C
:102010003DAE00083DAE00083DAE00083DAE0008F4
:102020003DAE00083DAE00083DAE0008314200085C
:102030003DAE00083DAE000821410008754900088A
:102040003DAE00083DAE00083DAE00083DAE0008C4
:102050003DAE00083DAE00083DAE00083DAE0008B4
:102060003DAE00083DAE00083DAE00089D6A000888
:10207000556A00080D6A0008C56900087D690008F6
:1020800035690008ED6800083DAE00083DAE000867
:10209000816200083DAE00083DAE00083DAE00087C
:1020A0003DAE00083DAE00083DAE00083DAE000864
:1020B0003DAE00083DAE00083DAE000829670008AF
:1020C000456600083DAE00083DAE00083DAE000884
:1020D0003DAE00083DAE00083DAE00084D7E000854
:1020E0003DAE00083DAE00083DAE00083DAE000824
:1020F0003DAE00083DAE00083DAE00083DAE000814
:102100003DAE00083DAE00083DAE00083DAE000803
:102110003DAE00083DAE00083DAE00083DAE0008F3
:102120003DAE00083DAE00083DAE00083DAE0008E3
:102130003DAE00083DAE00083DAE00083DAE0008D3
:102140003DAE00083DAE00083DAE00083DAE0008C3
:102150003DAE00083DAE00083DAE00083DAE0008B3
:1021600072B6264880F3098825484EF60851CEF20B
:1021700000010860022080F31488BFF36F8F09F01C
:1021800075FB09F00BFB4FF055301E491E4A91427A
:102190003CBF41F8040BFAE71C49184A91423CBF86
:1021A00041F8040BFAE71A491A4A1B4B9A423EBF00
:1021B00051F8040B42F8040BF8E700201749184ABD
:1021C00091423CBF41F8040BFAE709F027FB09F004
:1021D0004CFB144C144DAC4203DA54F8041B8847F2
:1021E000F9E709F035F9114C114DAC4203DA54F816
:1021F000041B8847F9E709F037BB000000080020FE
:10220000002000080000002000040020000400203E
:10221000B0CB000800080020280900202809002071
:10222000501600206021000860210008602100088D
:10223000602100082A2A2A2A2A2A2A2A2A2A2A2A1D
:102240002A2A2A2A2A2A2A2A2A2A2A2A2A2A2A2AEE
:102250002A2A2A2A2A2A2A2A2A2A2A2A2A2A2A2ADE
:102260002A2A2A2A2A2A2A2A2A2A2A2A2A2A2A2ACE
:102270002A2A2A2A2A2A2A2A2A2A2A2A2A2A2A2ABE
:102280002A2A2A2A2A2A0D0A4672656552544F5371
:10229000204B65726E656C205631302E302E300D1D
:1022A0000A436F7079726967687420284329203265
:1022B00030313720416D617A6F6E2E636F6D2C2047
:1022C000496E632E206F722069747320616666699F
:1022D0006C69617465732E2020416C6C20526967B3
:1022E0006874732052657365727665642E0D0A0DED
:1022F0000A5065726D697373696F6E206973206827
:102300006572656279206772616E7465642C2066FF
:10231000726565206F66206368617267652C207442
:102320006F20616E7920706572736F6E206F6274BA
:1023300061696E696E67206120636F7079206F66D6
:102340000D0A7468697320736F6674776172652013
:10235000616E64206173736F636961746564206486
:102360006F63756D656E746174696F6E2066696CFC
:10237000657320287468652022536F6674776172D4
:102380006522292C20746F206465616C20696E0DB4
:102390000A74686520536F66747761726520776987
:1023A00074686F7574207265737472696374696F91
:1023B0006E2C20696E636C7564696E672077697432
:1023C000686F7574206C696D69746174696F6E20D3
:1023D0007468652072696768747320746F0D0A757C
:1023E00073652C20636F70792C206D6F646966793A
:1023F0002C206D657267652C207075626C6973683E
:102400002C20646973747269627574652C2073750D
:10241000626C6963656E73652C20616E642F6F72E8
:102420002073656C6C20636F70696573206F660D37
:102430000A74686520536F6674776172652C206139
:102440006E6420746F207065726D6974207065729F
:10245000736F6E7320746F2077686F6D207468657A
:1024600020536F6674776172652069732066757298
:102470006E697368656420746F20646F20736F2CBD
:102480000D0A7375626A65637420746F20746865E1
:1024900020666F6C6C6F77696E6720636F6E64691E
:1024A00074696F6E733A0D0A0D0A54686520616293
:1024B0006F766520636F70797269676874206E6FDC
:1024C0007469636520616E64207468697320706547
:1024D000726D697373696F6E206E6F7469636520C6
:1024E0007368616C6C20626520696E636C756465ED
:1024F0006420696E20616C6C0D0A636F706965738E
:10250000206F72207375627374616E7469616C20E0
:10251000706F7274696F6E73206F662074686520C7
:10252000536F6674776172652E20496620796F75E6
:10253000207769736820746F20757365206F7572DA
:1025400020416D617A6F6E0D0A4672656552544F77
:1025500053206E616D652C20706C6561736520641D
:102560006F20736F20696E2061206661697220752B
:10257000736520776179207468617420646F657376
:10258000206E6F7420636175736520636F6E66756E
:1025900073696F6E2E0D0A0D0A54484520534F463D
:1025A00054574152452049532050524F56494445B3
:1025B0004420224153204953222C20574954484F4C
:1025C00055542057415252414E5459204F462041B4
:1025D0004E59204B494E442C204558505245535398
:1025E000204F520D0A494D504C4945442C20494E2C
:1025F000434C5544494E4720425554204E4F542099
:102600004C494D4954454420544F20544845205787
:10261000415252414E54494553204F46204D455258
:102620004348414E544142494C4954592C20464953
:10263000544E4553530D0A464F52204120504152AB
:10264000544943554C415220505552504F53452008
:10265000414E44204E4F4E494E4652494E47454DFD
:10266000454E542E20494E204E4F204556454E543F
:10267000205348414C4C2054484520415554484F24
:102680005253204F520D0A434F5059524947485414
:1026900020484F4C44455253204245204C4941422A
:1026A0004C4520464F5220414E5920434C41494D04
:1026B0002C2044414D41474553204F52204F544810
:1026C0004552204C494142494C4954592C205748C5
:1026D00045544845520D0A494E20414E204143542D
:1026E000494F4E204F4620434F4E54524143542CA5
:1026F00020544F5254204F52204F5448455257496E
:1027000053452C2041524953494E472046524F4D84
:102710002C204F5554204F46204F5220494E0D0A31
:10272000434F4E4E454354494F4E2057495448203D
:1027300054484520534F465457415245204F52204C
:1027400054484520555345204F52204F5448455238
:10275000204445414C494E475320494E205448455A
:1027600020534F4654574152452E0D0A0D0A6874A6
:1027700074703A2F2F7777772E4672656552544FD3
:10278000532E6F72670D0A687474703A2F2F617739
:10279000732E616D617A6F6E2E636F6D2F66726539
:1027A0006572746F730D0A2A2A2A2A2A2A2A2A2A6B
:1027B0002A2A2A2A2A2A2A2A2A2A2A2A2A2A2A2A79
:1027C0002A2A2A2A2A2A2A2A2A2A2A2A2A2A2A2A69
:1027D0002A2A2A2A2A2A2A2A2A2A2A2A2A2A2A2A59
:1027E0002A2A2A2A2A2A2A2A2A2A2A2A2A2A2A2A49
:1027F0002A2A2A2A2A2A2A2A2A0D0A434F505952BB
:102800004947485428632920323031362053544DEB
:102810006963726F656C656374726F6E6963730D63
:102820000A0D0A5265646973747269627574696F1E
:102830006E20616E642075736520696E20736F75FC
:1028400072636520616E642062696E6172792066D0
:102850006F726D732C2077697468206F72207769AE
:1028600074686F7574206D6F6469666963617469FB
:102870006F6E2C0D0A617265207065726D697474DB
:1028800065642070726F7669646564207468617431
:102890002074686520666F6C6C6F77696E67206363
:1028A0006F6E646974696F6E7320617265206D6507
:1028B000743A0D0A2020312E2052656469737472B7
:1028C00069627574696F6E73206F6620736F7572BD
:1028D000636520636F6465206D7573742072657421
:1028E00061696E207468652061626F766520636F30
:1028F00070797269676874206E6F746963652C0DF6
:102900000A202020202074686973206C6973742069
:102910006F6620636F6E646974696F6E7320616E99
:10292000642074686520666F6C6C6F77696E6720D1
:10293000646973636C61696D65722E0D0A202032C3
:102940002E205265646973747269627574696F6E62
:102950007320696E2062696E61727920666F726D94
:10296000206D75737420726570726F647563652075
:102970007468652061626F766520636F7079726933
:10298000676874206E6F746963652C0D0A202020BF
:10299000202074686973206C697374206F662063EB
:1029A0006F6E646974696F6E7320616E6420746801
:1029B0006520666F6C6C6F77696E672064697363FE
:1029C0006C61696D657220696E2074686520646F42
:1029D00063756D656E746174696F6E0D0A202020D9
:1029E0002020616E642F6F72206F74686572206D95
:1029F0006174657269616C732070726F7669646569
:102A000064207769746820746865206469737472DF
:102A100069627574696F6E2E0D0A2020332E204E68
:102A200065697468657220746865206E616D6520E3
:102A30006F662053544D6963726F656C6563747281
:102A40006F6E696373206E6F7220746865206E61AB
:102A50006D6573206F662069747320636F6E747286
:102A6000696275746F72730D0A20202020206D61D9
:102A700079206265207573656420746F20656E64CB
:102A80006F727365206F722070726F6D6F74652046
:102A900070726F64756374732064657269766564BF
:102AA0002066726F6D207468697320736F66747727
:102AB0006172650D0A2020202020776974686F7587
:102AC00074207370656369666963207072696F72E0
:102AD000207772697474656E207065726D697373A6
:102AE000696F6E2E0D0A20200D0A54484953205359
:102AF0004F4654574152452049532050524F564952
:102B00004445442042592054484520434F5059528F
:102B10004947485420484F4C4445525320414E4465
:102B200020434F4E5452494255544F525320224154
:102B300053204953220D0A414E4420414E5920450D
:102B4000585052455353204F5220494D504C4945FF
:102B5000442057415252414E544945532C20494E2E
:102B6000434C5544494E472C20425554204E4F5417
:102B7000204C494D4954454420544F2C205448453D
:102B80000D0A494D504C4945442057415252414E3F
:102B900054494553204F46204D45524348414E54D9
:102BA0004142494C49545920414E44204649544ED3
:102BB00045535320464F52204120504152544943DF
:102BC000554C415220505552504F5345204152458B
:102BD0000D0A444953434C41494D45442E20494E2A
:102BE000204E4F204556454E54205348414C4C20D2
:102BF00054484520434F5059524947485420484F64
:102C00004C444552204F5220434F4E545249425556
:102C1000544F5253204245204C4941424C450D0AE5
:102C2000464F5220414E59204449524543542C208E
:102C3000494E4449524543542C20494E434944454A
:102C40004E54414C2C205350454349414C2C204577
:102C500058454D504C4152592C204F5220434F4E15
:102C600053455155454E5449414C0D0A44414D413F
:102C70004745532028494E434C5544494E472C2044
:102C8000425554204E4F54204C494D495445442000
:102C9000544F2C2050524F435552454D454E5420D1
:102CA0004F46205355425354495455544520474F9D
:102CB0004F4453204F520D0A5345525649434553F2
:102CC0003B204C4F5353204F46205553452C204416
:102CD0004154412C204F522050524F464954533BAF
:102CE000204F5220425553494E45535320494E548C
:102CF000455252555054494F4E2920484F5745563A
:102D000045520D0A43415553454420414E44204FFE
:102D10004E20414E59205448454F5259204F46208D
:102D20004C494142494C4954592C20574845544834
:102D3000455220494E20434F4E54524143542C207B
:102D4000535452494354204C494142494C495459E7
:102D50002C0D0A4F5220544F52542028494E434CB8
:102D60005544494E47204E45474C4947454E4345FB
:102D7000204F52204F54484552574953452920412E
:102D8000524953494E4720494E20414E5920574100
:102D900059204F5554204F462054484520555345FF
:102DA0000D0A4F46205448495320534F465457412B
:102DB00052452C204556454E20494620414456490F
:102DC000534544204F462054484520504F535349C3
:102DD00042494C495459204F4620535543482044BA
:102DE000414D4147452E0D0A2A2A2A2A2A2A2A2AF3
:102DF0002A2A2A2A2A2A2A2A2A2A2A2A2A2A2A2A33
:102E00002A2A2A2A2A2A2A2A2A2A2A2A2A2A2A2A22
:102E10002A2A2A2A2A2A2A2A2A2A2A2A2A2A2A2A12
:102E20002A2A2A2A2A2A2A2A2A2A2A2A2A2A2A2A02
:102E30002A2A2A2A2A2A2A2A2A2A0D0A4368696261
:102E4000694F53202D20436F707972696768742031
:102E500028432920323030362E2E3230313620476A
:102E6000696F76616E6E6920446920536972696F7B
:102E70000D0A0D0A4C6963656E73656420756E6496
:102E800065722074686520417061636865204C69D3
:102E900063656E73652C2056657273696F6E2032A0
:102EA0002E30202874686520224C6963656E736536
:102EB00022293B0D0A796F75206D6179206E6F7440
:102EC0002075736520746869732066696C65206578
:102ED000786365707420696E20636F6D706C6961D2
:102EE0006E6365207769746820746865204C696337
:102EF000656E73652E0D0A596F75206D6179206FAF
:102F0000627461696E206120636F7079206F662042
:102F1000746865204C6963656E73652061740D0A81
:102F20000D0A20202020687474703A2F2F7777774D
:102F30002E6170616368652E6F72672F6C696365BF
:102F40006E7365732F4C4943454E53452D322E30D9
:102F50000D0A0D0A556E6C65737320726571756983
:102F6000726564206279206170706C696361626C63
:102F700065206C6177206F722061677265656420DF
:102F8000746F20696E2077726974696E672C207384
:102F90006F6674776172650D0A6469737472696231
:102FA0007574656420756E64657220746865204C64
:102FB0006963656E736520697320646973747269EF
:102FC0006275746564206F6E20616E20224153200B
:102FD0004953222042415349532C0D0A5749544822
:102FE0004F55542057415252414E54494553204F5A
:102FF0005220434F4E444954494F4E53204F462090
:10300000414E59204B494E442C20656974686572C5
:103010002065787072657373206F7220696D706CB3
:103020006965642E0D0A53656520746865204C69D6
:1030300063656E736520666F7220746865207370B7
:10304000656369666963206C616E67756167652099
:10305000676F7665726E696E67207065726D6973F1
:1030600073696F6E7320616E640D0A6C696D6974AB
:103070006174696F6E7320756E6465722074686523
:10308000204C6963656E73652E0D0A2A2A2A2A2A46
:103090002A2A2A2A2A2A2A2A2A2A2A2A2A2A2A2A90
:1030A0002A2A2A2A2A2A2A2A2A2A2A2A2A2A2A2A80
:1030B0002A2A2A2A2A2A2A2A2A2A2A2A2A2A2A2A70
:1030C0002A2A2A2A2A2A2A2A2A2A2A2A2A2A2A2A60
:1030D0002A2A2A2A2A2A2A2A2A2A2A2A2A0D0A4374
:1030E0006F707972696768742028632920323031E3
:1030F000372D323031382C20426572746F6C642069
:1031000056616E2064656E2042657267682028767D
:10311000616E64656E626572676840626572746F45
:103120006C642E6F7267290D0A416C6C207269679E
:103130006874732072657365727665642E0D0A5427
:1031400068697320776F726B2068617320626565B0
:103150006E20646576656C6F70656420746F207393
:103160007570706F72742072657365617263682028
:1031700066756E6465642062790D0A2246756E6418
:1031800020666F7220536369656E74696669632097
:1031900052657365617263682C20466C616E64656C
:1031A0007273222028462E572E4F2E2D566C6161A9
:1031B0006E646572656E292E0D0A0D0A526564698A
:1031C00073747269627574696F6E20616E642075C4
:1031D000736520696E20736F7572636520616E641C
:1031E0002062696E61727920666F726D732C207730
:1031F000697468206F7220776974686F75740D0A3E
:103200006D6F64696669636174696F6E2C206172A9
:1032100065207065726D69747465642070726F7674
:103220006964656420746861742074686520666FE1
:103230006C6C6F77696E6720636F6E646974696F19
:103240006E7320617265206D65743A0D0A2020202E
:10325000202A205265646973747269627574696F9B
:103260006E73206F6620736F7572636520636F6481
:1032700065206D7573742072657461696E20746861
:10328000652061626F766520636F70797269676827
:10329000740D0A2020202020206E6F746963652C35
:1032A0002074686973206C697374206F6620636F83
:1032B0006E646974696F6E7320616E6420746865F2
:1032C00020666F6C6C6F77696E6720646973636CDE
:1032D00061696D65722E0D0A202020202A2052651A
:1032E000646973747269627574696F6E7320696E54
:1032F0002062696E61727920666F726D206D7573E0
:103300007420726570726F647563652074686520DF
:1033100061626F766520636F707972696768740D9A
:103320000A2020202020206E6F746963652C207491
:10333000686973206C697374206F6620636F6E64B4
:103340006974696F6E7320616E64207468652066AD
:103350006F6C6C6F77696E6720646973636C616909
:103360006D657220696E207468650D0A202020202A
:103370002020646F63756D656E746174696F6E2073
:10338000616E642F6F72206F74686572206D617456
:10339000657269616C732070726F76696465642010
:1033A00077697468207468652064697374726962EF
:1033B0007574696F6E2E0D0A202020202A204E651C
:1033C000697468657220746865206E616D65206F30
:1033D000662074686520617574686F72206E6F7204
:1033E000207468650D0A2020202020206E616D6504
:1033F00073206F662069747320636F6E74726962E4
:1034000075746F7273206D617920626520757365C4
:103410006420746F20656E646F727365206F722014
:1034200070726F6D6F74652070726F647563747302
:103430000D0A2020202020206465726976656420B2
:1034400066726F6D207468697320736F667477613C
:10345000726520776974686F75742073706563692D
:10346000666963207072696F72207772697474651F
:103470006E207065726D697373696F6E2E0D0A0D23
:103480000A5448495320534F465457415245204906
:10349000532050524F5649444544204259205448E5
:1034A0004520434F5059524947485420484F4C44B7
:1034B00045525320414E4420434F4E5452494255A9
:1034C000544F5253202241532049532220414E440D
:1034D0000D0A414E592045585052455353204F52E2
:1034E00020494D504C4945442057415252414E5479
:1034F0004945532C20494E434C5544494E472C20B6
:10350000425554204E4F54204C494D495445442077
:10351000544F2C2054484520494D504C4945440DAA
:103520000A57415252414E54494553204F46204D6F
:1035300045524348414E544142494C495459204117
:103540004E44204649544E45535320464F52204145
:1035500020504152544943554C41522050555250ED
:103560004F5345204152450D0A444953434C41496C
:103570004D45442E20494E204E4F204556454E5431
:10358000205348414C4C2054484520415554484F05
:1035900052204F52204449535452494255544F529D
:1035A000204245204C4941424C4520464F52204143
:1035B0004E590D0A4449524543542C20494E444922
:1035C000524543542C20494E434944454E54414CA6
:1035D0002C205350454349414C2C204558454D50D3
:1035E0004C4152592C204F5220434F4E5345515578
:1035F000454E5449414C2044414D414745530D0AE5
:1036000028494E434C5544494E472C20425554209E
:103610004E4F54204C494D4954454420544F2C2082
:1036200050524F435552454D454E54204F4620531E
:1036300055425354495455544520474F4F44532005
:103640004F522053455256494345533B0D0A4C4F68
:103650005353204F46205553452C20444154412C70
:10366000204F522050524F464954533B204F522036
:10367000425553494E45535320494E544552525595
:103680005054494F4E2920484F57455645522043E4
:10369000415553454420414E440D0A4F4E20414E62
:1036A00059205448454F5259204F46204C494142D9
:1036B000494C4954592C20574845544845522049B3
:1036C0004E20434F4E54524143542C2053545249A0
:1036D0004354204C494142494C4954592C204F52A3
:1036E00020544F52540D0A28494E434C5544494EDC
:1036F00047204E45474C4947454E4345204F5220B1
:103700004F5448455257495345292041524953493E
:103710004E4720494E20414E5920574159204F5580
:1037200054204F462054484520555345204F4620AD
:10373000544849530D0A534F4654574152452C2083
:103740004556454E2049462041445649534544205C
:103750004F462054484520504F53534942494C4905
:103760005459204F4620535543482044414D41472A
:10377000452E0D0A2A2A2A2A2A2A2A2A2A2A2A2AC7
:103780002A2A2A2A2A2A2A2A2A2A2A2A2A2A2A2A99
:103790002A2A2A2A2A2A2A2A2A2A2A2A2A2A2A2A89
:1037A0002A2A2A2A2A2A2A2A2A2A2A2A2A2A2A2A79
:1037B0002A2A2A2A2A2A2A2A2A2A2A2A2A2A2A2A69
:1037C0002A2A2A2A2A2A0D0A000D0A0053B94AB9C0
:1037D000002908BF00281CBF4FF0FF314FF0FF3019
:1037E00000F06EB9ADF1080C6DE904CE00F006F8FA
:1037F000DDF804E0DDE9022304B070472DE9F0476D
:10380000089E0D4604468E46002B40F083808A4277
:10381000174647D9B2FA82F34BB1C3F1200105FA3A
:1038200003FE20FA01F19F4041EA0E0E9C404FEA50
:103830001748BEFBF8FC1FFA87F908FB1CE20CFBDB
:1038400009F0210C41EA024290420AD9BA180CF15F
:10385000FF3180F01881904240F21581ACF1020CEA
:103860003A44121AB2FBF8F008FB102200FB09F1EF
:10387000A4B244EA0244A14209D93C1900F1FF3242
:1038800080F00381A14240F2008102383C44641A76
:10389000002140EA0C401EB10022DC40C6E9004293
:1038A000BDE8F08702B9FFDEB2FA82F3002B4FD1F8
:1038B0008D1A01214FEA124E1FFA82F8B5FBFEFC69
:1038C0000EFB1C5508FB0CF0220C42EA0545A842F1
:1038D00007D97D190CF1FF3202D2A84200F2E9802B
:1038E00094462D1AB5FBFEF00EFB105508FB00F8B0
:1038F000A4B244EA0544A04507D93C1900F1FF32BF
:1039000002D2A04500F2D9801046A4EB080440EA98
:103910000C40C0E78B4208D9002E00F0B180002196
:10392000C6E900050846BDE8F087B3FA83F100292F
:103930004BD1AB4202D3824200F2B980841A65EBCC
:10394000030301209E46002EAAD0C6E9004EA7E739
:103950009F40C3F12002D1404FEA174EB1FBFEF069
:103960001FFA87F80EFB101124FA02F29D4000FBAB
:1039700008FC2A43150C45EA0145AC4504FA03F45A
:1039800009D97D1900F1FF3180F08F80AC4540F2FC
:103990008C8002383D44A5EB0C05B5FBFEF10EFB17
:1039A000115C01FB08F995B245EA0C45A94507D918
:1039B0007D1901F1FF3274D2A94572D902393D4413
:1039C000A5EB090541EA004178E7C1F120078B40EA
:1039D00022FA07FC4CEA030C25FA07F44FEA1C4EC6
:1039E000B4FBFEF91FFA8CF80EFB194420FA07F31A
:1039F00009FB08FA8D401D432B0C43EA0444A24501
:103A000002FA01F200FA01F309D91CEB040409F1EE
:103A1000FF3048D2A24546D9A9F102096444A4EB7B
:103A20000A04B4FBFEF00EFB104400FB08FAADB232
:103A300045EA0444A24508D91CEB040400F1FF3513
:103A40002DD2A2452BD90238644440EA0940A0FB9C
:103A50000289A4EB0A044C45C6464D4619D316D03C
:103A60005EB1B3EB0E0264EB050404FA07F722FA29
:103A700001F31F43CC40C6E900740021BDE8F08784
:103A8000314630460CE78C46EBE61046FFE64345F0
:103A9000E6D2B8EB020E69EB0C050138E0E72846E8
:103AA000D3E711468CE78146B9E7084673E7084635
:103AB00049E7ACF1020C3D4413E702383C4424E7EB
:103AC000704700BF844641EA000313F0030349D165
:103AD000403A23D30B6803604B6843608B68836074
:103AE000CB68C3600B6903614B6943618B69836178
:103AF000CB69C3610B6A03624B6A43628B6A836260
:103B0000CB6AC3620B6B03634B6B43638B6B836347
:103B1000CB6BC36340304031403ADBD230320BD301
:103B20000B6803604B6843608B688360CB68C3603D
:103B300010301031103AF3D20C3205D351F8043B57
:103B400040F8043B043AF9D2043208D0D2071CBF33
:103B500011F8013B00F8013B01D30B88038060465C
:103B6000704700BF082A13D38B07B1D010F00303AE
:103B7000AED0C3F10403D21ADB071CBF11F8013B1E
:103B800000F8013BA4D331F8023B20F8023B9FE749
:103B9000043AD9D3013A11F8013B00F8013BF9D2BC
:103BA0000B7803704B7843708B7883706046704756
:103BB000F0B4860746D0541E002A3CD0CAB2034651
:103BC00002E014F1FF3436D303F8012B9D07F8D13E
:103BD000032C29D9CDB245EA05250F2C45EA054528
:103BE00033D9A4F11006360903F1200707EB0617B5
:103BF00003F1100242E9045542E902551032BA427B
:103C0000F8D1721C14F00C0F03EB021204F00F0633
:103C100013D0331F23F003030433134442F8045B2F
:103C20009342FBD106F003042CB1C9B21C4403F843
:103C3000011B9C42FBD1F0BC704734461346002C5C
:103C4000F3D1F8E714460346C2E71A462646E0E7F2
:103C5000C9B200F00303002935D07BB10378002BF3
:103C600057D0994252D0431C05E013F8012B002A8B
:103C70004DD08A424AD09A071846F6D170B441EA2C
:103C80000126046846EA064601E050F8044F86EA39
:103C90000405A5F10132A4F1013322EA050223EA69
:103CA0000403134313F0803FEFD0037843B19942EC
:103CB00002D106E08B4204D010F8013F002BF9D16D
:103CC000184670BC70474BB10378FBB1431C02E04F
:103CD00002780133D2B199071846F9D10268A2F1EE
:103CE000013323EA020313F0803F08D150F8042F78
:103CF000A2F1013323EA020313F0803FF6D00378E8
:103D000023B110F8013F002BFBD1704770471046DC
:103D100070471846704700BF80EA010C1CF0030F83
:103D200037D110F0030C20F0030021F0030150F80C
:103D3000042B08BF51F8043B0ED08CF0030C6FF03D
:103D40007F434FEACC0C23FA0CFC51F8043B42EAC7
:103D50000C0243EA0C0300BFA2F1013C9A4201BFEE
:103D60002CEA020C1CF0803F50F8042B51F8043B65
:103D7000F2D04FEA02604FEA1222012828BFB0EBCE
:103D8000036F08BF1B0AF4D003F0FF03000EC01A34
:103D9000704710F0030F0AD010F8012B11F8013B07
:103DA000012A28BF9A42F4D0A2EB030070474DF8D5
:103DB000045D50F8042B01F0030521F0030151F8D4
:103DC000043B022D26D04DD822F07F45B5EB132FB2
:103DD000A2F1013C2CEA020C0DD11CF0803C08BF82
:103DE00051F8043B0AD185EA0205B5EB036F0CD10B
:103DF00050F8042BE8E74FEA13235BE03CF07F4CDC
:103E000054D10B784FEA126554E04FEA126503F083
:103E1000FF034FE04FEA0245A2F1013C4FEA15458E
:103E20002CEA020CB5EB134F18D11CF0803C08BFF4
:103E300051F8043B07D185EA0205B5EB034F09D1E0
:103E400050F8042BE6E75FEA0C4C2FD10B884FEAC1
:103E500012452FE04FEA03434FEA12454FEA13435E
:103E600028E000BF02F0FF05B5EB136FA2F1013CA3
:103E70002CEA020C0DD11CF0803C08BF51F8043B29
:103E80000AD185EA0205B5EB032F0AD150F8042BBD
:103E9000E8E74FEA13630DE012F0FF0F06D051F888
:103EA000043B4FEA122523F07F4303E04FF000006C
:103EB00020BC704705F0FF0203F0FF00012828BF77
:103EC000904204BF2D0A1B0AF4D0A2EB000020BCD4
:103ED000704700BF20F0030110F00300C0F10000A4
:103EE00051F8043B00F1040C4FEACC0C6FF00002D7
:103EF0001CBF22FA0CF213434FF0010C4CEA0C2CBD
:103F00004CEA0C4CA3EB0C0222EA030212EACC129C
:103F100004BF51F8043B0430F4D0C2F1000102EABE
:103F20000102B2FA82F2C2F11F0200EBD200704726
:103F300030B40478DCB10D789DB1AC420FD00A46A4
:103F400001E0A3420BD012F8013F002BF9D110F889
:103F5000014F002CF0D11378002B08BF002030BC9B
:103F6000704710F8014F0A46002CE5D1F3E72046D0
:103F700030BC704770B40478A4B105460E784EB1D9
:103F8000A6420AD00A4601E0A34206D012F8013F39
:103F9000002BF9D1281A70BC704715F8014F002C7E
:103FA000EDD1F7E72046F6E7F0B500F10B04234624
:103FB0000D46B1FBF2F102FB115707F13006392E25
:103FC000C8BF07F13706954203F8016DF0D2421ED3
:103FD000E11A13F8015B9C4202F8015FF9D1084431
:103FE000F0BD0000134B5A689969023A914209D317
:103FF0001A6A998A01320A441A6200229A829A60E5
:104000001A617047B1F5803FDA6904D31A611A6A00
:1040100001321A6270471868090A815459680132DE
:104020008A4228BF00229869196888549A8A013206
:104030009A82704710130020054B9A681968885CB3
:10404000596801328A429A6024BF00229A60704700
:104050001013002070B5154C0546A38ACBB1A26899
:1040600023699A4215D1FFF7E7FF0646FFF7E4FF01
:1040700040EA0623A06862689BB203449342A360AF
:1040800024BF9B1AA360A38A013BA382236A013346
:10409000236223692268D5542369626801339342FD
:1040A000236124BF0023236170BD00BF10130020D3
:1040B00070B506460C460025A54204D3044B996909
:1040C0002144996170BD705DFFF7C4FF0135F3E7CE
:1040D000101300200023C008834201D00133FBE706
:1040E00070470000EFF305830F2B06D9084A9B5C4D
:1040F000084A12789A4200D9FEE7074B074A1B6824
:10410000126803F4E063934200D9FEE7704700BFF2
:10411000F0E300E0401300200CED00E04413002029
:10412000184B1B6818481A460260EFF30980BFF36A
:104130006F8F134B1A6820E9F00F144C2468EFF3CB
:10414000118120E9120010602DE908404FF0BF00F6
:1041500080F3118807F098F8BDE8084019680868EE
:1041600012C881F3118809490C60B0E8F00F80F3A0
:104170000988BFF36F8F7047AFF30080AFF3008003
:10418000A81100204C13002020ED00E0581300205F
:10419000044A136803B9FEE7013B136080F31188FA
:1041A000704700BF58130020EFF311804FF0BF039A
:1041B00083F31188BFF36F8FBFF34F8F024A1368E9
:1041C00001331360704700BF58130020044A13687E
:1041D00003B9FEE7013B13600BB983F31188704705
:1041E00058130020064B1A683AB94FF0BF0181F30B
:1041F0001188BFF36F8FBFF34F8F01321A60704782
:104200005813002006480068006880F3088862B6EA
:1042100061B6BFF34F8FBFF36F8F00DF00BF0000A9
:1042200008ED00E0000000000000000000000000B9
:104230000B4B1968086830C8B0E8F00F80F30988A4
:10424000BFF36F8F4FF0000080F311884EF00D0E1A
:10425000704700BFAFF30080AFF30080AFF3008082
:10426000A811002008B5044B1B68013300D0FEE7FD
:10427000FFF7B8FFFEE700BF58130020064A136897
:104280001968064B19B94FF0FF321A60704712686F
:10429000D268D2685268F8E7AC110020F815002007
:1042A000F8B50C46FFF79EFF2368104A591C944648
:1042B000166812D00E4902680F684568BA4201D0EC
:1042C000B54210D9771BBB420BD99B1B2B442360F3
:1042D0000B680360DCF8003043600020FFF776FFD6
:1042E000F8BD002323600120F8E700BF4816002036
:1042F000FC150020094B0A4A1B681268D06A58B99D
:10430000084A1268012A08D8012B06D8064B1868FB
:10431000064B1B68C01A70470020704774130020BA
:10432000A8110020B8110020F81500204816002020
:10433000024A136801331360704700BF6C130020FA
:1043400008B5FFF74FFF0022024B1A6072B671B634
:1043500008BD00BF14160020F8B510B9FFF7F0FF34
:10436000FEE701231F4C477C266803FA07F5354218
:1043700035D11D4B43F8371003EBC7035A60730662
:1043800008BF1A4A016802BF536943F00103536131
:1043900043681A6822F00F021A600E22077CBA40A6
:1043A0004A6000221A6083681E4214D1C021837CB7
:1043B00003F1604202F5614282F80013012203F02A
:1043C0001F015B099B0003F160438A4003F56143D1
:1043D000C3F880211A60002035432560F8BD1846D7
:1043E000FCE700BF44100020E80F0020001002404E
:1043F0000369D0E901128A6051605968814208BF9F
:104400005A60002202611A68013A1A6018687047FF
:1044100030B50C68631C0AD103695A684A60916020
:104420008B605960036808610133036030BD00F19F
:104430000802134652681568A542FAD9EDE74368A9
:104440009A684B608A609A68516099600368086155
:104450000133036070470000F8B5044600B9FEE779
:10446000FFF740FEFFF7A0FE022294F864300646F4
:10447000012B84F86420DDB221661FD1A36A03B149
:10448000FEE7134B1B68F3B9271D3846FFF7B0FF53
:10449000104A1420E36A11689D400D4339461560A7
:1044A0000D4A00FB0320FFF7CAFF0C4BE26A1B68B2
:1044B000DB6A9A4282BF0122094B1A603046FFF73D
:1044C00067FE0120F8BD074804F11801EBE700BFC3
:1044D0006C13002074130020B8110020A8110020D4
:1044E0004C1600200016002010B50446EFF311838F
:1044F00033B1006818B1FFF7AFFF0023236010BD90
:10450000FFF71EFFFEE770B5044610B9FFF718FF6E
:10451000FEE7EFF311831BB34668C3680E434660A2
:104520000BB13146984725684DB96368DBB104F19A
:1045300008006FF00201BDE87040FFF7D5BF2B699E
:104540001E4206D06B69A9693343E8686B61FFF7C7
:10455000DAFF2A6963682D6823EA02036360E3E7F0
:10456000FFF7EEFEFEE770BD034607B5406848B1B1
:10457000826D01904AB10020506501A85A60FFF792
:10458000B3FF012003B05DF804FB1A60F5E710B536
:10459000044610B9FFF7D4FEFEE7EFF3118313B919
:1045A000FFF7CEFEFEE76FF001012046FFF7DCFFCC
:1045B0000028F8D110BD08B510B9FFF7C1FEFEE71D
:1045C000EFF3118323B1BDE808400021FFF7CCBF12
:1045D000FFF7B6FEFEE70000F8B51B4B1B4F1C684B
:1045E000054638680E460430FFF702FF3B4640B9E7
:1045F00039681748CF6A01210268B94022EA0102EE
:1046000002606A1C07D136B1196812480431BDE84E
:10461000F840FFF714BF1A686419546007D30E4AB4
:1046200010681968BDE8F8400431FFF7F1BE0B4A85
:10463000106819680431FFF7EBFE094B1A68A242B3
:1046400088BF1C60F8BD00BF48160020A8110020DC
:104650007413002020160020B4110020AC1100209B
:10466000F815002070B5234C06460D461046FFF79E
:10467000B9FD236893F86430022B20D00121226811
:10468000136E23EA06031366236883F86410B0B13F
:10469000FFF7A2FF184B194A19681160184A1268EF
:1046A0002AB11A6822F47F021A601A681A604FF061
:1046B0008052144B1A60BFF34F8FBFF36F8FFFF719
:1046C00085FDFFF78FFD236800201B6E2B6023689C
:1046D00093F86430022B04BF23681A6E4FF0000277
:1046E00008BF1866236808BF012083F86420FFF71D
:1046F0006DFD70BDA811002020ED00E04C130020DE
:104700005813002004ED00E013B504460846EFF30B
:1047100011832BB1EFF305832BB1FFF711FEFEE7F9
:10472000FFF70EFEFEE781B134B1FFF75BFD0A4BE8
:104730001968FFF74BFD2160024601A94FF0FF30D9
:10474000FFF790FF20B904B120604FF0FF3000E088
:10475000019802B010BD00BFA811002070B5054639
:10476000084600293AD0EFF311832BB1EFF305830C
:104770002BB1FFF7E5FDFEE7FFF7E2FDFEE7194E7F
:10478000FFF730FD3468FFF721FD2B68E4B932688C
:104790005365DCB932680021916503B19C656B6893
:1047A0002C6003B96C6001460020FFF7ADFF431C8D
:1047B00009D16CB933685B6D04B93468A26D4BB133
:1047C0009A654AB1536570BD2246E1E72246E2E7A9
:1047D0002346F0E76A60F4E72B60F4E74FF0FF3020
:1047E000F1E700BFA811002038B5C368DC6804B940
:1047F000FEE704F118052846FFF7FAFD124B1B6887
:10480000F3B9251D2846FFF7F3FD01230F49E26A9E
:1048100008689340034314200B6029460C4B00FBAF
:104820000230FFF70CFE0B4BE26A1B68DB6A9A4210
:1048300085BF0120084B00201860FFF71FFD38BD21
:1048400029460648EDE700BF6C13002074130020D2
:10485000B8110020A81100204C16002000160020DE
:104860002DE9F84F384B1B68002B66D1374B1D687C
:1048700001351D607DB9364B1A68126802B1FEE73A
:10488000344A1968106818601160334A136801339C
:104890001360FFF7F3FC314E00243368304FAB4216
:1048A00010D9304B1B68DA6A14235343FB58022B90
:1048B00028BF01242C4B1B68002B0CBF2046012075
:1048C000BDE8F88FDFF888A0DFF8A490DAF80030B0
:1048D0001B681BB94FF0FF333360E2E7DAF80030B2
:1048E000DB68D3F80CB0DBF80420954201D23260CB
:1048F000D7E70BF104084046FFF77AFDDBF82820E4
:104900001AB10BF11800FFF773FD0122DBF82C0040
:10491000D9F8003082401A43C9F8002014224146D9
:1049200002FB0070FFF78BFD0E4BDBF82C201968A3
:10493000CB6A9A4228BF0124C8E70C4A00241368B6
:1049400001331360B6E700BF6C1300204816002047
:10495000AC110020B4110020FC150020F815002037
:10496000B8110020A81100204C160020641300206C
:104970007413002008B5FFF735FCFFF771FF38B15D
:10498000054B1A68054B1A604FF08052044B1A60B1
:10499000BDE80840FFF71ABC20ED00E04C130020F2
:1049A00004ED00E033482DE9F843036803B9FEE75E
:1049B000FFF718FC0368013B0360046824B1002082
:1049C000FFF704FCBDE8F8832B4B1B68002BF6D0E7
:1049D0002A4D2B4EDFF8C8801FE0EB680127DC680A
:1049E00004F1040904F11800FFF702FD4846FFF73F
:1049F000FFFC1420E26A316807FA02F30B4300FB64
:104A0000028049463360FFF71AFD1E4BE26A1B68BD
:104A1000DB6A9A4201D31C4B1F602B68002BDCD150
:104A20000CB1FFF72BFC194D2C6844B10127164E31
:104A3000FFF716FF00B13760013CF9D12C60124B33
:104A40001B68002BBBD0124B124A19681160124A26
:104A500012682AB11A6822F47F021A601A681A6072
:104A60004FF080520D4B1A60BFF34F8FBFF36F8F23
:104A70000120A5E76C1300205C1300200016002025
:104A800074130020A81100204C160020641300208D
:104A900020ED00E04C1300205813002004ED00E04E
:104AA000B81100202DE9F74FD1F800A004460D46BB
:104AB0001746BAF1000F40D04FF0000A4B6801F1E1
:104AC00008085B68DFF89C9043454B6004BFCB68E7
:104AD0004B604B68DB6801936A68526890456A6076
:104AE00004BFD8F804206A606A68D2F80CB0BBF141
:104AF000000F26D1D9F80060002306F13400606071
:104B0000F06A26602061306BE061706CA060F06C30
:104B1000A3616061D9F80000864214D1237300209C
:104B2000336B1E5CA52E1BD0019B80085B45208447
:104B30000AF1010A04F12404CED1504603B0BDE8C5
:104B4000F08F5E46D8E7032F2773E8D1FFF7F0FB1D
:104B5000B06A10B14FF002032373FFF723FFDEE7C3
:104B60000130DEE7A811002008B578B9114B124AD0
:104B700019681160114A1268AAB94FF08052104B9F
:104B80001A60BFF34F8FBFF36F8F0BE00D4B1968A7
:104B900001B1FEE7FFF7CCFBFFF71EFDFFF702FFB9
:104BA0000028E3D008BD1A6822F47F021A601A6850
:104BB0001A60E2E720ED00E04C13002058130020BB
:104BC00004ED00E06C130020F8B50446FFF70AFB83
:104BD000444A454D13684548013313602B68002B48
:104BE00075D12C601268012A3FD102464FF0FF3781
:104BF0004FF0140C1E4602F10801C2E90117C2E988
:104C000003110CFB03F10133052B465002F1140292
:104C1000F1D1374A02F10803C2E90137C2E903338F
:104C2000344B166003F10801C3E90117C3E903110E
:104C300031491E6001F1080C0E60C1E901C7C1E9EC
:104C400003CC2E4901F1080C0E60C1E901C7C1E98E
:104C500003CC2B4901F1080C0E60C1E901C7C1E981
:104C600003CC28490A60284A1360284A2849136857
:104C70000E680133136063640123E26A9340334397
:104C80000B601423211D03FB0200FFF7D8FBFFF785
:104C90009DFA204B1B68CBB12B68DA6AE36A9A4213
:104CA00014D21D4B1D4A196811601D4A12682AB1A1
:104CB0001A6822F47F021A601A681A604FF0805254
:104CC000184B1A60BFF34F8FBFF36F8FF8BD114BB6
:104CD0001B68002BC9D12B68DA6AE36A9A4298BF35
:104CE0002C60C2E75C130020A8110020B81100203E
:104CF0007C130020901300200016002034160020A2
:104D000020160020AC110020B411002070130020E8
:104D1000741300201416002020ED00E04C13002036
:104D20005813002004ED00E02DE9F0410446FFF7A0
:104D300059FA4FF0010890F845501B4F6DB200F141
:104D40002406002D17DCFF234FF0010884F84530BE
:104D5000FFF73CFAFFF746FA94F84450124F6DB251
:104D600004F11006002D12DCFF2384F84430BDE866
:104D7000F041FFF72BBA636A002BE4D03046FFF70F
:104D800033FD08B1C7F80080013D6DB2D9E7236952
:104D9000002BE9D03046FFF727FD08B1C7F80080A7
:104DA000013D6DB2DEE700BF4C1600202DE9F04F4B
:104DB00085B00446019100B9FEE7056C05B1FEE738
:104DC0002846DFF860828F4FDFF85492ACE0019BF9
:104DD0001BB9002D00F05281FEE728B9D8F8003049
:104DE0000293894B1B680393FFF7F0F9FFF7A0FAD2
:104DF000FFF7F8F994F84430FF2B04BF002384F840
:104E0000443094F84530FF2B04BF002384F845302C
:104E1000FFF7DCF901A902A8FFF742FA002840F0E9
:104E2000C580FFF7DFF9A36B002B75D1FFF7CEF933
:104E30002368764E002B48D1FFF7D4F96568002D22
:104E400040D03368E96ADB6A994280F0A7804FF06E
:104E5000140AAB696E4A002BA8BF33680AFB012114
:104E6000A8BFDB6A9346A4BFC3F10503AB616B69BE
:104E70008B4240F08F80291D08460091FFF7B8FA59
:104E8000644B009968B9E86A0AFB00FA5BF80A20EB
:104E90003AB94FF0010C1A680CFA00F022EA00024D
:104EA0001A603268D3F800C0D06AE862012505FABA
:104EB00000F242EA0C021A60142303FB00B0FFF771
:104EC000BEFA0120FFF782F905463168DDF804A03B
:104ED000183104F12400FFF79BFA01215046FFF737
:104EE0007BFB2046FFF720FFFFF75CFDD8B94A4B5C
:104EF0003A681A60494B1B682BB13B6823F47F0367
:104F00003B603B683B604FF08053C9F80030BFF313
:104F10004F8FBFF36F8F06E0FFF758F92046FFF77A
:104F200003FFFFF73FFD0120FFF75CF9A36B002BA8
:104F30003FF44DAF013BA363236843B9334B1A6879
:104F40001AB119680A6D01320A651B68636023692A
:104F5000CBB104F11000FFF747FCA0B1294B2E4A5A
:104F6000196811602D4A12682AB11A6822F47F026A
:104F70001A601A681A604FF08052294B1A60BFF30A
:104F80004F8FBFF36F8FFFF721F90125284605B03A
:104F9000BDE8F08F3368DB6AEB6292E73268EB6C56
:104FA000D06A83422CBF002001208BE72046FFF708
:104FB000BBFEFFF7F7FCFFF715F9A36B13B1FFF783
:104FC00005F9B0E7FFF702F9002DDFD0FFF70AF986
:104FD000636A1BB1236B1B68C3F105036468002C73
:104FE0004CD0216D01B9FEE7E26C934238BF134605
:104FF000E26A934242D0012940D1044909688C42B7
:1050000012D1FEE720ED00E048160020A811002094
:10501000B8110020741300204C13002058130020F6
:1050200004ED00E0FC1500201427A169154D0029AE
:1050300007FB0252E362A4BFC3F10503A3616369E6
:1050400093421BD104F104084046FFF7D1F90E4EFC
:10505000E26A40B95743EB592BB9012133689140BB
:1050600023EA0103336001231420316893400B438A
:1050700000FB025041463360FFF7E1F9FFF7A6F865
:10508000002583E7B81100207413002010B50F4BE2
:105090001A461B688342FBD354681119884201BF2A
:1050A0004168104609195160446801198B4207D1C3
:1050B000074909688B421FBF59681B68091941607D
:1050C0009042036018BF106010BD00BF181600208A
:1050D000B011002008B5E8B10F4A50F8043C12683E
:1050E000134200D1FEE750F8081C01B1FEE723EAA5
:1050F000020340F8043CFFF71BF9084A50F8043C4F
:10510000116808380B441360FFF7C0FFBDE8084082
:10511000FFF748BC08BD00BF78130020A41300208F
:1051200010B590F8653004463BB9006BFFF7D2FF2D
:105130002046BDE81040FFF7CDBF012BF9D0022B70
:1051400000D0FEE710BD0000F8B52B4DFFF74AF880
:105150002C68261D3046FFF74BF960B91420E76A2A
:10516000264B78431B5833B901222549BA400B68B6
:1051700023EA02030B60A36A1BB104F11800FFF7D6
:1051800037F9204A1368013313602B689C4213D10E
:1051900031461D48FFF753F91C4A13680133136069
:1051A000FFF714F81A4B1B682BB32B689C4222D1D3
:1051B000184B1B6853B1FEE7174A20461368013BA2
:1051C0001360FFF7ADFFFFF759F8E9E7134B144AF7
:1051D00019681160134A12682AB11A6822F47F0212
:1051E0001A601A681A604FF080520F4B1A60BFF3B2
:1051F0004F8FBFF36F8FF8BDA8110020B8110020AA
:105200007413002070130020341600206013002057
:10521000141600206C1300205C13002020ED00E029
:105220004C1300205813002004ED00E02DE9F0415C
:105230000446FFF77DF83549354D0B68F3B900207A
:10524000344B354AA3F10807D21A5E0718BF07335B
:10525000324E3A4418BF23F0070322F007023360AE
:105260007060C2E90000D01AC3E900202C4B0A602C
:1052700018602C4B18604FF000432B602F682742BA
:105280003FD1002C38D004F1080360071CBF23F085
:1052900007030833002B34D0224A166890469E42FA
:1052A0002FD31E4A15686868984201D22C6874B9D9
:1052B0000968A94225D0296814681160C21A102A09
:1052C00004F108040AD9E818410703D0FEE72A468A
:1052D0002546E8E742606B60FFF7D8FE00231049DF
:1052E0006A680868B61A864247EA0207C8F800608A
:1052F00038BF0E606F602B60FFF754FB630702D06E
:10530000FEE70024F8E72046BDE8F081B011002058
:10531000781300205016002000500020181600209E
:10532000F4150020A413002010B50446CB6800201B
:105330006FF07E019B68984720460021236A9847BA
:10534000012010BDF8B5CD68164614682A780746C6
:105350006B68AAB11C4402212046AB689847A8B9E3
:105360000221AB686008984760B14FF4404138466D
:105370003B6A98476B680120F3602B78337402E036
:105380009C4201D20020F8BDE41AE4E74FF400414A
:10539000EDE708B50021036A9847012008BD10B564
:1053A0001446036A4FF4407198472368012003F5BF
:1053B0008C3303F5A073E3600023237410BD10B594
:1053C0001446036A0021984723680120E360002304
:1053D000237410BD2DE9F0414FF0140C04460D4626
:1053E00041690020C6B20CFB06F801EB0802136904
:1053F000B3B1E769F740FB071DD42B7AA3B16B7AF1
:10540000B34218D1237EFF2B17D126766E726169C5
:105410002A4641440B6920461B6898470646C0B996
:1054200000263046BDE8F0812F685368BB4202D8A1
:105430009368BB42E6D20130D4E7B342E5D01422F0
:1054400002FB03110B695B68002BDED020469847F6
:10545000DBE70FCD0FC42B682360E2E710B50C4AE1
:105460001379834212D9946824FA00F3DB070DD430
:1054700001238340234393600C23584313681A1875
:1054800004D01950034B93601023536010BD00BF2C
:105490002809002048C80008036801209B680B60A9
:1054A0007047036821EA02000A4042EA00421A619A
:1054B0000120704738B50446FEF776FE23685D6824
:1054C0001C68FEF765FE8900C1F12002A1F12003EE
:1054D00005FA02F224FA01F125FA03F31143194304
:1054E000024B01F00F01585C38BD00BF28C700080F
:1054F0000123032AF0B5006803FA01F129D1016103
:10550000164B08269F5C00231A461D461C4611F0C8
:10551000800F4FEA04144FEA02124FEA05154FEAD2
:1055200003130CBF44F00F043A4311F4004F0CBFB7
:1055300045F00F053B43013E4FEA4101E7D1416889
:1055400029400B4343600368234013430360012059
:10555000F0BD042A08BF4161D2E700BF38C7000888
:10556000044B1A79824283BF0C221B6802FB003075
:10557000014870472809002078C8000810B5FFF7D7
:10558000EFFF83681B6913B1BDE81040184710BDD9
:1055900010B50446000AFFF7E3FF83680A461B685C
:1055A000E1B2BDE81040184713B50446000AFFF702
:1055B000D7FF00230193836801A9DB68984701980E
:1055C000E4B2E04000F0010002B010BD10B50446A6
:1055D000000AFFF7C5FFE4B201FA04F20121836873
:1055E000A1409B68BDE810401847000008B50121A4
:1055F00040F20310FFF7EAFF4FF47A70FFF7B4FAB6
:105600000022014B1A7008BD5513002007B58DF814
:1056100007100DF107000121FEF74AFD002003B03D
:105620005DF804FB10B51446084691B2FEF740FD44
:10563000204610BD037C70B58B4247D0244B0174CB
:105640001C68002C42D0002940D0FEF7CBFD02227E
:1056500094F8643084F8642001229342DDB222661B
:1056600030D1261D3046FEF7C3FE1420194AE36AE6
:1056700011689D400D431560174A314600FB032019
:10568000FEF7DDFEA36A03B1FEE7FEF7F7FD134B5D
:10569000E26A1B68DB6A9A4214D9114B114A1968F5
:1056A0001160114A12682AB11A6822F47F021A6046
:1056B0001A681A604FF080520C4B1A60BFF34F8F7C
:1056C000BFF36F8FBDE87040FEF780BD70BD00BFB7
:1056D000A411002074130020B8110020A81100208C
:1056E00020ED00E04C1300205813002004ED00E0F2
:1056F00007B50D4E002534685CB92DB94FF0FF3267
:10570000284601A9FEF7AEFF42F21070FFF72CFA0F
:10571000F0E7237C2BB123681BB1606898472074A5
:105720000543A468E8E700BFA011002090B1421C27
:1057300012D0831C12D0012812D0022812D00328C4
:1057400012D0042812D00A4B0A4A05280CBF18466A
:105750001046704708487047084870470848704727
:10576000084870470848704708487047084870471D
:1057700084B80008E2B800089DB80008A0B8000886
:10578000A8B80008B7B80008D4B80008C5B8000821
:1057900075B8000810B50446C36F0021D889FFF71B
:1057A00015FF4FF4C870FEF795FCE36FD889FFF73B
:1057B000FBFE002814BF0420002010BD10B50446D5
:1057C000C36F0121D889FFF701FF4FF4C870FEF7BE
:1057D00081FCE36FD889FFF7E7FE00280CBF0220A9
:1057E000002010BD10B50446C36F00219889FFF753
:1057F000EDFE4FF4C870FEF76DFCE36F9889FFF77C
:10580000D3FE002814BF0320002010BD38B5C36F9D
:10581000012105469889FFF7D9FE4FF4C870FEF7BD
:1058200059FC0624EB6F9889FFF7BEFE08B10020F3
:1058300038BD0120013CFFF797F914F0FF04F1D1C6
:105840000120F5E708B5EFF311832BB1EFF30582E3
:105850002AB1FEF775FDFEE7FEF772FDFEE70E4B7F
:1058600019681A60A1B10D4B0D4A196811600D4AF3
:1058700012682AB11A6822F47F021A601A681A6044
:105880004FF08052084B1A60BFF34F8FBFF36F8FFA
:10589000BDE80840FEF79ABC4C16002020ED00E061
:1058A0004C1300205813002004ED00E02DE9F041D6
:1058B000C56F044615B9FEF743FDFEE703785A1E8F
:1058C000012A04D9052B02D0FEF73AFDFEE7FEF7C8
:1058D00089FC94F80080A66FB8F1010F65603AD199
:1058E0008A239A22C4E91A326C4B9C4233D16C4F02
:1058F00022463B696B4943F400133B610023206F50
:105900003B61FEF729FD10B1FEF71AFDFEE72246C6
:105910006549606FFEF720FD10B1FEF711FDFEE74F
:10592000C0224FF00041FB6943F40013FB615F4B61
:1059300083F81F23C3F88011196083F82023C3F86C
:105940008481C3F80480A36E43F44053A366E36EDE
:1059500043F44053E366236F67685A6806F1100307
:105960009360626F79685268481E93604FF40043F9
:105970004FF4106233600023336072604C4A9042EF
:1059800002D9FEF7DDFCFEE7A06F3A7AD0F804C03A
:105990002CF03F0C4FEA0C4C4FEA1C4CC0F804C0F2
:1059A000D0F804C04CF0240CC0F804C0DFF808C1E3
:1059B000614539D8012A02D0FEF7C2FCFEE73D4A14
:1059C0004900B2FBF1F301FB132111B1FEF7B8FC62
:1059D000FEE79BB2032B02D8FEF7B2FCFEE72522BE
:1059E000B3F5805F02624DD2C3613A780368022A40
:1059F0009BB24AD0032A4ED0012A02D123F00A03D7
:105A00009BB20360336843F00103336002232370C9
:105A1000FFF718FF297CA889FFF7BAFD297CE889E0
:105A2000BDE8F041FFF7B4BDDFF890C06145DBDCB5
:105A3000931E012B02D9FEF783FCFEE7022A1D4BC1
:105A400010D101EB4101B3FBF1F201FB123313B1B1
:105A5000FEF776FCFEE792B213430B2243F40043B9
:105A60000262C1E74FF0190C0CFB01F1B3FBF1F23C
:105A700001FB123111B1FEF763FCFEE74FF48043E6
:105A800092B2E9E7FEF75CFCFEE723F008039BB265
:105A900043F00203B5E743F00A03B2E734090020FC
:105AA00000100240EF650008A365000800E100E077
:105AB000FF083D0000512502A0860100801A060063
:105AC0000C4B10B51B7803B999B10B4C22788A4264
:105AD0000FD0FEF769FB094B1A6C39B142F4007222
:105AE0001A642170BDE81040FEF752BB22F4007228
:105AF000F6E710BD0008002011090020005C0040FE
:105B00000229134670B553D0032904D001292A482D
:105B100018BF002070BD022A03D8284800EBC2003D
:105B2000F8E7032A46D126490A780AB12548F1E761
:105B300084200C460870164608464B70930803F103
:105B40000053A3F618031B78C2F34005AD002B41A8
:105B500003F00F03092B02F1020294BF30335733D5
:105B6000302AA370E67004F10204E7D12D2381F8F6
:105B7000336081F8323000241421134D15F8013FB1
:105B800080F835401A099F2B03F00F0394BF303281
:105B90005732092B94BF30335733013980F8342002
:105BA00080F8363080F8374000F10400E6D1BDE7D8
:105BB0000648AFE70020ADE758CA000808CB000848
:105BC0003112002020CB000893CB00080CCA00083B
:105BD000014B1868FEF7DCBA6813002008B5FEF721
:105BE000E3FA014B186008BD6813002008B5804730
:105BF000BDE80840FFF7A8BA024AD36843F0800323
:105C0000D360704700480040044B5A6818B142F016
:105C100080625A60704722F08062FAE7001002400A
:105C200070B5344B027E032053F822400C43FFF73B
:105C300097FC8368E2B29B684FF0FF31984784F489
:105C40008071C1F300214FF48470FFF7BFFCC4F3EF
:105C50004020FFF7D9FF14F4806118BF642114F4C9
:105C6000006418BFC824244B0C441C60234B1C68E0
:105C700004B9FEE7224D2B689C423AD0FEF7B2FAF7
:105C80006269204B9A4230D1A36A1F4A93422CD0BA
:105C90005BBB261D3046FEF7ABFB01231B49E26AC6
:105CA00008689340034314200B60194B314600FBF6
:105CB0000230FEF7C4FB2B68E26ADB6A9A4214D317
:105CC000144B154A19681160144A12682AB11A68EF
:105CD00022F47F021A601A681A604FF08052104B4B
:105CE0001A60BFF34F8FBFF36F8FBDE87040FEF7B0
:105CF0006DBA70BD10C70008981100209C110020DB
:105D0000A811002020160020001600207413002087
:105D1000B811002020ED00E04C13002058130020A3
:105D200004ED00E020B100214FF48270FFF74EBC7B
:105D30000121F9E7BFF34F8F0549064BCA6802F40A
:105D4000E0621343CB60BFF34F8F00BFFDE700BF9E
:105D500000ED00E00400FA05F0B5074D2B780D2B9F
:105D600008D80C245C43054F01333E19C6E90112E3
:105D700038512B70F0BD00BF100900205C080020D6
:105D800070B50378E3B12D2B27D1012425460444B7
:105D900000201BE0A2F13003DBB2092B02F0DF028E
:105DA00000FB01F698BF58B2A2F1410388BF4FF043
:105DB000FF30192B07D8373AD3B2994250B204D8E2
:105DC0004FF0FF3008E0431C06D0304414F8012B9C
:105DD000002ADFD105B1404270BD0024D6E7D0E9EA
:105DE00003239A421FBF4268D25C0133036114BF90
:105DF00010466FF001007047D0E902239A421FBF9E
:105E00004268D154C36801331ABFC36000206FF0E9
:105E1000010070472DE9F04F0B46804614464FF0C5
:105E2000000987B01F4617F8011B002900F05281B6
:105E3000252907D0D8F8003040469B68984709F1DB
:105E4000010912E15A784FF0000B2D2A08BF9F1C60
:105E500097F800A00CBF01230023BAF1300F18BF40
:105E60004FF0200A019308BF013717F8012BA2F168
:105E70003001C9B2092904D92A2A06D154F8041BD1
:105E8000C9B20A2303FB0B1BEFE72E2A4FF00001D8
:105E90000FD117F8012BA2F13000C0B2092804D9A4
:105EA0002A2A06D154F8040BC0B20A2303FB0101CD
:105EB000EFE702F0DF004C2815D1387808B1024630
:105EC0000137642A6FD000F2E380582A00F0D980AD
:105ED00021D84F2A00F0B58000F2D580442A62D044
:105EE000492A60D010E0A2F14100642AC0B256D025
:105EF0001ED8552A00F096800AD8492A4FD04F2A3A
:105F000000F09B80442A4AD026468DF80C200BE0F6
:105F1000582A00F09480632AF6D126464FF0200AD2
:105F200056F8042B8DF80C2003AD0DF10D004CE05C
:105F3000692A34D0A2F16F05EEB2092EE4D8092DFA
:105F4000E2D801A353F825F03B600008095F000880
:105F5000095F0008095F0008715F0008095F000819
:105F600025600008095F0008095F00083F6000081D
:105F700026465A4B56F8045B47F6FF72002D08BFC1
:105F80001D46002908BF11462846294402780AB157
:105F9000884202D14FF0200A17E00130F6E71928B5
:105FA00004F104063CD8264656F8041B0029BCBF61
:105FB0002D228DF80C204FF00A02BABF49420DF194
:105FC0000D0003A8FDF7F0FF03AD441B0199ABEBF7
:105FD000040323EAE372002949D1002BC2F1000B2C
:105FE0001CDD29782D290DD1BAF1300F0AD1D8F84E
:105FF000003040469B6801929847019A013C09F1A4
:1060000001090135D8F80030514640469B6801929D
:1060100098471BF1010B019AF4D1914423461BE0F0
:106020002168C3E70A222646192856F8041B02D81D
:10603000264656F8041B03A8C4E70822F3E71022FB
:10604000F1E70822F4E7D8F800204046926815F8F6
:10605000011B01939047019B013BF4D5002CA8BF85
:10606000A1445D462DB93446D9443B46DAE6934611
:10607000D4E7D8F80030514640469B689847013D28
:10608000F0E71022D4E7552A7FF43EAF0A22CFE78B
:10609000692A88D0A2F16F00C5B2092D3FF634AF4E
:1060A00009283FF631AF01A353F820F04360000800
:1060B000095F0008095F0008095F0008715F0008B8
:1060C000095F00088D600008095F0008095F00088B
:1060D00083600008484607B0BDE8F08FEAB80008C2
:1060E000F8B500EB8103DE68336803F00303022B8D
:1060F00006D0032B22D0012B23D1FEF721F9FEE796
:106100000022334B4FEA011C1C6D736904F180447B
:1061100004F5C04404EB0115D3B100236B60338A4E
:10612000D0F88470013323F001033B44B3F5007FC2
:10613000C0F8843008D9FEF703F9FEE74FF4C062D7
:10614000DFE74FF40072DCE74CF8047042F0200205
:10615000B3692BB3748A3E2C04F1FF3316D943F094
:106160001F031C4E01335B1146EA83239BB2EB6095
:10617000D0F88430013424F001041C44B4F5007FCD
:10618000C0F8844009D9FEF7DBF8FEE743F00103CD
:1061900001335B0203F47C43E9E7AB6042F4005255
:1061A00048F2800447F6700342EA010020F4784088
:1061B000890020F0F00001F1804101F5B841204351
:1061C000086008681340434023430B60F8BD00BFDC
:1061D000005C00400080FFFF022370B58022002594
:1061E000154C29462370154BE56784F86450C4E9C3
:1061F0000455C4E90655C4E90855A560A5621D65A6
:106200005D64DA6462682046D268AA420CBF4FF42B
:106210001C424FF41E421A644023C4F88430084BD9
:10622000E360FFF75DFF63681B6823B129462046E2
:10623000BDE87040184770BD540F0020005C00405E
:10624000DCC700080D4B10B51B6D040103F1804342
:1062500003F5C04303EB0010E358114403F100536E
:1062600003F540535B004260002AA1EB020000DC12
:1062700010BD0088023A43F8040BF5E7005C0040CB
:106280002DE9F84F8E4D6C6C660504D56FF4806374
:106290006B64FFF7A1FF200511D52B6C894843F0F3
:1062A00008032B646FF400636B64037880F880301C
:1062B0000523037043681B680BB104219847E10470
:1062C00014D57F4B9A6C12040CD41A6C7D4822F0C2
:1062D00008021A6490F88030037043681B680BB1A1
:1062E000052198476FF48052754B5A64A30508D571
:1062F00074484368DB6803B198476FF40072704BD1
:106300005A64704E704D14F400411AD16F4B1A68E4
:106310001960A2B16E4B6F4A196811606E4A12681B
:106320002AB11A6822F47F021A601A681A604FF0C4
:1063300080526A4B1A60BFF34F8FBFF36F8FBDE877
:10634000F88F04F00F04A70007F1804707F5B8475E
:10635000D7F800A004F1020906EB89031AF0800FB8
:10636000D3F8048025D03A68D8F814302A4042F493
:1063700000423A60D9685A6818680A44801A5A601C
:106380002CD0B8F81020824228BF024698680144F9
:10639000C3E902122046FFF755FF3B6823F4F043A0
:1063A00023F0400383F0300343F4004343F08003C1
:1063B0003B601AF4004F6AD03B681AF4006F03EA9E
:1063C000050343F080033B60E1B216D006EB890978
:1063D000D9F804305B683046984758E0012303FA47
:1063E00004F2338923EA02033381D8F80830002B02
:1063F000DFD0214630469847DBE7D8F81820304BED
:10640000D2F808C01B6DE14603F1804303F5C04399
:1064100003EB04108368D0F80CE003F10053CEF3D3
:106420000900CEF3480E03F540534FEA8E0A0AEBFB
:10643000430A5B00534509F102092BD16FF00109B2
:1064400009FB0E09B9F1000F02D01B680CF81E30D1
:1064500093680344936053680344536013681B1AA2
:1064600013609389013B9BB29381B8F8122082425A
:1064700000D8C3B9012303FA04F2738906EB84043C
:1064800023EA02037381E368DB68002BA3D10C4B82
:106490005C6C38E753F804BB09F802BC4FEA1B2BCD
:1064A00009F801BCC6E73B6823F4904323F070036E
:1064B00083F4405343F4004343F080033B60E6E73A
:1064C000005C0040540F00200F07FFFF4C16002017
:1064D00020ED00E04C1300205813002004ED00E0F4
:1064E0000A4B0B4A196811600A4A12682AB11A68E5
:1064F00022F47F021A601A681A604FF08052064B2D
:106500001A60BFF34F8FBFF36F8F704720ED00E02D
:106510004C1300205813002004ED00E008B50B07D1
:1065200002D5FDF70DFFFEE708BD38B50B070446A1
:1065300002D5FDF705FFFEE7836E59680A6822F071
:106540000F020A601A7C19680E2303FA02F24A60ED
:10655000426E5568296821F00F0129601168127C8C
:1065600093404B6043681B682BB10422027098472C
:106570002378042B01D102232370FFF72FFBEFF3C5
:1065800011832BB1A06830B9BDE83840FFF720BBBC
:10659000FDF7D6FEFEE70021FDF75EFF0023A360B6
:1065A000F2E708B50B0702D5FDF7CAFEFEE7D0E912
:1065B0001D315868026822F00F020260187C1A68C8
:1065C0000E23834053604B6843F400734B6008BD57
:1065D00010B50446EFF3118333B1006818B1FDF72D
:1065E0003BFF0023236010BDFDF7AAFEFEE711F07C
:1065F000080138B5044602D0FDF7A2FEFEE7026F9F
:10660000836F5568286820F00F002860157C10689B
:106610000E22AA4042605A6822F480525A601A68D8
:1066200022F480621A601A6842F400721A60FFF75E
:10663000D5FA04F16000FFF7CBFFBDE83840FFF763
:10664000C7BA0000F8B5354B9A6F516901F45F4441
:10665000E44354615C6F88B26668356825F00F05C5
:106660003560257C26680E2404FA05F575601D6FDB
:106670006F683E6826F00F063E602E682D7CAC40A9
:106680007460D3F880400134C3F8804011F4807402
:1066900018BF012487059C6042BF9C6844F0020437
:1066A0009C6046050BD555689C6825F400755560BF
:1066B000156844F0040445F4007515609C600505F8
:1066C00042BF9A6842F008029A60440442BF9A6846
:1066D00042F020029A60C00442BF9A6842F0100261
:1066E0009A6009049A680CD542F040029A60FFF75C
:1066F00075FA6FF001010A48FFF76AFFFFF768FAC1
:1067000001E0002AF3D10021064B1A6819601AB182
:10671000BDE8F840FFF7E4BEF8BD00BF3409002033
:10672000940900204C16002070B54E4DAC6FD5F882
:106730008020A3696669013216F4807F2946C5F876
:10674000802001D11D2A1CD9636923F48073636101
:10675000636823F40073636001238B60FFF73EFAE4
:106760006FF001014048FFF733FFFFF731FA0021D6
:106770003E4B1A681960002A72D0BDE87040FFF7DE
:10678000AFBE3B4A46EA034323F07F43934230D0F7
:106790000AD8073A93421DD0013293422ED016F008
:1067A0000A0F18BFA369E2E7324A93423CD0023293
:1067B0009342F4D12B6F5B68596800293FD0B5F83C
:1067C000643043F00103A5F86430236843F4A06308
:1067D0002360CCE7B5F86420130A08D003F0060361
:1067E00002F00102134343F0F0032361D7E7226173
:1067F000D5E7B5F86430C3F34703F6E7636823F4DD
:10680000007363602B6F5B681A6842F001021A60C4
:10681000626842F4805262605B68012BBFD82368D3
:1068200023F480632360BAE7636823F40073636032
:106830006B6F5A68136843F001031360AFE7636836
:1068400023F400736360236843F400732360FFF74D
:10685000C5F905F16000FFF7BBFEFFF7B9F99EE748
:1068600070BD00BF34090020940900204C160020A0
:10687000080003008200070070B510B9FDF760FD45
:10688000FEE70125154A467C136805FA06F1194210
:1068900002D1FDF755FDFEE723EA0103816813608D
:1068A00013EA01040BD1827C02F01F018D405009D4
:1068B0000B49203041F82050114481F80043002159
:1068C000084A5B0642F8361002EBC602516001BF6F
:1068D000054A536923F00103536170BD4410002041
:1068E00000E100E0E80F00200010024008B50D4B69
:1068F0000D4A19681268090E01F00E010A4206D00D
:106900000A065A60094A136B0BB1506B9847002175
:10691000074B1A6819601AB1BDE80840FFF7E0BDDF
:1069200008BD00BF0000024080000240E80F0020C8
:106930004C16002008B50D4B0D4A19681268090D58
:1069400001F00E010A4206D00A055A60094A936A0C
:106950000BB1D06A98470021074B1A6819601AB129
:10696000BDE80840FFF7BCBD08BD00BF0000024005
:106970006C000240E80F00204C16002008B50D4BBB
:106980000D4A19681268090C01F00E010A4206D07E
:106990000A045A60094A136A0BB1506A98470021E9
:1069A000074B1A6819601AB1BDE80840FFF798BD97
:1069B00008BD00BF0000024058000240E80F002060
:1069C0004C16002008B50D4B0D4A19681268090BCA
:1069D00001F00E010A4206D00A035A60094A93697F
:1069E0000BB1D06998470021074B1A6819601AB19A
:1069F000BDE80840FFF774BD08BD00BF00000240BD
:106A000044000240E80F00204C16002008B50D4B52
:106A10000D4A19681268090A01F00E010A4206D0EF
:106A20000A025A60094A13690BB15069984700215C
:106A3000074B1A6819601AB1BDE80840FFF750BD4E
:106A400008BD00BF0000024030000240E80F0020F7
:106A50004C16002008B50D4B0D4A1968126809093B
:106A600001F00E010A4206D00A015A60094A9368F1
:106A70000BB1D06898470021074B1A6819601AB10A
:106A8000BDE80840FFF72CBD08BD00BF0000024074
:106A90001C000240E80F00204C16002008B50C4BEB
:106AA0000C4A1968126801F00E010A4205D00A4A20
:106AB000596013680BB1506898470021074B1A685A
:106AC00019601AB1BDE80840FFF70ABD08BD00BF54
:106AD0000000024008000240E80F00204C16002091
:106AE00070B50C461146EFF311821AB128B9FDF7C3
:106AF00027FCFEE7FDF724FCFEE7072CF7D801256D
:106B00000689A540AAB2354002D0FDF719FCFEE780
:106B10001643068100EB8400C2685069128AC0E9FE
:106B200000359A4228BF1A468160C2602046A40000
:106B300004F1804404F5B844FFF784FB236823F490
:106B4000F04323F0400383F0300343F4004343F069
:106B50008003236070BD000010B590F864300446D7
:106B6000062B3FD8DFE803F01E1E1E13041E210073
:106B7000052380F86430FFF731F8002320461A46D9
:106B80001946FFF7ADFFBDE81040FFF721B8C36815
:106B90009B695B682BB9036F03B19847002384F8A6
:106BA000643010BDFDF7CCFBFEE748F280000F49D2
:106BB0000B6823F4F04323F0400383F010020243F8
:106BC0000A600B6823F4904323F0700383F480532E
:106BD00003430B6063681B6813B106212046984786
:106BE0000623DCE7FDF7ACFBFEE700BF005C0040DE
:106BF000F8B5EFF311841CB128B9FDF7A1FBFEE74E
:106C0000FDF79EFBFEE70729F7D80124468904FA21
:106C100001F5AFB2354002D0FDF792FBFEE73E43EF
:106C2000468100EB8100C668B069C0E9003582602A
:106C3000C3B1728A013B1344B3FBF2F39BB28900E8
:106C400001F1804101F5B84183810B6823F4904341
:106C500023F0700383F4405343F4004343F0800374
:106C60000B60F8BD2346EAE710B590F8643004469F
:106C7000062B56D8DFE803F03504213535303800CF
:106C800090F87B1090F87A20C36E42EA012293427A
:106C900013D2C268128AB3FBF2F102FB113161B95F
:106CA000FEF79CFF20460B460A46FFF719FFFEF74A
:106CB0008FFF022384F8643010BD032384F864300E
:106CC000FEF78CFF002320461A461946FFF790FF77
:106CD000BDE81040FEF77CBF036F03B19847002367
:106CE000E8E7FDF72DFBFEE748F280000E490B6850
:106CF00023F4F04323F0400383F0100202430A60C0
:106D00000B6823F4904323F0700383F48053034310
:106D10000B6063681B6813B1062120469847062361
:106D2000C8E7FDF70DFBFEE7005C0040002370B5EF
:106D3000044680F86430BB4B00F174021B6D03F114
:106D4000804303F5C04303EB01139B6803F1005339
:106D500003F540535B0003F110011846043300684B
:106D60008B4222F8020BF8D163689B681BBB94F836
:106D7000743013F0600544D048F28000A9490B68D4
:106D800023F4F04323F0400383F0100202430A602F
:106D90000B6823F4904323F0700383F48053034380
:106DA0000B6063681B6813B10621204698470623D1
:106DB00084F8643070BD204698470028D7D094F8F6
:106DC0007B2094F87A3043EA0223E26E9A4288BF2D
:106DD000E36694F97430E16E002B80F25A81002949
:106DE00000F04B81012384F86430FEF7F7FED4E90C
:106DF0001A2300212046FFF773FEBDE87040FEF71E
:106E0000E7BE94F8752003F07F0343EA022340F2C3
:106E10000232934200F0108121D8B3F5807F4CD02C
:106E20000DD8012B43D0022B00F0B180002BA3D151
:106E300004F17C02A2660222E2662367BFE7B3F593
:106E4000817F00F0BE80B3F5407F95D194F8763015
:106E5000012B91D1B4F87C3043F0020336E0B3F556
:106E6000006F3DD01BD8B3F5A06F35D0B3F5C06F20
:106E700082D194F87920616894F878304E6843EABA
:106E80000223204694F8762094F87710B047002823
:106E90003FF472AF4368A3660368E3661AE0B3F594
:106EA000106F22D040F6024293427FF465AF5E4BF2
:106EB000A3660223E3660023BFE794F87630012B34
:106EC0007FF45AAFB4F87C3023F00203C4E91A55BA
:106ED000A4F87C30256772E7C4E91A55534BACE738
:106EE00004F17F03A3660123D7E794F87F2094F889
:106EF00076309A4247D02378042B37D1FEF76EFEC6
:106F0000EFF3118313B9FDF71BFAFEE72378042B87
:106F100002D0FDF715FAFEE7A368012203F0011382
:106F2000A3600023C4E90433C4E90633C4E9083389
:106F3000A362402348F28000C4F88430930003F138
:106F4000804303F5B843196801320143082A1960E8
:106F50001860F3D1FEF73CFE0023032184F87F3054
:106F6000636821701B680BB12046984794F876300F
:106F70004BB184F87F300423237063681B6813B11E
:106F80000221204698470023C4E91A3355E794F8B4
:106F9000783003F00F0213F0800F224B53F82230A9
:106FA00008D013F030033FF4E7AE102B14BF204B92
:106FB000204B7DE713F440533FF4DEAEB3F5805F22
:106FC000F4E794F87630002B7FF4D6AE94F878206E
:106FD00012F00F03D7D09B0003F1804312F0800F13
:106FE00003F5B8431A680DD002F03002302ACAD037
:106FF0001A6822F4F04222F0400282F0200242F4A9
:1070000000420BE002F44052B2F5405FBBD01A6878
:1070100022F4F04222F0400242F4204242F0800288
:107020001A60B0E7005C004080CB0008B570000833
:107030000CC7000884C8000894F87630002B7FF451
:107040009BAE94F8782012F00F039CD09B0003F1C4
:10705000804312F0800F03F5B8431A6806D022F47B
:10706000F04222F0400282F01002C8E722F490427F
:1070700022F0700282F48052C1E7032384F8643066
:10708000FEF7ACFD0B460A4600212046FFF7B0FD97
:10709000B3E639B1042384F86430FEF79FFDD4E9E8
:1070A0001A23F1E7052384F86430FEF797FD0B46B9
:1070B0000A469EE690F87630074A80F87E3043F024
:1070C000800310B5D364436804461B680BB10121EB
:1070D00098470323237010BD005C0040032310B5C4
:1070E0000370436E08305C68436EE26043F08003D7
:1070F00061602360036E0B4A5B68DA60826E5960E0
:107100001A6022684FF0FF3142F0010222601A68D3
:1071100042F001021A60FDF7F7FABDE81040FEF7F1
:1071200091BB00BFD8C700087047000090F87420DA
:10713000034602F06002202A14D190F87520002046
:10714000212A02D81F2A03D87047222A07D0704765
:10715000054A9A660722DA66186701207047C3E974
:107160001A00F9E7002070475008002038B5D0F821
:10717000981403460C682278042A1ED1027D022A44
:107180001BD101200A79658900FA02F22A4210D146
:10719000EFF3118272B1D3E90A25AA4201D15B6AE9
:1071A0003BB920464FF4807349790432FFF720FD44
:1071B000002038BDFDF7C4F8FEE70120F9E7406B79
:1071C000FFF7D4BF113110B550F82140002C3DD04D
:1071D000FEF704FD04216018FDF795F9EFF3118324
:1071E00063B1D4F898241368527903EB8203DB6807
:1071F0009B695A682AB9FDF7A3F8FEE7FDF7A0F8E6
:10720000FEE7636B043B9A42F5D8D4E90A318B421E
:1072100004D1616A11B1FDF793F8FEE71A60626A62
:1072200001326262626B1344226BA36293420AD200
:1072300004F11800FDF7BFF92046FFF797FFBDE8FE
:107240001040FEF7C5BCE36BA362F1E710BD000080
:1072500008B5EFF311832BB1EFF305822AB1FDF7E7
:107260006FF8FEE7FDF76CF8FEE7044B19681A604B
:1072700019B1BDE80840FFF733B908BD4C1600202E
:1072800008B510B9FDF75CF8FEE74FF0FF31BDE837
:107290000840C068FDF78ABD2DE9F74F04460D464A
:1072A0001F46164612B9FDF74BF8FEE7D0F81CA0B2
:1072B000FCF798FFFCF716FF1F4B4FF000099846AC
:1072C0001A6807F1FF3BBA180192A368E3B1A368FB
:1072D000013BA36063695A1C626115F8012B1A70A7
:1072E000D4E904329A4224BFE3686361BAF1000F23
:1072F00001D02046D047FEF7A5FA013E09F1010969
:1073000016D0FCF76FFFE0E71BF1030F06D93946F3
:107310002046FDF723FA0028D7D007E0FCF7E2FE6D
:10732000D8F80010019B591A8F42F1D2FEF78AFA61
:10733000484603B0BDE8F08F481600203C30FFF708
:10734000ABBF4FF0FF333C30FFF7A6BF70B504462C
:107350000D461646FCF746FFA368A3B1A368013BA0
:10736000A36063695A1C62611D70D4E904329A42B9
:1073700024BFE3686361E3690BB120469847FEF7D9
:1073800061FA002007E031462046FDF7E7F90028C2
:10739000E2DAFEF757FA70BD3C30FFF7D7BF4FF087
:1073A000FF323C30FFF7D2BF2DE9F74F04460D46C0
:1073B0001F46164612B9FCF7C3FFFEE7D0F81CA023
:1073C000FCF710FFFCF78EFE1F4B4FF000099846AC
:1073D0001A6807F1FF3BBA180192A368E3B1A368EA
:1073E000013BA360A3695A1CA2611B7805F8013B0D
:1073F0002369A2699A4224BFE368A361BAF1000F2E
:1074000001D02046D047FEF71DFA013E09F10109DF
:1074100016D0FCF7E7FEE0E71BF1030F06D939466B
:107420002046FDF79BF90028D7D007E0FCF75AFE6D
:10743000D8F80010019B591A8F42F1D2FEF702FAD8
:10744000484603B0BDE8F08F481600201830FFF71B
:10745000ABBF4FF0FF331830FFF7A6BF38B5044677
:107460000D46FCF7BFFEA3689BB1A368A269013B70
:10747000A360531CA36115782269934224BFE3687B
:10748000A361E3690BB120469847FEF7DBF9284674
:1074900007E029462046FDF761F90028E3DAFEF708
:1074A000D1F938BD1830FFF7D9BF4FF0FF31183090
:1074B000FFF7D4BF10B5EFF311832BB1EFF30583C2
:1074C0002BB1FCF73DFFFEE7FCF73AFFFEE719B1F1
:1074D000C369043B8B4202D2FCF732FFFEE7C3686C
:1074E00013B9FCF72DFFFEE703691960C268013A82
:1074F000C260C269134482690361934224BF436A34
:10750000036100238362036B13B1BDE81040184789
:1075100010BD38B504460D46EFF311832BB1EFF3E0
:1075200005836BB1FCF70CFFFEE7FCF709FFFEE7F4
:10753000237AABB929462046FDF710F900280EDB67
:10754000E368002BF4D0E36813B9FCF7F9FEFEE71B
:10755000002023691A1DA262E2691344E36238BD68
:107560006FF00100FBE738B504460D461046FCF706
:1075700039FEA36A3BB901462046FFF7CAFF10B1A6
:10758000FEF760F938BDA36A1D70A36AE26A013391
:107590009342A36204D3E16920460439FFF78AFFCE
:1075A000FEF750F90020EDE770B51646D0F89824A4
:1075B000044693680D4613B101211068984732467E
:1075C000294604F15000BDE87040FFF7CCBFD0F869
:1075D000982438B5936804460D4613B1012110680C
:1075E0009847294604F150004FF0FF32BDE838407B
:1075F000FFF7B9BF08B50346EFF311825AB1D0E9DE
:107600000420824201D1DB681BB950F8043B0B60B7
:1076100008BD0020FCE7FCF793FEFEE713B5284CFD
:10762000FEF7DCFAD4F8981408680378042B38D1F4
:10763000237D022B35D101230A799340028913421D
:107640002FD1EFF3118313B3D4E91832934230D121
:10765000E26D002A2DD0A26F5AB3043AD21A28D074
:107660001A60E26D1748013AE265E26E01A913441F
:10767000A26E2366934224BF636F23660023A36731
:10768000FFF7B8FF024628B9FCF75AFEFEE7FCF701
:1076900057FEFEE7D4F89804019B01790068FFF7D4
:1076A0001FFA094A136801331360FEF791FA02B01A
:1076B00010BD8B68002BF4D000219847F1E700BF84
:1076C000440A0020940A0020C812002013B5446B1D
:1076D000D4F898341A681178042916D1217D02292A
:1076E00013D11979012312898B4013420DD101A9BD
:1076F00004F15000FFF77EFF024630B1D4F8980441
:10770000019B01790068FFF7EBF902B010BD00EBB7
:1077100081032DE9F3419C6A05460E46002C35D0C5
:10772000FEF75CFA05EB86070821201DFCF7EBFE4F
:10773000FB6804F150085B691B68D3B1EFF3118358
:1077400043B1D4E918239A4207D1E26D2AB1FCF77C
:10775000F7FDFEE7FCF7F4FDFEE7E26D0132E265BE
:10776000E26E1344A26E6366934212D24046FCF767
:1077700022FF404601A9FFF73DFF024660B1019B91
:1077800031462846FFF7ACF9FEF722FA02B0BDE811
:10779000F081636F6366E9E7FB685A69126832B18A
:1077A0001B8A013B134002D105F17402E8E7D4F8CB
:1077B00098249368002BE7D0012110689847E3E7ED
:1077C00010B5EFF311832BB1EFF305832BB1FCF769
:1077D000B7FDFEE7FCF7B4FDFEE7C36813B9FCF79D
:1077E000AFFDFEE7C368C269013BC3604369134450
:1077F00082694361934224BF436A436100238362E9
:10780000036B13B1BDE81040184710BD38B50446EE
:107810000D46EFF311832BB1EFF305836BB1FCF74A
:107820008FFDFEE7FCF78CFDFEE7237AABB9294616
:107830002046FCF793FF00280EDBE368002BF4D012
:10784000E36813B9FCF77CFDFEE700206269131DB5
:107850001268A3621344E36238BD6FF00100FBE7D6
:1078600038B504460846FCF7BDFCA36A4BB901468F
:107870002046FFF7CBFF054618B1FDF7E3FF28468A
:1078800038BDA36AE26A13F8015B9342A362F4D3A2
:107890002046FFF795FFF0E71830FFF7E1BF4FF004
:1078A000FF311830FFF7DCBF10B500B9FEE7FCF779
:1078B00099FCD0E90F3463430268D1181B1B1344B1
:1078C0004160C3600021FF2382604FF0FF3281637B
:1078D00080F8443080F8453000F11803C0E90623F1
:1078E0004361036200F12C030161C0E90A32C0E97F
:1078F0000C334162FCF76AFC012010BD032210B575
:107900000424114B1A705A6E5168104ACA60DA6E1C
:107910004C600A609A6E5268D060186F546040F0F4
:1079200080001060086840F001000860116803F1F1
:10793000080041F0010111604FF0FF31FCF7E4FE57
:10794000BDE81040FDF77EBFE00E0020481000208B
:1079500008B5FCF747FC084B1A78022A02D0FCF75E
:10796000EFFCFEE75B6819895A6801238B4053617D
:10797000BDE80840FDF766BFE00E002008B5FCF743
:1079800031FC084B1A78022A02D0FCF7D9FCFEE73A
:107990005B6819895A6801238B401361BDE8084070
:1079A000FDF750BFE00E002037B5044618465307D8
:1079B00002D0FCF7C5FCFEE701F1320318B954F818
:1079C000235095421ED0114344F8232009BA019157
:1079D000FFF7BEFFFCF706FC0B4B1A78022A02D019
:1079E000FCF7AEFCFEE75B681B6813B1FCF7A8FC74
:1079F000FEE701A8FFF782FFFFF7C0FF3220FCF788
:107A000069FB012003B030BDE00E00204FF6FF728D
:107A1000036810B51B89044693420BD00021184619
:107A2000FDF7D4FD2368DB690BB1002098470023E4
:107A3000237110BD012320220221FFF7B5FFF1E7DA
:107A400070B5D0F8D050D0F8DC2025F0E0538D068A
:107A500005F0E0551D4322F480220B0748BF42F495
:107A60008022002305210446FFF79EFF2A46034695
:107A700002212046BDE87040FFF796BF2DE9F04196
:107A800006460F4690460525002457F82520B8F1F4
:107A9000000F11D1002D0CBF23460023294630468C
:107AA00003F00103FFF780FF013D44EA0004E4B264
:107AB000EBD22046BDE8F0810123EFE7036810B563
:107AC0001B68044613B9FCF73BFCFEE7D8684FF08F
:107AD000FF31FDF76BF923681C680CB1586810B9C9
