:020000040800F2
:102000000004002061210008C9AD0008C9AD000826
:10201000C9AD0008C9AD0008C9AD0008C9AD0008C8
:10202000C9AD0008C9AD0008C9AD0008E146000807
:10203000C9AD0008C9AD0008A1520008455A000802
:10204000C9AD0008C9AD0008C9AD0008C9AD000898
:10205000C9AD0008C9AD0008C9AD0008C9AD000888
:10206000C9AD0008C9AD0008C9AD0008353E00087B
:10207000713E0008ED3E0008693F0008E53F00089A
:1020800061400008DD400008C9AD0008C9AD000886
:10209000E9610008C9AD0008C9AD0008C9AD000874
:1020A000C9AD0008C9AD0008C9AD0008C9AD000838
:1020B000C9AD0008C9AD0008C9AD000871700008BD
:1020C000BD710008C9AD0008C9AD0008C9AD000860
:1020D000C9AD0008C9AD0008C9AD0008BD7D000844
:1020E000C9AD0008C9AD0008C9AD0008C9AD0008F8
:1020F000C9AD0008C9AD0008C9AD0008C9AD0008E8
:10210000C9AD0008C9AD0008C9AD0008C9AD0008D7
:10211000C9AD0008C9AD0008C9AD0008C9AD0008C7
:10212000C9AD0008C9AD0008C9AD0008C9AD0008B7
:10213000C9AD0008C9AD0008C9AD0008C9AD0008A7
:10214000C9AD0008C9AD0008C9AD0008C9AD000897
:10215000C9AD0008C9AD0008C9AD0008C9AD000887
:1021600072B6264880F3098825484EF60851CEF20B
:1021700000010860022080F31488BFF36F8F09F01C
:1021800035F809F063F84FF055301E491E4A914268
:102190003CBF41F8040BFAE71C49184A91423CBF86
:1021A00041F8040BFAE71A491A4A1B4B9A423EBF00
:1021B00051F8040B42F8040BF8E700201749184ABD
:1021C00091423CBF41F8040BFAE709F013F809F01B
:1021D0000EF8144C144DAC4203DA54F8041B884733
:1021E000F9E709F073F8114C114DAC4203DA54F8D9
:1021F000041B8847F9E708F0FBBF00000008002037
:10220000002000080000002000040020000400203E
:10221000A0CD00080008002028090020280900207F
:10222000501600206021000860210008602100088D
:10223000602100082A2A2A2A2A2A2A2A2A2A2A2A1D
:102240002A2A2A2A2A2A2A2A2A2A2A2A2A2A2A2AEE
:102250002A2A2A2A2A2A2A2A2A2A2A2A2A2A2A2ADE
:102260002A2A2A2A2A2A2A2A2A2A2A2A2A2A2A2ACE
:102270002A2A2A2A2A2A2A2A2A2A2A2A2A2A2A2ABE
:102280002A2A2A2A2A2A0D0A4672656552544F5371
:10229000204B65726E656C205631302E302E300D1D
:1022A0000A436F7079726967687420284329203265
:1022B00030313720416D617A6F6E2E636F6D2C2047
:1022C000496E632E206F722069747320616666699F
:1022D0006C69617465732E2020416C6C20526967B3
:1022E0006874732052657365727665642E0D0A0DED
:1022F0000A5065726D697373696F6E206973206827
:102300006572656279206772616E7465642C2066FF
:10231000726565206F66206368617267652C207442
:102320006F20616E7920706572736F6E206F6274BA
:1023300061696E696E67206120636F7079206F66D6
:102340000D0A7468697320736F6674776172652013
:10235000616E64206173736F636961746564206486
:102360006F63756D656E746174696F6E2066696CFC
:10237000657320287468652022536F6674776172D4
:102380006522292C20746F206465616C20696E0DB4
:102390000A74686520536F66747761726520776987
:1023A00074686F7574207265737472696374696F91
:1023B0006E2C20696E636C7564696E672077697432
:1023C000686F7574206C696D69746174696F6E20D3
:1023D0007468652072696768747320746F0D0A757C
:1023E00073652C20636F70792C206D6F646966793A
:1023F0002C206D657267652C207075626C6973683E
:102400002C20646973747269627574652C2073750D
:10241000626C6963656E73652C20616E642F6F72E8
:102420002073656C6C20636F70696573206F660D37
:102430000A74686520536F6674776172652C206139
:102440006E6420746F207065726D6974207065729F
:10245000736F6E7320746F2077686F6D207468657A
:1024600020536F6674776172652069732066757298
:102470006E697368656420746F20646F20736F2CBD
:102480000D0A7375626A65637420746F20746865E1
:1024900020666F6C6C6F77696E6720636F6E64691E
:1024A00074696F6E733A0D0A0D0A54686520616293
:1024B0006F766520636F70797269676874206E6FDC
:1024C0007469636520616E64207468697320706547
:1024D000726D697373696F6E206E6F7469636520C6
:1024E0007368616C6C20626520696E636C756465ED
:1024F0006420696E20616C6C0D0A636F706965738E
:10250000206F72207375627374616E7469616C20E0
:10251000706F7274696F6E73206F662074686520C7
:10252000536F6674776172652E20496620796F75E6
:10253000207769736820746F20757365206F7572DA
:1025400020416D617A6F6E0D0A4672656552544F77
:1025500053206E616D652C20706C6561736520641D
:102560006F20736F20696E2061206661697220752B
:10257000736520776179207468617420646F657376
:10258000206E6F7420636175736520636F6E66756E
:1025900073696F6E2E0D0A0D0A54484520534F463D
:1025A00054574152452049532050524F56494445B3
:1025B0004420224153204953222C20574954484F4C
:1025C00055542057415252414E5459204F462041B4
:1025D0004E59204B494E442C204558505245535398
:1025E000204F520D0A494D504C4945442C20494E2C
:1025F000434C5544494E4720425554204E4F542099
:102600004C494D4954454420544F20544845205787
:10261000415252414E54494553204F46204D455258
:102620004348414E544142494C4954592C20464953
:10263000544E4553530D0A464F52204120504152AB
:10264000544943554C415220505552504F53452008
:10265000414E44204E4F4E494E4652494E47454DFD
:10266000454E542E20494E204E4F204556454E543F
:10267000205348414C4C2054484520415554484F24
:102680005253204F520D0A434F5059524947485414
:1026900020484F4C44455253204245204C4941422A
:1026A0004C4520464F5220414E5920434C41494D04
:1026B0002C2044414D41474553204F52204F544810
:1026C0004552204C494142494C4954592C205748C5
:1026D00045544845520D0A494E20414E204143542D
:1026E000494F4E204F4620434F4E54524143542CA5
:1026F00020544F5254204F52204F5448455257496E
:1027000053452C2041524953494E472046524F4D84
:102710002C204F5554204F46204F5220494E0D0A31
:10272000434F4E4E454354494F4E2057495448203D
:1027300054484520534F465457415245204F52204C
:1027400054484520555345204F52204F5448455238
:10275000204445414C494E475320494E205448455A
:1027600020534F4654574152452E0D0A0D0A6874A6
:1027700074703A2F2F7777772E4672656552544FD3
:10278000532E6F72670D0A687474703A2F2F617739
:10279000732E616D617A6F6E2E636F6D2F66726539
:1027A0006572746F730D0A2A2A2A2A2A2A2A2A2A6B
:1027B0002A2A2A2A2A2A2A2A2A2A2A2A2A2A2A2A79
:1027C0002A2A2A2A2A2A2A2A2A2A2A2A2A2A2A2A69
:1027D0002A2A2A2A2A2A2A2A2A2A2A2A2A2A2A2A59
:1027E0002A2A2A2A2A2A2A2A2A2A2A2A2A2A2A2A49
:1027F0002A2A2A2A2A2A2A2A2A0D0A434F505952BB
:102800004947485428632920323031362053544DEB
:102810006963726F656C656374726F6E6963730D63
:102820000A0D0A5265646973747269627574696F1E
:102830006E20616E642075736520696E20736F75FC
:1028400072636520616E642062696E6172792066D0
:102850006F726D732C2077697468206F72207769AE
:1028600074686F7574206D6F6469666963617469FB
:102870006F6E2C0D0A617265207065726D697474DB
:1028800065642070726F7669646564207468617431
:102890002074686520666F6C6C6F77696E67206363
:1028A0006F6E646974696F6E7320617265206D6507
:1028B000743A0D0A2020312E2052656469737472B7
:1028C00069627574696F6E73206F6620736F7572BD
:1028D000636520636F6465206D7573742072657421
:1028E00061696E207468652061626F766520636F30
:1028F00070797269676874206E6F746963652C0DF6
:102900000A202020202074686973206C6973742069
:102910006F6620636F6E646974696F6E7320616E99
:10292000642074686520666F6C6C6F77696E6720D1
:10293000646973636C61696D65722E0D0A202032C3
:102940002E205265646973747269627574696F6E62
:102950007320696E2062696E61727920666F726D94
:10296000206D75737420726570726F647563652075
:102970007468652061626F766520636F7079726933
:10298000676874206E6F746963652C0D0A202020BF
:10299000202074686973206C697374206F662063EB
:1029A0006F6E646974696F6E7320616E6420746801
:1029B0006520666F6C6C6F77696E672064697363FE
:1029C0006C61696D657220696E2074686520646F42
:1029D00063756D656E746174696F6E0D0A202020D9
:1029E0002020616E642F6F72206F74686572206D95
:1029F0006174657269616C732070726F7669646569
:102A000064207769746820746865206469737472DF
:102A100069627574696F6E2E0D0A2020332E204E68
:102A200065697468657220746865206E616D6520E3
:102A30006F662053544D6963726F656C6563747281
:102A40006F6E696373206E6F7220746865206E61AB
:102A50006D6573206F662069747320636F6E747286
:102A6000696275746F72730D0A20202020206D61D9
:102A700079206265207573656420746F20656E64CB
:102A80006F727365206F722070726F6D6F74652046
:102A900070726F64756374732064657269766564BF
:102AA0002066726F6D207468697320736F66747727
:102AB0006172650D0A2020202020776974686F7587
:102AC00074207370656369666963207072696F72E0
:102AD000207772697474656E207065726D697373A6
:102AE000696F6E2E0D0A20200D0A54484953205359
:102AF0004F4654574152452049532050524F564952
:102B00004445442042592054484520434F5059528F
:102B10004947485420484F4C4445525320414E4465
:102B200020434F4E5452494255544F525320224154
:102B300053204953220D0A414E4420414E5920450D
:102B4000585052455353204F5220494D504C4945FF
:102B5000442057415252414E544945532C20494E2E
:102B6000434C5544494E472C20425554204E4F5417
:102B7000204C494D4954454420544F2C205448453D
:102B80000D0A494D504C4945442057415252414E3F
:102B900054494553204F46204D45524348414E54D9
:102BA0004142494C49545920414E44204649544ED3
:102BB00045535320464F52204120504152544943DF
:102BC000554C415220505552504F5345204152458B
:102BD0000D0A444953434C41494D45442E20494E2A
:102BE000204E4F204556454E54205348414C4C20D2
:102BF00054484520434F5059524947485420484F64
:102C00004C444552204F5220434F4E545249425556
:102C1000544F5253204245204C4941424C450D0AE5
:102C2000464F5220414E59204449524543542C208E
:102C3000494E4449524543542C20494E434944454A
:102C40004E54414C2C205350454349414C2C204577
:102C500058454D504C4152592C204F5220434F4E15
:102C600053455155454E5449414C0D0A44414D413F
:102C70004745532028494E434C5544494E472C2044
:102C8000425554204E4F54204C494D495445442000
:102C9000544F2C2050524F435552454D454E5420D1
:102CA0004F46205355425354495455544520474F9D
:102CB0004F4453204F520D0A5345525649434553F2
:102CC0003B204C4F5353204F46205553452C204416
:102CD0004154412C204F522050524F464954533BAF
:102CE000204F5220425553494E45535320494E548C
:102CF000455252555054494F4E2920484F5745563A
:102D000045520D0A43415553454420414E44204FFE
:102D10004E20414E59205448454F5259204F46208D
:102D20004C494142494C4954592C20574845544834
:102D3000455220494E20434F4E54524143542C207B
:102D4000535452494354204C494142494C495459E7
:102D50002C0D0A4F5220544F52542028494E434CB8
:102D60005544494E47204E45474C4947454E4345FB
:102D7000204F52204F54484552574953452920412E
:102D8000524953494E4720494E20414E5920574100
:102D900059204F5554204F462054484520555345FF
:102DA0000D0A4F46205448495320534F465457412B
:102DB00052452C204556454E20494620414456490F
:102DC000534544204F462054484520504F535349C3
:102DD00042494C495459204F4620535543482044BA
:102DE000414D4147452E0D0A2A2A2A2A2A2A2A2AF3
:102DF0002A2A2A2A2A2A2A2A2A2A2A2A2A2A2A2A33
:102E00002A2A2A2A2A2A2A2A2A2A2A2A2A2A2A2A22
:102E10002A2A2A2A2A2A2A2A2A2A2A2A2A2A2A2A12
:102E20002A2A2A2A2A2A2A2A2A2A2A2A2A2A2A2A02
:102E30002A2A2A2A2A2A2A2A2A2A0D0A4368696261
:102E4000694F53202D20436F707972696768742031
:102E500028432920323030362E2E3230313620476A
:102E6000696F76616E6E6920446920536972696F7B
:102E70000D0A0D0A4C6963656E73656420756E6496
:102E800065722074686520417061636865204C69D3
:102E900063656E73652C2056657273696F6E2032A0
:102EA0002E30202874686520224C6963656E736536
:102EB00022293B0D0A796F75206D6179206E6F7440
:102EC0002075736520746869732066696C65206578
:102ED000786365707420696E20636F6D706C6961D2
:102EE0006E6365207769746820746865204C696337
:102EF000656E73652E0D0A596F75206D6179206FAF
:102F0000627461696E206120636F7079206F662042
:102F1000746865204C6963656E73652061740D0A81
:102F20000D0A20202020687474703A2F2F7777774D
:102F30002E6170616368652E6F72672F6C696365BF
:102F40006E7365732F4C4943454E53452D322E30D9
:102F50000D0A0D0A556E6C65737320726571756983
:102F6000726564206279206170706C696361626C63
:102F700065206C6177206F722061677265656420DF
:102F8000746F20696E2077726974696E672C207384
:102F90006F6674776172650D0A6469737472696231
:102FA0007574656420756E64657220746865204C64
:102FB0006963656E736520697320646973747269EF
:102FC0006275746564206F6E20616E20224153200B
:102FD0004953222042415349532C0D0A5749544822
:102FE0004F55542057415252414E54494553204F5A
:102FF0005220434F4E444954494F4E53204F462090
:10300000414E59204B494E442C20656974686572C5
:103010002065787072657373206F7220696D706CB3
:103020006965642E0D0A53656520746865204C69D6
:1030300063656E736520666F7220746865207370B7
:10304000656369666963206C616E67756167652099
:10305000676F7665726E696E67207065726D6973F1
:1030600073696F6E7320616E640D0A6C696D6974AB
:103070006174696F6E7320756E6465722074686523
:10308000204C6963656E73652E0D0A2A2A2A2A2A46
:103090002A2A2A2A2A2A2A2A2A2A2A2A2A2A2A2A90
:1030A0002A2A2A2A2A2A2A2A2A2A2A2A2A2A2A2A80
:1030B0002A2A2A2A2A2A2A2A2A2A2A2A2A2A2A2A70
:1030C0002A2A2A2A2A2A2A2A2A2A2A2A2A2A2A2A60
:1030D0002A2A2A2A2A2A2A2A2A2A2A2A2A0D0A4374
:1030E0006F707972696768742028632920323031E3
:1030F000372D323031382C20426572746F6C642069
:1031000056616E2064656E2042657267682028767D
:10311000616E64656E626572676840626572746F45
:103120006C642E6F7267290D0A416C6C207269679E
:103130006874732072657365727665642E0D0A5427
:1031400068697320776F726B2068617320626565B0
:103150006E20646576656C6F70656420746F207393
:103160007570706F72742072657365617263682028
:1031700066756E6465642062790D0A2246756E6418
:1031800020666F7220536369656E74696669632097
:1031900052657365617263682C20466C616E64656C
:1031A0007273222028462E572E4F2E2D566C6161A9
:1031B0006E646572656E292E0D0A0D0A526564698A
:1031C00073747269627574696F6E20616E642075C4
:1031D000736520696E20736F7572636520616E641C
:1031E0002062696E61727920666F726D732C207730
:1031F000697468206F7220776974686F75740D0A3E
:103200006D6F64696669636174696F6E2C206172A9
:1032100065207065726D69747465642070726F7674
:103220006964656420746861742074686520666FE1
:103230006C6C6F77696E6720636F6E646974696F19
:103240006E7320617265206D65743A0D0A2020202E
:10325000202A205265646973747269627574696F9B
:103260006E73206F6620736F7572636520636F6481
:1032700065206D7573742072657461696E20746861
:10328000652061626F766520636F70797269676827
:10329000740D0A2020202020206E6F746963652C35
:1032A0002074686973206C697374206F6620636F83
:1032B0006E646974696F6E7320616E6420746865F2
:1032C00020666F6C6C6F77696E6720646973636CDE
:1032D00061696D65722E0D0A202020202A2052651A
:1032E000646973747269627574696F6E7320696E54
:1032F0002062696E61727920666F726D206D7573E0
:103300007420726570726F647563652074686520DF
:1033100061626F766520636F707972696768740D9A
:103320000A2020202020206E6F746963652C207491
:10333000686973206C697374206F6620636F6E64B4
:103340006974696F6E7320616E64207468652066AD
:103350006F6C6C6F77696E6720646973636C616909
:103360006D657220696E207468650D0A202020202A
:103370002020646F63756D656E746174696F6E2073
:10338000616E642F6F72206F74686572206D617456
:10339000657269616C732070726F76696465642010
:1033A00077697468207468652064697374726962EF
:1033B0007574696F6E2E0D0A202020202A204E651C
:1033C000697468657220746865206E616D65206F30
:1033D000662074686520617574686F72206E6F7204
:1033E000207468650D0A2020202020206E616D6504
:1033F00073206F662069747320636F6E74726962E4
:1034000075746F7273206D617920626520757365C4
:103410006420746F20656E646F727365206F722014
:1034200070726F6D6F74652070726F647563747302
:103430000D0A2020202020206465726976656420B2
:1034400066726F6D207468697320736F667477613C
:10345000726520776974686F75742073706563692D
:10346000666963207072696F72207772697474651F
:103470006E207065726D697373696F6E2E0D0A0D23
:103480000A5448495320534F465457415245204906
:10349000532050524F5649444544204259205448E5
:1034A0004520434F5059524947485420484F4C44B7
:1034B00045525320414E4420434F4E5452494255A9
:1034C000544F5253202241532049532220414E440D
:1034D0000D0A414E592045585052455353204F52E2
:1034E00020494D504C4945442057415252414E5479
:1034F0004945532C20494E434C5544494E472C20B6
:10350000425554204E4F54204C494D495445442077
:10351000544F2C2054484520494D504C4945440DAA
:103520000A57415252414E54494553204F46204D6F
:1035300045524348414E544142494C495459204117
:103540004E44204649544E45535320464F52204145
:1035500020504152544943554C41522050555250ED
:103560004F5345204152450D0A444953434C41496C
:103570004D45442E20494E204E4F204556454E5431
:10358000205348414C4C2054484520415554484F05
:1035900052204F52204449535452494255544F529D
:1035A000204245204C4941424C4520464F52204143
:1035B0004E590D0A4449524543542C20494E444922
:1035C000524543542C20494E434944454E54414CA6
:1035D0002C205350454349414C2C204558454D50D3
:1035E0004C4152592C204F5220434F4E5345515578
:1035F000454E5449414C2044414D414745530D0AE5
:1036000028494E434C5544494E472C20425554209E
:103610004E4F54204C494D4954454420544F2C2082
:1036200050524F435552454D454E54204F4620531E
:1036300055425354495455544520474F4F44532005
:103640004F522053455256494345533B0D0A4C4F68
:103650005353204F46205553452C20444154412C70
:10366000204F522050524F464954533B204F522036
:10367000425553494E45535320494E544552525595
:103680005054494F4E2920484F57455645522043E4
:10369000415553454420414E440D0A4F4E20414E62
:1036A00059205448454F5259204F46204C494142D9
:1036B000494C4954592C20574845544845522049B3
:1036C0004E20434F4E54524143542C2053545249A0
:1036D0004354204C494142494C4954592C204F52A3
:1036E00020544F52540D0A28494E434C5544494EDC
:1036F00047204E45474C4947454E4345204F5220B1
:103700004F5448455257495345292041524953493E
:103710004E4720494E20414E5920574159204F5580
:1037200054204F462054484520555345204F4620AD
:10373000544849530D0A534F4654574152452C2083
:103740004556454E2049462041445649534544205C
:103750004F462054484520504F53534942494C4905
:103760005459204F4620535543482044414D41472A
:10377000452E0D0A2A2A2A2A2A2A2A2A2A2A2A2AC7
:103780002A2A2A2A2A2A2A2A2A2A2A2A2A2A2A2A99
:103790002A2A2A2A2A2A2A2A2A2A2A2A2A2A2A2A89
:1037A0002A2A2A2A2A2A2A2A2A2A2A2A2A2A2A2A79
:1037B0002A2A2A2A2A2A2A2A2A2A2A2A2A2A2A2A69
:1037C0002A2A2A2A2A2A0D0A000D0A0053B94AB9C0
:1037D000002908BF00281CBF4FF0FF314FF0FF3019
:1037E00000F07AB9ADF1080C6DE904CE00F006F8EE
:1037F000DDF804E0DDE9022304B070472DE9F0476D
:10380000089D0E4604468E46002B4DD18A429446B2
:1038100069D9B2FA82F252B101FA02F3C2F120017F
:1038200020FA01F10CFA02FC41EA030E94404FEA3F
:103830001C47BEFBF7F01FFA8CF607FB10EE00FBEF
:1038400006F1230C43EA0E4399420AD91CEB030309
:1038500000F1FF3E80F01F81994240F21C81023846
:1038600063445B1AB3FBF7FE07FB1E330EFB06F641
:10387000A4B244EA0344A6420BD91CEB04040EF1A3
:10388000FF3380F00A81A64240F207816444AEF122
:10389000020E0021A41B4EEA00401DB10023D440BB
:1038A000C5E90043BDE8F0878B42074608D9002DE3
:1038B00000F0EE800021C5E900060846BDE8F0876B
:1038C000B3FA83F1002949D1B34202D3824200F214
:1038D000FE80BC1A66EB030301209E46002DE1D05A
:1038E000C5E9004EDEE702B9FFDEB2FA82F2002A35
:1038F00040F08E80A1EB0C0001214FEA1C471FFA1B
:103900008CF6B0FBF7FE07FB1E00230C43EA0043D6
:1039100006FB0EF0984208D91CEB03030EF1FF38AA
:1039200002D2984200F2CF80C6461B1AB3FBF7F0D2
:1039300007FB103300FB06F6A4B244EA0344A64298
:1039400008D91CEB040400F1FF3302D2A64200F2B6
:10395000B7801846A41B40EA0E409EE7C1F1200C38
:1039600022FA0CF08B4003434FEA134926FA0CF07D
:10397000B0FBF9F809FB180006FA01F427FA0CF677
:1039800034431FFA83FE260C46EA004608FB0EF07D
:10399000B04202FA01F207FA01F70AD99E1908F1BA
:1039A000FF3A80F08B80B04240F28880A8F1020894
:1039B0001E44361AB6FBF9F009FB106600FB0EFE3A
:1039C000A4B244EA0646B64507D99E1900F1FF3471
:1039D00070D2B6456ED902381E4440EA0840A0FBBA
:1039E0000284A6EB0E06A642C646A14659D356D07F
:1039F000002D6ED0B7EB0E0266EB0906CA4006FA40
:103A00000CFC4CEA0202CE40C5E90026002149E741
:103A10000CFA02FCC2F1200021FA00FE4FEA1C471A
:103A200001FA02F3BEFBF7F107FB11EE24FA00F0F6
:103A300018431FFA8CF6030C43EA0E4301FB06FE03
:103A40009E4504FA02F408D91CEB030301F1FF3888
:103A500032D29E4530D902396344A3EB0E03B3FB47
:103A6000F7FE07FB1E3380B240EA03400EFB06F36D
:103A7000834209D91CEB00000EF1FF3818D28342B3
:103A800016D9AEF1020E6044C01A4EEA014138E781
:103A90002946284606E77046E3E69E46F9E647458E
:103AA000A6D2B8EB020E64EB0303013899469FE7F8
:103AB000C646E9E7204690E74146CEE7D04678E79C
:103AC0006444023846E7AEF1020E63442DE708462F
:103AD00004E72946E6E600BF704700BF844641EA96
:103AE000000313F0030349D1403A23D30B6803606A
:103AF0004B6843608B688360CB68C3600B6903616C
:103B00004B6943618B698361CB69C3610B6A036253
:103B10004B6A43628B6A8362CB6AC3620B6B03633B
:103B20004B6B43638B6B8363CB6BC3634030403120
:103B3000403ADBD230320BD30B6803604B684360F2
:103B40008B688360CB68C36010301031103AF3D2B9
:103B50000C3205D351F8043B40F8043B043AF9D247
:103B6000043208D0D2071CBF11F8013B00F8013B1A
:103B700001D30B8803806046704700BF082A13D327
:103B80008B07B1D010F00303AED0C3F10403D21AF7
:103B9000DB071CBF11F8013B00F8013BA4D331F84F
:103BA000023B20F8023B9FE7043AD9D3013A11F8CF
:103BB000013B00F8013BF9D20B7803704B7843705E
:103BC0008B7883706046704780EA010C1CF0030F0D
:103BD00037D110F0030C20F0030021F0030150F85E
:103BE000042B08BF51F8043B0ED08CF0030C6FF08F
:103BF0007F434FEACC0C23FA0CFC51F8043B42EA19
:103C00000C0243EA0C0300BFA2F1013C9A4201BF3F
:103C10002CEA020C1CF0803F50F8042B51F8043BB6
:103C2000F2D04FEA02604FEA1222012828BFB0EB1F
:103C3000036F08BF1B0AF4D003F0FF03000EC01A85
:103C4000704710F0030F0AD010F8012B11F8013B58
:103C5000012A28BF9A42F4D0A2EB030070474DF826
:103C6000045D50F8042B01F0030521F0030151F825
:103C7000043B022D26D04DD822F07F45B5EB132F03
:103C8000A2F1013C2CEA020C0DD11CF0803C08BFD3
:103C900051F8043B0AD185EA0205B5EB036F0CD15C
:103CA00050F8042BE8E74FEA13235BE03CF07F4C2D
:103CB00054D10B784FEA126554E04FEA126503F0D5
:103CC000FF034FE04FEA0245A2F1013C4FEA1545E0
:103CD0002CEA020CB5EB134F18D11CF0803C08BF46
:103CE00051F8043B07D185EA0205B5EB034F09D132
:103CF00050F8042BE6E75FEA0C4C2FD10B884FEA13
:103D000012452FE04FEA03434FEA12454FEA1343AF
:103D100028E000BF02F0FF05B5EB136FA2F1013CF4
:103D20002CEA020C0DD11CF0803C08BF51F8043B7A
:103D30000AD185EA0205B5EB032F0AD150F8042B0E
:103D4000E8E74FEA13630DE012F0FF0F06D051F8D9
:103D5000043B4FEA122523F07F4303E04FF00000BD
:103D600020BC704705F0FF0203F0FF00012828BFC8
:103D7000904204BF2D0A1B0AF4D0A2EB000020BC25
:103D8000704700BF4FF0E0230D4AD3F8201D1160AB
:103D90000C4A12684AB1D3F8202D22F47F02C3F8EE
:103DA000202DD3F8202DC3F8202D4FF0E0234FF025
:103DB0008052C3F8042DBFF34F8FBFF36F8F70474E
:103DC0004C1300205813002090F87420034602F092
:103DD0006002202A14D190F875200020212A02D8F0
:103DE0001F2A03D87047222A07D07047054A9A66CF
:103DF0000722DA66186701207047C3E91A00F9E75D
:103E000000207047500800207047000090F876307E
:103E1000074A80F87E3043F0800310B5D3644368CE
:103E200004461B680BB1012198470323237010BD82
:103E3000005C004008B50B4B19689A6801F00E0150
:103E40000A4205D0084A596013680BB15068984778
:103E50000021064B1A6819601AB1BDE80840FFF747
:103E600091BF08BD00000240E80F00204C16002062
:103E700008B5194B1968DA69090901F00E010A42FF
:103E800006D00A015A60154A93680BB1D06898476A
:103E90000021134B1A681960E2B14FF0E023114A78
:103EA000D3F8201D1160104A12684AB1D3F8202DB2
:103EB00022F47F02C3F8202DD3F8202DC3F8202D43
:103EC0004FF0E0234FF08052C3F8042DBFF34F8F23
:103ED000BFF36F8F08BD00BF00000240E80F002055
:103EE0004C1600204C1300205813002008B5194B25
:103EF00019681A6B090A01F00E010A4206D00A027B
:103F00005A60154A13690BB1506998470021134B49
:103F10001A681960E2B14FF0E023114AD3F8201D6E
:103F20001160104A12684AB1D3F8202D22F47F02A2
:103F3000C3F8202DD3F8202DC3F8202D4FF0E02317
:103F40004FF08052C3F8042DBFF34F8FBFF36F8F34
:103F500008BD00BF00000240E80F00204C16002002
:103F60004C1300205813002008B5194B19685A6CDF
:103F7000090B01F00E010A4206D00A035A60154AE5
:103F800093690BB1D06998470021134B1A681960E7
:103F9000E2B14FF0E023114AD3F8201D1160104A1E
:103FA00012684AB1D3F8202D22F47F02C3F8202DE5
:103FB000D3F8202DC3F8202D4FF0E0234FF080528E
:103FC000C3F8042DBFF34F8FBFF36F8F08BD00BF41
:103FD00000000240E80F00204C1600204C13002087
:103FE0005813002008B5194B19689A6D090C01F097
:103FF0000E010A4206D00A045A60154A136A0BB130
:10400000506A98470021134B1A681960E2B14FF0CB
:10401000E023114AD3F8201D1160104A12684AB1FA
:10402000D3F8202D22F47F02C3F8202DD3F8202DC1
:10403000C3F8202D4FF0E0234FF08052C3F8042D39
:10404000BFF34F8FBFF36F8F08BD00BF000002406A
:10405000E80F00204C1600204C13002058130020BD
:1040600008B5194B1968DA6E090D01F00E010A4204
:1040700006D00A055A60154A936A0BB1D06A984770
:104080000021134B1A681960E2B14FF0E023114A86
:10409000D3F8201D1160104A12684AB1D3F8202DC0
:1040A00022F47F02C3F8202DD3F8202DC3F8202D51
:1040B0004FF0E0234FF08052C3F8042DBFF34F8F31
:1040C000BFF36F8F08BD00BF00000240E80F002063
:1040D0004C1600204C1300205813002008B5194B33
:1040E0001968D3F88020090E01F00E010A4206D0AB
:1040F0000A065A60144A136B0BB1506B98470021A3
:10410000124B1A681960E2B14FF0E023104AD3F85D
:10411000201D11600F4A12684AB1D3F8202D22F4F5
:104120007F02C3F8202DD3F8202DC3F8202D4FF0A7
:10413000E0234FF08052C3F8042DBFF34F8FBFF33D
:104140006F8F08BD00000240E80F00204C160020D1
:104150004C13002058130020024AD36843F0800318
:10416000D3607047004800400D4B10B51B6D040133
:1041700003F1804303F5C04303EB0010E3581144FF
:1041800003F1005303F540535B004260002AA1EBAA
:10419000020000DC10BD0088023A43F8040BF5E78A
:1041A000005C0040D0E902239A421FBF4268D1540C
:1041B000C36801331ABFC36000206FF0010070476D
:1041C000D0E903239A421FBF4268D25C01330361E6
:1041D00014BF10466FF00100704770B50378E3B16B
:1041E0002D2B27D101221446024400201BE000FBA6
:1041F00001F5A3F13000C0B203F0DF030928A3F1F9
:1042000041068CBF4FF0FF3040B2192E08D8A3F101
:104210003700C3B2994240B204D84FF0FF3008E0F3
:10422000431C06D0284412F8013B002BDFD104B117
:10423000404270BD0022D6E7BFF34F8F0549064BC1
:10424000CA6802F4E0621343CB60BFF34F8F00BF34
:10425000FDE700BF00ED00E00400FA05F0B5074DF2
:104260002B780D2B08D80C245C43054F01333E19E5
:10427000C6E9011238512B70F0BD00BF10090020B3
:104280005C080020044B5A6818B142F080625A6002
:10429000704722F08062FAE70010024002291346BC
:1042A00070B554D0032904D001292B4818BF002031
:1042B00070BD022A03D8294800EBC200F8E7032AA0
:1042C00047D127490A780AB12648F1E784200C46ED
:1042D0000870164608464B70930803F10053A3F587
:1042E000805393F8E837C2F34005AD002B4103F04B
:1042F0000F03092B02F1020294BF30335733302AE7
:10430000A370E67004F10204E6D12D2381F8336036
:1043100081F8323000241421134D15F8013F80F844
:1043200035401A099F2B03F00F0394BF30325732E8
:10433000092B94BF30335733013980F8342080F88B
:10434000363080F8374000F10400E6D1BCE707487A
:10435000AEE70020ACE700BF48CC0008F8CC00086E
:104360003112002010CD000883CD0008FCCB0008DE
:10437000024688B1411C11D0831C11D0012811D0F4
:10438000022811D0032811D0042811D0094B0A4863
:10439000052A08BF18467047084870470848704704
:1043A00008487047084870470848704708487047F1
:1043B0000848704774BA0008D2BA00088DBA0008DD
:1043C00090BA000898BA0008A7BA0008C4BA000852
:1043D000B5BA000865BA0008044B1A79824283BF57
:1043E0000C221B6802FB003001487047280900209E
:1043F00068CA000813B50446000AFFF7EDFF002362
:104400000193836801A9DB6898470198E4B2E04012
:1044100000F0010002B010BD10B5FFF7DDFF8368AA
:104420001B6913B1BDE81040184710BD0123032AD2
:10443000F0B5006803FA01F129D10161164B082695
:104440009F5C00231A461D461C4611F0800F4FEA60
:1044500004144FEA02124FEA05154FEA03130CBF8A
:1044600044F00F043A4311F4004F0CBF45F00F0520
:104470003B43013E4FEA4101E7D1416829400B43EC
:10448000436003682340134303600120F0BD042A06
:1044900008BF4161D2E700BF28C90008036821EACC
:1044A00002000A4042EA00421A6101207047036894
:1044B00001209B680B60704710B50C4A137983424A
:1044C00012D9946824FA00F3DB070DD4012383404A
:1044D000234393600C23584313681A1804D01950CF
:1044E000034B93601023536010BD00BF28090020C8
:1044F00038CA00082DE9F0414FF0140C04460D466F
:1045000041690020C6B20CFB06F801EB08021369F2
:10451000B3B1E769F740FB071DD42B7AA3B16B7ADF
:10452000B34218D1237EFF2B17D126766E726169B4
:104530002A4641440B6920461B6898470646C0B985
:1045400000263046BDE8F0812F685368BB4202D890
:104550009368BB42E6D20130D4E7B342E5D01422DF
:1045600002FB03110B695B68002BDED020469847E5
:10457000DBE70FCD0FC42B682360E2E710B51446CC
:10458000036A0021984723680120E3600023237415
:1045900010BD10B51446036A4FF480719847236824
:1045A000012003F58C3303F5A073E360002323742B
:1045B00010BD08B50021036A9847012008BDF8B571
:1045C000CD68164614682A7807466B68AAB11C4461
:1045D00002212046AB689847A8B90221AB68600861
:1045E000984760B14FF4404138463B6A98476B6842
:1045F0000120F3602B78337402E09C4201D200204A
:10460000F8BDE41AE4E74FF40041EDE710B50446C5
:10461000CB6800206FF07E019B6898472046002100
:10462000236A9847012010BD10B50F4B1A461B682E
:104630008342FBD354681119884201BF4168104678
:1046400009195160446801198B4207D1074909686B
:104650008B421FBF59681B68091941609042036073
:1046600018BF106010BD00BF18160020B011002048
:10467000024A136801331360704700BF6C130020B7
:10468000094B0A4A1B681268D06A58B9084A12686E
:10469000012A08D8012B06D8064B1868064B1B6860
:1046A000C01A70470020704774130020A811002022
:1046B000B8110020F815002048160020064A13689B
:1046C0001968064B19B94FF0FF321A60704712682B
:1046D000D268D2685268F8E7AC110020F8150020C3
:1046E0000B4B1968086830C8B0E8F00F80F30988F0
:1046F000BFF36F8F4FF0000080F311884EF00D0E66
:10470000704700BFAFF30080AFF30080AFF30080CD
:10471000A811002006480068006880F3088862B687
:1047200061B6BFF34F8FBFF36F8F00DF00BF000094
:1047300008ED00E0064A13683BB94FF0BF0181F372
:104740001188BFF36F8FBFF34F8F01331360704732
:104750005813002008B5FFF7EDFF0022024B1A6046
:1047600072B671B608BD00BF1416002010B5EFF385
:1047700011832BB1EFF305832BB1FFF7EBFFFEE7BE
:10478000FFF7E8FFFEE7C36813B9FFF7E3FFFEE7B3
:10479000C368C269013BC3604369134482694361D2
:1047A000934224BF436A436100238362036B13B1C6
:1047B000BDE81040184710BD08B50346EFF311825D
:1047C0005AB1D0E90420824201D1DB681BB950F80C
:1047D000043B0B6008BD0020FCE7FFF7BBFFFEE7D2
:1047E00010B5EFF311832BB1EFF305832BB1FFF776
:1047F000B1FFFEE7FFF7AEFFFEE719B1C369043B67
:10480000994202D9FFF7A6FFFEE7C36813B9FFF785
:10481000A1FFFEE703691960C268013AC260C2697C
:10482000134482690361934224BF436A03610023F6
:104830008362036B13B1BDE81040184710BD000040
:1048400008B5EFF311832BB1EFF305822AB1FFF71F
:1048500081FFFEE7FFF77EFFFEE7044B19681A6051
:1048600019B1BDE80840FFF78DBA08BD4C1600200D
:10487000F8B5EFF311841CB128B9FFF76BFFFEE721
:10488000FFF768FFFEE70729F7D80124468904FAF5
:1048900001F5AFB2354002D0FFF75CFFFEE73E43C3
:1048A000468100EB8100C668B069C0E900358260CE
:1048B000B3B1728A013B1344B3FBF2F39BB2094AD2
:1048C000838152F8213023F4904323F0700383F462
:1048D000405343F4004343F0800342F82130F8BDD5
:1048E0002346ECE7005C004070B50C461146EFF340
:1048F00011821AB128B9FFF72DFFFEE7FFF72AFF53
:10490000FEE7072CF7D801250689A540AAB2354055
:1049100002D0FFF71FFFFEE71643068100EB84007D
:10492000C2685069128AC0E900359A4228BF1A4607
:104930008160C2602046FFF717FC084A52F8243015
:1049400023F4F04323F0400383F0300343F40043A7
:1049500043F0800342F8243070BD00BF005C00408B
:1049600013B5446BD4F898341A681178042916D119
:10497000217D022913D11979012312898B40134219
:104980000DD101A904F15000FFF716FF024630B126
:10499000D4F89804019B01790068FFF7A5FF02B0E5
:1049A00010BD000070B510B9FFF7D4FEFEE7012579
:1049B000154A467C136805FA06F1194202D1FFF741
:1049C000C9FEFEE723EA01038168136013EA0104CC
:1049D0000BD1827C02F01F018D4050090B49203021
:1049E00041F82050114481F800430021084A5B0639
:1049F00042F8361002EBC602516001BF054A536906
:104A000023F00103536170BD4410002000E100E079
:104A1000E80F00200010024008B50B0702D5FFF791
:104A200099FEFEE7D0E91D315868026822F00F02B6
:104A30000260187C1A680E23834053604B6843F46D
:104A400000734B6008BD08B50B0702D5FFF782FE67
:104A5000FEE708BDF8B500EB8103DE68336803F0BC
:104A60000303022B06D0032B22D0012B23D1FFF707
:104A700071FEFEE70022334B4FEA011C1C6D736987
:104A800004F1804404F5C04404EB0115D3B10023C4
:104A90006B60338AD0F88470013323F001033B4408
:104AA000B3F5007FC0F8843008D9FFF753FEFEE766
:104AB0004FF4C062DFE74FF40072DCE74CF804709B
:104AC00042F02002B3692BB3748A3E2C04F1FF3309
:104AD00016D943F01F031C4E01335B1146EA8323B2
:104AE0009BB2EB600134D0F8843024F001041C4404
:104AF000B4F5007FC0F8844009D9FFF72BFEFEE72C
:104B000043F0010301335B0203F47C43E9E7AB604C
:104B100042F4005248F2800447F6700342EA010072
:104B200020F47840890020F0F00001F1804101F587
:104B3000B8412043086008681340434023430B609A
:104B4000F8BD00BF005C00400080FFFF08B5044BCB
:104B50001B68013300D0FEE7FFF7ECFDFEE700BF66
:104B600058130020044A136803B9FEE7013B1360A1
:104B70000BB983F3118870475813002008B5EFF381
:104B800011832BB1EFF305822AB1FFF7E3FDFEE7B6
:104B9000FFF7E0FDFEE7124B19681A60E1B14FF034
:104BA000E023104AD3F8201D11600F4A12684AB161
:104BB000D3F8202D22F47F02C3F8202DD3F8202D26
:104BC000C3F8202D4FF0E0234FF08052C3F8042D9E
:104BD000BFF34F8FBFF36F8FBDE80840FFF7C2BF31
:104BE0004C1600204C13002058130020F8B50C463A
:104BF000FFF7A0FD23680F4D5A1C296812D00E4EF6
:104C0000D0F800C037684268BC4501D08A420FD94D
:104C10008F1ABB420AD95B1A1344236033680360BE
:104C20002B6843600020FFF79DFFF8BD0023236041
:104C30000120F8E748160020FC150020EFF3118052
:104C40004FF0BF0383F31188BFF36F8FBFF34F8F14
:104C5000024A136801331360704700BF58130020E5
:104C600008B5FFF7EBFF014B186008BD6813002083
:104C7000044A136803B9FEE7013B136080F311880F
:104C8000704700BF58130020014B1868FFF7F0BFB2
:104C90006813002013B5294CFFF7E2FFD4F89814ED
:104CA00008680378042B39D1237D022B36D10123E8
:104CB0000A7993400289134230D1EFF311831BB379
:104CC000D4E91832934232D1E26D002A2FD0A26F7C
:104CD000002A2CD0043AD21A29D01A60E26D184862
:104CE000013AE265E26E01A91344A26E2366934283
:104CF00024BF636F23660023A367FFF75DFD0246B1
:104D000028B9FFF727FDFEE7FFF724FDFEE7D4F8FB
:104D10009804019B01790068FFF7E6FD094A1368D2
:104D20000133136002B0BDE81040FFF7ADBF8B68E0
:104D3000002BF3D000219847F0E700BF440A002081
:104D4000940A0020C8120020002370B5044680F8A1
:104D50006430B14B00F174021B6D03F1804303F525
:104D6000C04303EB01139B6803F1005303F5405369
:104D70005B0003F110011846043300688B4222F8EF
:104D8000020BF8D163689B681BBB94F8743013F076
:104D9000600540D048F280009F490B6823F4F0433F
:104DA00023F0400383F0100202430A600B6823F4EF
:104DB000904323F0700383F4805303430B606368D4
:104DC0001B6813B1062120469847062384F86430F7
:104DD00070BD204698470028D7D0B4F87A30E26EEC
:104DE0009A4288BFE36694F97430E16E002B80F23A
:104DF0005A81002900F04B81012384F86430FFF7C9
:104E00002FFFD4E91A2300212046FFF76DFDBDE8EE
:104E10007040FFF739BF94F8752003F07F0343EA31
:104E2000022340F20232934200F00D8121D8B3F503
:104E3000807F48D00DD8012B3FD0022B00F0AD80F1
:104E4000002BA7D104F17C02A2660222E26623674E
:104E5000C3E7B3F5817F00F0BA80B3F5407F99D105
:104E600094F87630012B95D1B4F87C3043F00203EE
:104E700032E0B3F5006F39D017D8B3F5A06F31D059
:104E8000B3F5C06F86D1636820465E6894F87620DB
:104E9000B4F8783094F87710B04700283FF47AAF30
:104EA0004368A3660368E3661AE0B3F5106F22D087
:104EB00040F6024293427FF46DAF584BA366022343
:104EC000E3660023C3E794F87630012B7FF462AFEA
:104ED000B4F87C3023F00203C4E91A55A4F87C30FE
:104EE00025677AE7C4E91A554D4BB0E704F17F0313
:104EF000A3660123D7E794F87F2094F876309A428E
:104F000047D02378042B37D1FFF7AAFEEFF31183A4
:104F100013B9FFF71FFCFEE72378042B02D0FFF73D
:104F200019FCFEE7A368012203F00113A36000232C
:104F3000C4E90433C4E90633C4E90833A362402357
:104F400048F28000C4F88430930003F1804303F5F5
:104F5000B843196801320143082A19601860F3D177
:104F6000FFF792FE0023032184F87F3063682170ED
:104F70001B680BB12046984794F876304BB184F803
:104F80007F300423237063681B6813B1022120461D
:104F900098470023C4E91A3359E794F8783003F0AE
:104FA0000F0213F0800F1C4B53F8223008D013F07F
:104FB00030033FF4EFAE102B14BF1A4B1A4B7DE7B2
:104FC00013F440533FF4E6AEB3F5805FF4E794F892
:104FD0007630002B7FF4DEAE94F8782012F00F03C9
:104FE000D7D09B0003F1804312F0800F03F5B84344
:104FF0001A681BD002F03002302ACAD01A6822F494
:10500000F04222F0400282F0200242F4004242F0DC
:1050100080021A60BDE700BF005C004070CD000850
:105020000D3E0008FCC8000874CA000802F4405293
:10503000B2F5405FADD01A6822F4F04222F040028F
:1050400042F42042E3E794F87630002B7FF4A2AEDE
:1050500094F8783013F00F019BD01B4A13F0800FA7
:1050600052F8213015BF23F4F04323F4904323F08A
:10507000400323F0700314BF83F0100383F48053C4
:1050800043F4004343F0800342F8213081E70323D7
:1050900084F86430FFF7E4FD0B460A460021204601
:1050A000FFF7E6FBB3E639B1042384F86430FFF779
:1050B000D7FDD4E91A23F1E7052384F86430FFF71C
:1050C000CFFD0B460A469EE6005C004010B590F806
:1050D00064300446062B52D8DFE803F031041D315A
:1050E000312C3400C36EB0F87A20934213D2C268D8
:1050F000118AB3FBF1F201FB123161B9FFF7B0FD88
:105100000B460A462046FFF7EFFBFFF7BDFD0223E3
:1051100084F8643010BD032384F86430FFF7A0FDE9
:10512000002320461A461946FFF7A2FBBDE81040AF
:10513000FFF7AABD036F03B198470023E8E7FFF725
:1051400009FBFEE748F280000E490B6823F4F043A8
:1051500023F0400383F0100202430A600B6823F43B
:10516000904323F0700383F4805303430B60636820
:105170001B6813B10621204698470623C8E7FFF7AE
:10518000E9FAFEE7005C004010B590F86430044690
:10519000062B3FD8DFE803F01E1E1E13041E21005D
:1051A000052380F86430FFF75BFD002320461A4694
:1051B0001946FFF799FBBDE81040FFF765BDC368CE
:1051C0009B695B682BB9036F03B19847002384F890
:1051D000643010BDFFF7BEFAFEE748F280000F49C9
:1051E0000B6823F4F04323F0400383F010020243E2
:1051F0000A600B6823F4904323F0700383F4805318
:1052000003430B6063681B6813B10621204698476F
:105210000623DCE7FFF79EFAFEE700BF005C0040D4
:105220000C4B10B51B7803B999B10B4C23788B420A
:105230000FD0FFF703FD094B1A6C39B142F400722D
:105240001A642170BDE81040FFF712BD22F400720D
:10525000F6E710BD0008002011090020005C0040A6
:1052600038B50446FFF7EAFC236889005D681C68CE
:10527000FFF7FEFCC1F12002A1F1200305FA02F2C2
:1052800024FA01F125FA03F311431943024B01F00B
:105290000F01585C38BD00BF18C9000800000000AD
:1052A000184B1B6818481A460260EFF30980BFF3D9
:1052B0006F8F134B1A6820E9F00F144C2468EFF33A
:1052C000118120E9120010602DE908404FF0BF0065
:1052D00080F3118806F0BEF9BDE808401968086837
:1052E00012C881F3118809490C60B0E8F00F80F30F
:1052F0000988BFF36F8F7047AFF30080AFF3008072
:10530000A81100204C13002020ED00E058130020CD
:10531000EFF305830F2B06D9094A9B5C094A1278E3
:105320009A4200D9FEE74FF0E023074AD3F80C3D3C
:10533000126803F4E063934200D9FEE7704700BFB0
:10534000F0E300E040130020441300200023C008D5
:10535000834201D00133FBE7704743689A684B6092
:105360008A609A685160996003680861013303603C
:1053700070470000F8B5FFF7DDF9494A494F136857
:105380000446013313603B684748002B7DD13C60E5
:105390001268012A3FD102464FF0FF364FF0140C3D
:1053A0001D4602F10801C2E90116C2E903110CFB16
:1053B00003F10133052B455002F11402F1D13B4AB0
:1053C00002F10803C2E90136C2E90333384B156024
:1053D00003F10801C3E90116C3E9031135491D6052
:1053E00001F1080C0D60C1E901C6C1E903CC3249E5
:1053F00001F1080C0D60C1E901C6C1E903CC2F49D8
:1054000001F1080C0D60C1E901C6C1E903CC2C49CA
:105410000A602C4A13602C4A2C4913680D6801332A
:10542000136063640123E26A93402B430B601423EF
:10543000211D03FB0200FFF790FFFFF793FB244BB6
:105440001B680BB33B68DA6AE36A9A421CD24FF0DE
:10545000E023204AD3F8201D11601F4A12684AB188
:10546000D3F8202D22F47F02C3F8202DD3F8202D6D
:10547000C3F8202D4FF0E0234FF08052C3F8042DE5
:10548000BFF34F8FBFF36F8FF8BD114B1B68002B1D
:10549000C1D13B68DA6AE36A9A4298BF3C60BAE7D6
:1054A0005C130020A8110020B81100207C130020FC
:1054B0009013002000160020341600202016002033
:1054C000AC110020B41100207013002074130020D0
:1054D000141600204C1300205813002030B50C681F
:1054E000631C0AD103695A684A6091608B605960F5
:1054F000036808610133036030BD00F10802134600
:1055000052681568A542FAD9EDE70369D0E901129E
:105510008A6051605968814208BF5A600022026166
:105520001A68013A1A60186870470000037C70B569
:105530008B424FD0284B01741C68002C4AD00029A4
:1055400048D0FFF7F7F8022294F8643084F864201A
:1055500001229342DDB2226638D1261D3046FFF784
:10556000D4FF14201D4AE36A11689D400D43156065
:105570001B4A314600FB0320FFF7EFFEA36A03B18D
:10558000FEE7FFF79BF8174BE26A1B68DB6A9A425B
:105590001CD94FF0E023144AD3F8201D1160134AA0
:1055A00012684AB1D3F8202D22F47F02C3F8202DCF
:1055B000D3F8202DC3F8202D4FF0E0234FF0805278
:1055C000C3F8042DBFF34F8FBFF36F8FBDE870405A
:1055D000FFF7C8BA70BD00BFA411002074130020EB
:1055E000B8110020A81100204C13002058130020EF
:1055F0002DE9F84F384B1B68002B66D1374B1D68DF
:1056000001351D607DB9364B1A68126802B1FEE79C
:10561000344A1968106818601160334A13680133FE
:105620001360FFF74BF8314E00243368304FAB4224
:1056300010D914222F4B1B68DB6A5343FB58022BF3
:1056400028BF01242C4B1B68002B0CBF20460120D7
:10565000BDE8F88FDFF888A0DFF8A090DAF8003016
:105660001B681BB94FF0FF333360E2E7DAF8003014
:10567000DB68D3F80CB0DBF80420954201D232602D
:10568000D7E70BF104084046FFF73FFFDBF828207F
:105690001AB10BF11800FFF738FF0122DBF82C00DC
:1056A000D9F8003082401A43C9F80020142241463C
:1056B00002FB0070FFF751FE0E4BDBF82C2019683F
:1056C000CB6A9A4228BF0124C8E70D4A0024136818
:1056D00001331360B6E700BF6C13002048160020AA
:1056E000AC110020B4110020FC150020F81500209A
:1056F000B8110020A81100204C16002074130020BF
:105700006413002037482DE9F843036803B9FEE726
:10571000FFF710F80368013B0360046824B1002020
:10572000FFF720FABDE8F8832F4B1B68002BF6D05B
:105730002E4D2F4EDFF8BC801FE0EB680127DC68A0
:1057400004F1040904F11800FFF7DFFE4846FFF7F3
:10575000DCFE1420E26A316807FA02F30B4300FB17
:10576000028049463360FFF7F8FD234BE26A1B686D
:10577000DB6A9A4201D3214B1F602B68002BDCD1DE
:105780000CB1FEF79BFF1E4D2C6844B101271B4E48
:10579000FFF72EFF00B13760013CF9D12C60174BA9
:1057A0001B68002BBBD04FF0E023164AD3F8201D16
:1057B0001160154A12684AB1D3F8202D22F47F02F5
:1057C000C3F8202DD3F8202DC3F8202D4FF0E0236F
:1057D0004FF08052C3F8042DBFF34F8FBFF36F8F8C
:1057E00001209DE76C1300205C13002000160020B0
:1057F00074130020B8110020A81100204C160020BE
:10580000641300204C1300205813002038492DE960
:10581000F041FEF72DFF0B680446364DF3B900202A
:10582000354B364AA3F10807D21A5E0718BF073373
:10583000334E3A4418BF23F0070322F007023360C7
:105840007060C2E90000D01AC3E900202D4B0A6045
:1058500018602D4B18604FF000432B602F682742D3
:1058600040D1002C39D004F1080360071CBF23F09D
:1058700007030833002B35D0DFF88C80D8F80060A0
:105880009E422FD31E4A15686868984201D22C6840
:1058900074B90968A94225D0296814681160C21A30
:1058A000102A04F108040AD9E818410703D0FEE7DA
:1058B0002A462546E8E742606B60FEF7B5FE002306
:1058C00010496A680868B61A864247EA0207C8F8AB
:1058D000006038BF0E606F602B60FFF713FF630737
:1058E00002D0FEE70024F8E72046BDE8F08100BFC3
:1058F000B011002078130020501600200050002026
:1059000018160020F4150020A413002008B5E8B1F3
:105910000F4A50F8043C1268134200D1FEE750F8D9
:10592000081C01B1FEE723EA020340F8043CFEF73D
:105930009FFE084A50F8043C116808380B44136075
:10594000FEF772FEBDE80840FFF7DCBE08BD00BFF1
:1059500078130020A413002010B590F86530044699
:105960003BB9006BFFF7D2FF2046BDE81040FFF7C0
:10597000CDBF012BF9D0022B00D0FEE710BD0000F7
:105980002DE9F74FD1F800A004460D461746BAF1AD
:10599000000F40D04FF0000A4B6801F108085B6827
:1059A000DFF89C9043454B6004BFCB684B604B686D
:1059B000DB6801936A68526890456A6004BFD8F852
:1059C00004206A606A68D2F80CB0BBF1000F26D1DF
:1059D000D9F80060002306F134006060F06A2660A8
:1059E0002061306BE061706CA060F06CA36160615D
:1059F000D9F80000864214D123730020336B1E5C5B
:105A0000A52E1BD0019B80085B4520840AF1010A6A
:105A100004F12404CED1504603B0BDE8F08F5E46B9
:105A2000D8E7032F2773E8D1FEF722FEB06A10B142
:105A30004FF002032373FFF765FEDEE70130DEE778
:105A4000A811002008B5FEF775FEFFF7D1FD48B19B
:105A50004FF0E023054AD3F8201D11604FF080522B
:105A6000C3F8042DBDE80840FFF77CB84C130020B4
:105A700038B5C368DC6804B9FEE704F118052846A8
:105A8000FFF743FD124B1B68F3B9251D2846FFF7AE
:105A90003CFD01230F49E26A086893400343142048
:105AA0000B6029460C4B00FB0230FFF756FC0B4BFA
:105AB000E26A1B68DB6A9A4285BF0120084B00201E
:105AC0001860FEF7FBFD38BD29460648EDE700BF2C
:105AD0006C13002074130020B8110020A8110020BE
:105AE0004C160020001600202DE9F04104464FF02E
:105AF0000108FEF71FFE90F845501B4F6DB200F1F4
:105B00002406002D17DCFF234FF0010884F84530F0
:105B1000FFF728F8FEF70EFE94F84450124F6DB2CE
:105B200004F11006002D12DCFF2384F84430BDE898
:105B3000F041FFF717B8636A002BE4D03046FFF757
:105B400097FF08B1C7F80080013D6DB2D9E723691E
:105B5000002BE9D03046FFF78BFF08B1C7F8008073
:105B6000013D6DB2DEE700BF4C160020F8B51A4BC0
:105B70001A4D06461C6828680F460430FFF7C5FC1E
:105B800040B92A681649D06A01220B68824023EA8C
:105B900002030B60731C07D137B129681148043127
:105BA000BDE8F840FFF7D9BB2B68A4195C6007D3A8
:105BB0000D4B18682968BDE8F8400431FFF78EBC2A
:105BC0000A4B186829680431FFF788FC084B1A68EB
:105BD000A24288BF1C60F8BD48160020A811002012
:105BE0007413002020160020B4110020AC110020F6
:105BF000F81500202DE9FF470446019100B9FEE7A2
:105C0000056C05B1FEE72846984F994E73E0019B5D
:105C10001BB9002D00F06281FEE720B93B680293BA
:105C2000944B1B680393FEF79DFFFEF721FDFEF7E3
:105C300081FD94F8443001A9FF2B04BF002384F8B0
:105C4000443094F8453002A8FF2B04BF002384F8A9
:105C50004530FEF787FFFEF7C9FF002840F0DA80E5
:105C6000FEF768FDA36B002B3DD1FEF77BFF236899
:105C7000DFF80482002B40F08380FEF75BFD65684F
:105C8000002D7AD0D8F80020EB6AD26A934280F0D7
:105C9000B8804FF01409AA6909FB0363002AA1BF69
:105CA000D8F80020D26AC2F10502AA616A699A4254
:105CB0005ED105F1040A5046FFF727FC6F4B002820
:105CC00000F09080D8F800201868D26AEA620125B6
:105CD00005FA02F101431420196000FB02605146ED
:105CE000FFF73BFB48E02046FEF73CFFFFF7FCFEDA
:105CF000FFF708FD0120FEF71DFDA36B002B86D0EA
:105D0000013BA363236843B95B4B1A681AB1196856
:105D10000A6D01320A651B68636023690BB304F1E5
:105D20001000FFF7A5FEE0B14FF0E023544AD3F88E
:105D3000201D1160534A12684AB1D3F8202D22F475
:105D40007F02C3F8202DD3F8202DC3F8202D4FF06B
:105D5000E0234FF08052C3F8042DBFF34F8FBFF301
:105D60006F8FFEF7FFFE0125284604B0BDE8F087DF
:105D7000D8F80030DB6AEB620120FEF7F3FE05463F
:105D8000D8F80010DDF80490183104F12400FFF772
:105D9000A5FB01214846FFF7E9FE2046FFF7A4FED8
:105DA000FFF7B0FC0028A5D14FF0E023344AD3F828
:105DB000201D1160334A12684AB1D3F8202D22F415
:105DC0007F02C3F8202DD3F8202DC3F8202D4FF0EB
:105DD000E0234FF08052C3F8042DBFF34F8FBFF381
:105DE0006F8F87E7E86A09FB00F956F80920002A57
:105DF0007FF468AF01211A68814022EA01021A602B
:105E000060E7D8F80030E86CDB6A98422CBF0020CD
:105E10000120B2E72046FFF767FEFFF773FCFEF7AD
:105E200089FCA36B13B1FEF79DFE63E7FEF79AFEB4
:105E3000002D99D0FEF77EFC636A1BB1236B1B68B3
:105E4000C3F105036468002C48D0216D01B9FEE759
:105E5000E26C934238BF1346E26A93423ED0012976
:105E60003CD1054909688C420ED1FEE7FC150020A3
:105E7000B811002048160020A8110020741300203B
:105E80004C130020581300201426A169154F002937
:105E900006FB0272E362A4BFC3F10503A361636959
:105EA00093421BD104F104084046FFF72EFB0E4D30
:105EB000E26A40B95643BB592BB901212B68914086
:105EC00023EA01032B6001231420296893400B432C
:105ED00000FB027041462B60FFF73FFAFEF742FEDF
:105EE000002541E7B81100207413002008B510B94F
:105EF000FEF730FCFEE74FF0FF31BDE80840C06818
:105F0000FFF778BE08B598B94FF0E023144AD3F8EC
:105F1000201D1160134A1268BAB94FF0E0234FF008
:105F20008052C3F8042DBFF34F8FBFF36F8F0BE088
:105F30000D4B196801B1FEE7FEF79AFBFFF716FE5D
:105F4000FFF7E0FB0028DFD008BDD3F8202D22F4B6
:105F50007F02C3F8202DD3F8202DC3F8202DDCE7D5
:105F60004C130020581300206C130020054B9A6836
:105F70001968885C596801328A429A6024BF0022FD
:105F80009A6070471013002070B5154C0546A38A1F
:105F9000CBB1A26823699A4215D1FFF7E7FF064605
:105FA000FFF7E4FF40EA0623A06862689BB203445F
:105FB0009342A36024BF9B1AA360A38A013BA382E0
:105FC000236A0133236223692268D55423696268F6
:105FD00001339342236124BF0023236170BD00BFBE
:105FE0001013002070B506460C460025A54204D3C8
:105FF000044B99692144996170BD705DFFF7C4FF3E
:106000000135F3E71013002010B51446084691B28D
:10601000FFF7E8FF204610BD07B58DF807100DF11A
:1060200007000121FFF7DEFF002003B05DF804FB4D
:10603000134B5A689969023A914209D31A6A998AAC
:1060400001320A441A6200229A829A601A617047E9
:10605000B1F5803FDA6904D31A611A6A01321A6213
:1060600070471868090A8154596801328A4228BF6A
:1060700000229869196888549A8A01329A82704776
:1060800010130020F8B52F4DFEF754FB2C68261D89
:106090003046FFF73AFA60B91420E76A2A4B784392
:1060A0001B5833B901222949BA400B6823EA02037D
:1060B0000B60A36A1BB104F11800FFF726FA244A0B
:1060C0001368013313602B689C4213D13146214879
:1060D000FFF743F9204A136801331360FEF742FDCE
:1060E0001E4B1B686BB32B689C422AD11C4B1B6850
:1060F00053B1FEE71B4A20461368013B1360FFF7CC
:106100002BFCFEF7DBFAE9E74FF0E023164AD3F861
:10611000201D1160154A12684AB1D3F8202D22F4CF
:106120007F02C3F8202DD3F8202DC3F8202D4FF087
:10613000E0234FF08052C3F8042DBFF34F8FBFF31D
:106140006F8FF8BDA8110020B81100207413002033
:106150007013002034160020601300201416002055
:106160006C1300205C1300204C13002058130020F7
:1061700008B58047BDE80840FFF784BF70B500252B
:106180000223164C2022294604F10C002370E567F7
:10619000A56005F047FB8022114B84F864501D6513
:1061A0005D64DA6462682946D2682046AA420CBF60
:1061B0004FF41C424FF41E421A644023C4F884304A
:1061C000084BE360FEF746FC63681B6823B1294671
:1061D0002046BDE87040184770BD00BF540F002036
:1061E000005C0040CCC900082DE9F84F924D6C6C62
:1061F000660504D56FF480636B64FFF7BFFF20056D
:1062000011D52B6C8D4843F008032B646FF40063A9
:106210006B64037880F880300523037043681B6843
:106220000BB104219847E10414D5834B9A6C1204F6
:106230000CD41A6C814822F008021A6490F880305D
:10624000037043681B680BB1052198476FF48052B7
:10625000794B5A64A30508D578484368DB6803B1D5
:1062600098476FF40072744B5A64744E744D14F472
:10627000004122D1734B1A681960E2B14FF0E0235C
:10628000714AD3F8201D1160704A12684AB1D3F8E0
:10629000202D22F47F02C3F8202DD3F8202DC3F83F
:1062A000202D4FF0E0234FF08052C3F8042DBFF3B0
:1062B0004F8FBFF36F8FBDE8F88F04F00F04A70076
:1062C00007F1804707F5B847D7F800A004F10209A5
:1062D00006EB89031AF0800FD3F8048025D03A68C2
:1062E000D8F814302A4042F400423A60D9685A681B
:1062F00018680A44801A5A602CD0B8F810208242DC
:1063000028BF024698680144C3E902122046FDF7FF
:106310002BFF3B6823F4F04323F0400383F030036A
:1063200043F4004343F080033B601AF4004F6AD00B
:106330003B681AF4006F03EA050343F080033B60F7
:10634000E1B216D006EB8909D9F804305B68304613
:10635000984758E0012303FA04F2338923EA020341
:106360003381D8F80830002BDFD0214630469847DB
:10637000DBE7D8F81820304BD2F808C01B6DE14697
:1063800003F1804303F5C04303EB04108368D0F8A6
:106390000CE003F10053CEF30900CEF3480E03F5F1
:1063A00040534FEA8E0A0AEB430A5B00534509F15A
:1063B00002092BD16FF0010909FB0E09B9F1000F99
:1063C00002D01B680CF81E30936803449360536836
:1063D0000344536013681B1A13609389013B9BB2FB
:1063E0009381B8F81220824200D8C3B9012303FA7E
:1063F00004F2738906EB840423EA02037381E368E1
:10640000DB68002BA3D10C4B5C6C30E753F804BB6A
:1064100009F802BC4FEA1B2B09F801BCC6E73B6830
:1064200023F4904323F0700383F4405343F4004378
:1064300043F080033B60E6E7005C0040540F00201F
:106440000F07FFFF4C1600204C13002058130020AC
:10645000F8B510B9FEF77EF9FEE701231F4E477C21
:10646000356803FA07F42C4235D11D4B43F8371039
:1064700003EBC7035A606B0608BF1A4A016802BFE4
:10648000536943F00103536143681A6822F00F0215
:106490001A600E22077CBA404A6000221A608368A4
:1064A0001D4214D1C021837C03F1604202F5614298
:1064B00082F80013012203F01F015B099B0003F126
:1064C00060438A4003F56143C3F880211A600020CD
:1064D0002C433460F8BD1846FCE700BF4410002090
:1064E000E80F00200010024070B5274C06460D460C
:1064F0001046FEF71FF9236893F86430022B28D06A
:1065000001212268136E23EA06031366236883F8C9
:106510006410F0B1FFF72AFB4FF0E0231B4AD3F8D9
:10652000201D11601A4A12684AB1D3F8202D22F4B6
:106530007F02C3F8202DD3F8202DC3F8202D4FF073
:10654000E0234FF08052C3F8042DBFF34F8FBFF309
:106550006F8FFEF707FBFEF7EDF8236800201B6E38
:106560002B60236893F86430022B04BF23681A6EF3
:106570004FF0000208BF1866236808BF012083F8A7
:106580006420FEF7EFFA70BDA81100204C13002024
:106590005813002007B50D4E002534685CB92DB99D
:1065A0004FF0FF32284601A9FFF79EFF42F210701C
:1065B000FFF7A8FCF0E7237C2BB123681BB16068D0
:1065C000984720740543A468E8E700BFA0110020A5
:1065D00013B504460846EFF311832BB1EFF305839F
:1065E0002BB1FEF7B7F8FEE7FEF7B4F8FEE781B18E
:1065F00034B1FEF79FF80A4B1968FEF7B3FA216031
:10660000024601A94FF0FF30FFF76EFF20B904B139
:1066100020604FF0FF3000E0019802B010BD00BFD5
:10662000A811002070B50D461646FEF783F80378D2
:10663000022B02D0FEF78EF8FEE743681B6813B109
:10664000FEF788F8FEE703230370436E0F4A5C6889
:10665000C36EE66043F0800365602360836E4FF095
:10666000FF315B680830DA60826E5D601A60226814
:1066700042F0010222601A6842F001021A60FFF73C
:10668000A7FFBDE87040FEF779BA00BFC8C900088F
:1066900070B50546084600293FD015B9FEF75AF8EF
:1066A000FEE7EFF31183002B34D0EFF3058313B132
:1066B000FEF750F8FEE71A4EFEF73CF83468FEF796
:1066C00051FA2B68E4B932685365DCB932680021AD
:1066D000916503B19C656B682C6003B96C600146E1
:1066E0000020FFF775FF431C09D16CB933685B6D5F
:1066F00004B93468A26D4BB19A654AB1536570BD57
:106700002246E1E72246E2E72346F0E76A60F4E743
:106710002B60F4E7FEF71EF8FEE74FF0FF30EEE7E0
:10672000A811002038B504460D46EFF311832BB1B4
:10673000EFF305836BB1FEF70DF8FEE7FEF70AF8FD
:10674000FEE7237AABB929462046FFF7A1FF0028D0
:106750000EDBE368002BF4D0E36813B9FDF7FAFF12
:10676000FEE700206269131D1268A3621344E3620E
:1067700038BD6FF00100FBE738B50D46FDF7DAFFD5
:10678000836A044643B92946FFF7CCFF054618B192
:10679000FEF7F4F9284638BDA36AE26A13F8015BF4
:1067A0009342A362F4D32046FDF7E0FFF0E74FF0F9
:1067B000FF311830FFF7E0BF1830FFF7DDBF38B505
:1067C00004460D46EFF311832BB1EFF305836BB154
:1067D000FDF7C0FFFEE7FDF7BDFFFEE7237AABB98B
:1067E00029462046FFF754FF00280EDBE368002B04
:1067F000F4D0E36813B9FDF7ADFFFEE7002023698D
:106800001A1DA262E2691344E36238BD6FF0010011
:10681000FBE770B50D461646FDF78CFF836A04460C
:1068200033B93146FFF7CBFF10B1FEF7A7F970BDC2
:10683000A36A1D70A36AE26A01339342A36204D380
:10684000E16920460439FDF7CBFFFEF797F90020F8
:10685000EDE7D0F8982438B5936804460D4613B197
:10686000012110689847294604F150004FF0FF328B
:10687000BDE83840FFF7CDBF70B51646D0F8982474
:10688000044693680D4613B10121106898473246BB
:10689000294604F15000BDE87040FFF7BABF38B593
:1068A00004460D46FDF746FFA3689BB1A368A269A5
:1068B000013BA360531CA36115782269934224BF56
:1068C000E368A361E3690BB120469847FEF756F9E8
:1068D000284607E029462046FFF7DAFE0028E3DADB
:1068E000FEF74CF938BD4FF0FF311830FFF7D7BF36
:1068F0001830FFF7D4BF00002DE9F74F04460D46CE
:106900001F46164612B9FDF725FFFEE74FF00008B7
:10691000DFF888A0D0F81C90FDF70CFFFEF7F8FC1C
:10692000DAF8003007F1FF3BFB180193A368E3B1ED
:10693000A368013BA360A3695A1CA2611B7805F8F8
:10694000013B2369A2699A4224BFE368A361B9F1BC
:10695000000F01D02046C847FEF710F9013E08F1AC
:10696000010816D0FDF7E6FEE0E71BF1030F06D99C
:1069700039462046FFF78CFE0028D7D007E0FEF707
:10698000C7FCDAF80010019B591A8F42F1D2FEF7CA
:10699000F5F8404603B0BDE8F08F00BF4816002070
:1069A0004FF0FF331830FFF7A7BF1830FFF7A4BF31
:1069B00070B504460D461646FDF7BCFEA368A3B1AC
:1069C000A368013BA36063695A1C62611D70D4E92E
:1069D00004329A4224BFE3686361E3690BB1204645
:1069E0009847FEF7CBF8002007E031462046FFF736
:1069F0004FFE0028E2DAFEF7C1F870BD4FF0FF321B
:106A00003C30FFF7D5BF3C30FFF7D2BF2DE9F74F41
:106A100004460D461F46164612B9FDF79BFEFEE7DB
:106A20004FF00008DFF888A0D0F81C90FDF782FE38
:106A3000FEF76EFCDAF8003007F1FF3BFB1801931C
:106A4000A368E3B1A368013BA36063695A1C626158
:106A500015F8012B1A70D4E904329A4224BFE36876
:106A60006361B9F1000F01D02046C847FEF786F8F0
:106A7000013E08F1010816D0FDF75CFEE0E71BF1CE
:106A8000030F06D939462046FFF702FE0028D7D06B
:106A900007E0FEF73DFCDAF80010019B591A8F421F
:106AA000F1D2FEF76BF8404603B0BDE8F08F00BFAF
:106AB000481600204FF0FF333C30FFF7A7BF3C30B3
:106AC000FFF7A4BFF0B500F10B0423460D46B1FB60
:106AD000F2F102FB115707F13006392EC8BF07F15A
:106AE0003706954203F8016DF0D2421EE11A13F801
:106AF000015B9C4202F8015FF9D10844F0BD00003F
:106B00002DE9F04F0B46804614464FF0000987B040
:106B10001F4617F8011B002900F05281252907D0D4
:106B2000D8F8003040469B68984709F1010912E106
:106B30005A784FF0000B2D2A08BF9F1C97F800A031
:106B40000CBF01230023BAF1300F18BF4FF0200A09
:106B5000019308BF013717F8012BA2F13001C9B228
:106B6000092904D92A2A06D154F8041BC9B20A23D8
:106B700003FB0B1BEFE72E2A4FF000010FD117F894
:106B8000012BA2F13000C0B2092804D92A2A06D16B
:106B900054F8040BC0B20A2303FB0101EFE702F033
:106BA000DF004C2815D1387808B102460137642A35
:106BB0006FD000F2E380582A00F0D98021D84F2A04
:106BC00000F0B58000F2D580442A62D0492A60D016
:106BD00010E0A2F14100642AC0B256D01ED8552A56
:106BE00000F096800AD8492A4FD04F2A00F09B80A7
:106BF000442A4AD026468DF80C200BE0582A00F093
:106C00009480632AF6D126464FF0200A56F8042BCA
:106C10008DF80C2003AC0DF10D004CE0692A34D046
:106C2000A2F16F05EEB2092EE4D8092DE2D801A336
:106C300053F825F0276D0008F56B0008F56B000888
:106C4000F56B00085D6C0008F56B0008116D00081D
:106C5000F56B0008F56B00082B6D000826465A4BB3
:106C600056F8044B47F6FF72002C08BF1C4600295B
:106C700008BF11462046214402780AB1884202D159
:106C80004FF0200A17E00130F6E7192804F1040656
:106C90003CD8264656F8041B0029BCBF2D228DF88F
:106CA0000C204FF00A02BABF49420DF10D0003A8B3
:106CB000FFF708FF03AC051B0199ABEB050323EAC3
:106CC000E372002949D1002BC2F1000B1CDD2178B1
:106CD0002D290DD1BAF1300F0AD1D8F80030404635
:106CE0009B6801929847019A013D09F1010901341D
:106CF000D8F80030514640469B68019298471BF1F6
:106D0000010B019AF4D191442B461BE02168C3E7A3
:106D10000A222646192856F8041B02D8264656F899
:106D2000041B03A8C4E70822F3E71022F1E70822B6
:106D3000F4E7D8F800204046926814F8011B01934C
:106D40009047019B013BF4D5002DA8BFA9445C46A8
:106D50002CB93446D9443B46DAE69346D4E7D8F812
:106D60000030514640469B689847013CF0E71022AE
:106D7000D4E7552A7FF43EAF0A22CFE7692A88D0AC
:106D8000A2F16F00C5B2092D3FF634AF09283FF6D6
:106D900031AF01A353F820F02F6D0008F56B000808
:106DA000F56B0008F56B00085D6C0008F56B0008DA
:106DB000796D0008F56B0008F56B00086F6D000831
:106DC000484607B0BDE8F08FDABA0008F8B50446C7
:106DD00000B9FEE7FEF79CFAFDF730FF022294F8B7
:106DE00064300646012B84F86420DDB221661FD191
:106DF000A36A03B1FEE7134B1B68F3B9271D38469E
:106E0000FEF783FB104A1420E36A11689D400D438E
:106E1000394615600D4A00FB0320FEF79EFA0C4B25
:106E2000E26A1B68DB6A9A4282BF0122094B1A6040
:106E30003046BDE8F840FDF71BBF074804F11801D4
:106E4000EBE700BF6C13002074130020B811002082
:106E5000A81100204C1600200016002010B5044692
:106E6000006818B1FFF7B2FF0023236010BD03468E
:106E700007B5406860B1826D019062B10020506535
:106E80005A60EFF3118343B101A8FFF7E7FF012038
:106E900003B05DF804FB1A60F2E7FDF75BFCFEE768
:106EA00008B510B9FDF756FCFEE7EFF3118323B1E7
:106EB000BDE808400021FFF7DABFFDF74BFCFEE715
:106EC00010B5044610B9FDF745FCFEE7EFF311835A
:106ED00013B9FDF73FFCFEE76FF001012046FFF715
:106EE000C6FF0028F8D110BD70B5044610B9FDF7F3
:106EF00031FCFEE7EFF311834BB34668C3680E43E2
:106F000046600BB131469847256865B963680BB395
:106F1000EFF31183C3B104F108006FF00201BDE883
:106F20007040FFF79BBF2B691E4206D06B69A969B1
:106F30003343E8686B61FFF7D7FF2A6963682D6800
:106F400023EA02036360E0E7FDF704FCFEE7FDF7D8
:106F500001FCFEE770BD00EB81032DE9F3419C6A63
:106F600005460E4694B3FDF77BFE0821201D05EB78
:106F70008607FFF7B9FFFB6804F150085B691B68DF
:106F8000BBB1EFF311833BB3D4E918239A4204D188
:106F9000E26D12B1FDF7DEFBFEE7E26D0132E26564
:106FA000E26E1344A26E6366934212D24046FFF72C
:106FB00077FF404601A9FDF7FFFB024678B1019B30
:106FC00031462846FDF790FCFDF75EFE02B0BDE8B5
:106FD000F081636F6366E9E7FDF7BCFBFEE7FB68E2
:106FE0005A69126832B11B8A013B134002D105F184
:106FF0007402E5E7D4F898249368002BE4D00121CB
:1070000010689847E0E708B5EFF311831BB1BDE8BE
:107010000840FFF723BFFDF79DFBFEE711F00801D5
:1070200038B5044602D0FDF795FBFEE7026F836F8B
:107030005568286820F00F002860157C10680E2223
:10704000AA4042605A6822F480525A601A6822F4B8
:1070500080621A601A6842F400721A60FDF700FE3E
:1070600004F16000FFF7CFFFBDE83840FDF70CBE2C
:1070700070B54D4DAC6FD5F88020A36966690132BB
:10708000F105C5F8802001D41D2A1CD963696FF071
:10709000010123F480736361636823F40073636008
:1070A0000123AB60FDF7DCFD4048FFF7ACFFFDF7C7
:1070B000EBFD00213E4B1A681960002A72D0BDE832
:1070C0007040FCF75FBE3B4A46EA034323F07F4330
:1070D000934230D00AD8073A93421DD001329342EE
:1070E0002ED016F00A0F18BFA369E2E7324A934286
:1070F0003CD002329342F4D12B6F5B68596800296F
:107100003FD0B5F8643043F00103A5F8643023683C
:1071100043F4A0632360CCE7B5F86420130A08D0D9
:1071200003F0060302F00102134343F0F00323616E
:10713000D7E72261D5E7B5F86430C3F34703F6E734
:10714000636823F4007363602B6F5B681A6842F016
:1071500001021A60626842F4805262605B68012B2F
:10716000BFD8236823F480632360BAE7636823F4FD
:10717000007363606B6F5A68136843F00103136018
:10718000AFE7636823F400736360236843F400731C
:107190002360FDF765FD05F16000FFF734FFFDF7A3
:1071A00073FD9EE770BD00BF3409002094090020E4
:1071B0004C1600200800030082000700F8B5354B8C
:1071C0009A6F516901F45F44E44354615C6F88B283
:1071D0006668356825F00F053560257C26680E2425
:1071E00004FA05F575601D6F6F683E6826F00F069E
:1071F0003E602E682D7CAC407460D3F88040013432
:10720000C3F8804011F4807418BF012487059C6086
:1072100042BF9C6844F002049C6046050BD555684B
:107220009C6825F400755560156844F0040445F425
:10723000007515609C60050542BF9A6842F008021F
:107240009A60440442BF9A6842F020029A60C004E7
:1072500042BF9A6842F010029A6009049A680CD5FD
:1072600042F040029A60FDF7FBFC6FF001010A4812
:10727000FFF7C9FEFDF708FD01E0002AF3D1002168
:10728000064B1A6819601AB1BDE8F840FCF77ABDE0
:10729000F8BD00BF34090020940900204C160020DE
:1072A00038B50B07044602D5FDF754FAFEE7836EA6
:1072B00059680A6822F00F020A601A7C19680E23C6
:1072C00003FA02F24A60426E5568296821F00F0104
:1072D00029601168127C93404B6043681B682BB196
:1072E0000422027098472378042B01D102232370D3
:1072F000FDF7B6FCEFF311832BB1A06830B9BDE800
:107300003840FDF7C1BCFDF725FAFEE70021FFF785
:107310005DFD0023A360F2E710B50446000AFDF707
:107320005BF883680A461B68E1B2BDE81040184765
:107330002DE9F041C56F044615B9FDF70BFAFEE7DC
:1073400003785A1E012A04D9052B02D0FDF702FA50
:10735000FEE7FDF7EFF994F80080A66FB8F1010F92
:1073600065603AD18A239A22C4E91A326B4B9C4257
:1073700033D16B4F22463B696A4943F400133B61AA
:107380000023206F3B61FFF763F810B1FDF7E2F9CE
:10739000FEE722466449606FFFF75AF810B1FDF727
:1073A000D9F9FEE7C0224FF00041FB6943F4001316
:1073B000FB615E4B83F81F23C3F88011196083F8CB
:1073C0002023C3F88481C3F80480A36E43F44053A0
:1073D000A366E36E43F44053E366236F67685A681D
:1073E00006F110039360626F79685268481E9360DB
:1073F0004FF400434FF41062336000233360726037
:107400004B4A904202D9FDF7A5F9FEE7A06F3A7A00
:10741000D0F804C02CF03F0C4FEA0C4C4FEA1C4C47
:10742000C0F804C0D0F804C04CF0240CC0F804C06C
:10743000DFF800C1614539D8012A02D0FDF78AF989
:10744000FEE73D4A4900B2FBF1F301FB132212B102
:10745000FDF780F9FEE79BB2032B02D8FDF77AF91E
:10746000FEE72522B3F5805F02624BD2C3613A7812
:107470000368022A9BB248D0032A4CD0012A02D1C9
:1074800023F00A039BB20360336843F001033360C7
:1074900002232370FDF772FB297CA889FFF73CFFCC
:1074A000297CE889BDE8F041FFF736BFDFF88CC0E2
:1074B0006145DBDC931E012B02D9FDF74BF9FEE79A
:1074C000022A1D4B10D101EB4101B3FBF1F201FB8C
:1074D000123313B1FDF73EF9FEE792B213430B22CC
:1074E00043F400430262C1E719225143B3FBF1F2B6
:1074F00001FB123313B1FDF72DF9FEE74FF4804382
:1075000092B2EBE7FDF726F9FEE723F008039BB202
:1075100043F00203B7E743F00A03B4E7340900205D
:10752000001002401D700008194A000800E100E048
:10753000FF083D00A086010000512502801A0600C8
:1075400010B50446000AFCF747FFE4B201FA04F262
:1075500001218368A1409B68BDE8104018470000E6
:1075600070B56C4A037E52F823400C43052B1DD89E
:10757000DFE803F0033A5656567100214FF480704D
:10758000FFF7DEFF00214FF48670FFF7D9FF0121DE
:1075900040F20D10FFF7D4FF00214FF48770FFF782
:1075A000CFFF002140F20F10FFF7CAFF14F48075DF
:1075B0000CBF012100214FF48470FFF7C1FF281E8A
:1075C00018BF0120FCF75EFE14F4806318BF64232B
:1075D00014F4006418BFC8241C444F4B1C604F4B6C
:1075E0001C68002C4DD1FEE701214FF48070FFF79D
:1075F000A7FF00214FF48670FFF7A2FF002140F2A1
:107600000D10FFF79DFF00214FF48770FFF798FFE3
:10761000012140F20F10FFF793FF01210220C3E781
:1076200001214FF48070FFF78BFF00214FF486702B
:10763000FFF786FF002140F20D10FFF781FF0021C8
:107640004FF48770FFF77CFF012140F20F10FFF726
:1076500077FF0021E2E700214FF48070FFF770FF11
:1076600001214FF48670FFF76BFF002140F20D10EF
:10767000FFF766FF00214FF48770FFF761FF0021DD
:10768000E3E7274D2B689C4242D0FDF753F862692F
:10769000244B9A4238D1A36A234A934234D09BBBED
:1076A000261D3046FDF731FF01232049E26A0868B4
:1076B0009340034314200B601D4B314600FB023006
:1076C000FDF74BFE2B68E26ADB6A9A421CD34FF04F
:1076D000E023184AD3F8201D1160174A12684AB1F6
:1076E000D3F8202D22F47F02C3F8202DD3F8202DCB
:1076F000C3F8202D4FF0E0234FF08052C3F8042D43
:10770000BFF34F8FBFF36F8FBDE87040FDF72ABA0C
:1077100070BD00BF00C90008981100209C11002016
:10772000A81100202016002000160020741300204D
:10773000B81100204C1300205813002008B5012177
:1077400040F20310FFF7FCFE4FF47A70FEF7DAFB0D
:107750000022014B1A7008BD5513002020B10021F2
:107760004FF48270FFF7ECBE0121F9E738B5C36F23
:10777000054601219889FFF7E3FE4FF4C870FDF735
:10778000E5FD0624EB6F9889FCF734FE08B1002074
:1077900038BD0120013CFEF7B5FB14F0FF04F1D128
:1077A0000120F5E710B50446C36F00219889FFF763
:1077B000C7FE4FF4C870FDF7C9FDE36F9889FCF769
:1077C00019FE002814BF0320002010BD10B5044688
:1077D000C36F0121D889FFF7B3FE4FF4C870FDF7DE
:1077E000B5FDE36FD889FCF705FE00280CBF022029
:1077F000002010BD10B50446C36F0021D889FFF7E3
:107800009FFE4FF4C870FDF7A1FDE36FD889FCF728
:10781000F1FD002814BF0420002010BD10B5D0F8E1
:107820009814034608680278042A1CD11A7D022A9B
:1078300019D101220C79A2404489224213D1EFF3DD
:1078400011826AB1D3E90A24A24201D15B6A53B919
:10785000BDE810404FF4807349790432FDF708B851
:10786000FCF778FFFEE710BD406BFFF7D7BF113183
:1078700010B550F82140002C3DD00421FDF7F0F95F
:107880006018FFF731FBEFF3118363B1D4F898244C
:107890001368527903EB8203DB689B695A682AB943
:1078A000FCF758FFFEE7FCF755FFFEE7636B043B70
:1078B0009A42F5D8D4E90A318B4204D1616A11B1F8
:1078C000FCF748FFFEE71A60626A01326262626B8F
:1078D0001344226BA36293420AD204F11800FFF70B
:1078E000DFFA2046FFF79AFFBDE81040FDF7CCB95C
:1078F000E36BA362F1E710BD2DE9F74F1F46044685
:107900000026DFF8ACA090460D46FCF713FFFDF70C
:10791000FFFCDAF8003007F1FF3B07EB0309A36A2D
:107920003BB91BF1030F2AD939462046FEF7FAFE70
:1079300068BBD4E90A12A8EB0603521A9A4228BF80
:107940001A46402A29D92B4601F1400251F8040B6E
:10795000914243F8040BF9D1A36A40354033A36246
:107960004036D4E90A239A4202D32046FCF7FEFEB1
:10797000FDF704F9B0450CD9FCF7DCFECFE7FDF7C5
:10798000C7FCDAF80010A9EB01018F42CDD2FDF758
:10799000F5F8304603B0BDE8F08F28460192FCF7B9
:1079A0009DF8019AA36A15441344A3621644D8E7CC
:1079B0004816002010B512B9FCF7CCFEFEE71830CF
:1079C000BDE81040FFF798BF10B512B9FCF7C2FE32
:1079D000FEE74FF0FF33BDE810401830FFF78CBFD3
:1079E0002DE9F74F1F4604460026DFF8ACA090466D
:1079F0000D46FCF79FFEFDF78BFCDAF8003007F12F
:107A0000FF3B07EB0309A36A3BB91BF1030F2AD91C
:107A100039462046FEF7D3FE68BBD4E90A02A8EB3C
:107A20000603121A9A4228BF1A46402A29D905F19C
:107A3000400355F8042B9D4240F8042BF9D1A36A6A
:107A400040364033A362D4E90A239A4204D3E16961
:107A500020460439FCF7C4FEFDF790F8B0450CD978
:107A6000FCF768FECFE7FDF753FCDAF80010A9EB4E
:107A700001018F42CDD2FDF781F8304603B0BDE859
:107A8000F08F29460192FCF729F8019AA36A154460
:107A90001344A3621644D6E7481600202DE9F041AE
:107AA0001546D0F898241F46936804460E4613B135
:107AB00001211068984715B9FCF74CFEFEE73B46DC
:107AC0002A46314604F15000BDE8F041FFF788BF77
:107AD00070B51546D0F89824044693680E4613B145
